:020000040800F2
:10000000300A0020050100080D0100080F0100085A
:10001000110100081301000815010008000000008C
:1000200000000000000000000000000017010008B0
:1000300019010008000000001B0100081D01000854
:100040001F0100081F0100081F0100081F01000810
:100050001F0100081F0100081F0100081F01000800
:100060001F0100081F0100081F0100081F010008F0
:100070001F0100081F0100081F0100081F010008E0
:100080001F0100081F0100081F0100081F010008D0
:100090001F0100081F0100081F0100081F010008C0
:1000A0001F0100081F0100081F0100081F010008B0
:1000B0001F0100081F0100081F0100081F010008A0
:1000C0001F0100081F0100081F0100081F01000890
:1000D0001F010008410500081F0100081F0100085A
:1000E0001F0100081F0100081F010008DFF810D0E1
:1000F00000F04CF800480047190B0008AFF30080EF
:10010000300A00200648804706480047FEE7FEE721
:10011000FEE7FEE7FEE7FEE7FEE7FEE7FEE7FEE7B7
:10012000E1040008ED0000082DE9F05F054600201D
:1001300092469B4688460646814640241BE0284658
:1001400041464746224600F042F853465A46C01AF6
:10015000914110D311461846224600F029F82D1A75
:1001600067EB01084F4622460120002100F020F8ED
:1001700017EB00094E41201EA4F10104DFDC4846C4
:1001800031462A464346BDE8F09F0000064C074D25
:1001900006E0E06840F0010394E807009847103457
:1001A000AC42F6D3FFF7A6FF580C0008780C000805
:1001B000202A04DB203A00FA02F100207047914027
:1001C000C2F1200320FA03F3194390407047202A1C
:1001D00004DB203A21FA02F00021704721FA02F3F1
:1001E000D040C2F1200291400843194670472DE9E2
:1001F000F0410246002500260020002300240027AD
:1002000091F803C00CF00F0591F803C00CF0100C2E
:10021000BCF1000F03D091F802C04CEA050591F83B
:1002200000C0BCF1000F31D0146800202BE04FF06B
:10023000010C0CFA00F3B1F800C00CEA03069E4270
:1002400020D183004FF00F0C0CFA03F7BC4305FAE2
:1002500003FC4CEA040491F803C0BCF1280F06D15A
:100260004FF0010C0CFA00FCC2F814C00AE091F83F
:1002700003C0BCF1480F05D14FF0010C0CFA00FC93
:10028000C2F810C0401C0828D1D31460B1F800C0D7
:10029000BCF1FF0F34DD546800202EE000F1080CA3
:1002A0004FF0010808FA0CF3B1F800C00CEA03069D
:1002B0009E4221D183004FF00F0C0CFA03F7BC4390
:1002C00005FA03FC4CEA040491F803C0BCF1280FC2
:1002D00005D100F1080C08FA0CF8C2F8148091F866
:1002E00003C0BCF1480F07D100F1080C4FF0010822
:1002F00008FA0CF8C2F81080401C0828CED35460CD
:10030000BDE8F08129B1064A92690243044B9A6123
:1003100004E0034A92698243014B9A6170470000EE
:100320000010024030B500210022002400232D4D92
:100330006D6805F00C0121B1042905D0082923D1ED
:1003400005E0294D056022E0274D05601FE0254DA1
:100350006D6805F47012234D6D6805F48034022534
:1003600005EB92421CB9214D554305600BE01D4D34
:100370006D6805F400351DB11C4D5543056002E064
:10038000194D5543056002E0174D056000BF00BFE1
:10039000144D6D6805F0F0010909154D6B5C056899
:1003A000DD4045600F4D6D6805F4E061090A104DB0
:1003B0006B5C4568DD4085600A4D6D6805F46051F1
:1003C000C90A0B4D6B5C4568DD40C560054D6D6825
:1003D00005F44041890B074D6B5CC568B5FBF3F52F
:1003E000056130BD0010024000127A0000093D0096
:1003F0000F0000201F00002010B500F001F810BD14
:100400000CB50020019000903348006840F4803023
:100410003149086000BF3048006800F400300090A7
:100420000198401C0190009818B90198B0F5A06F90
:10043000F1D12948006800F4003010B1012000908B
:1004400001E0002000900098012843D12348006873
:1004500040F01000214908600846006820F00300C1
:1004600008600846006840F0020008601A484068CA
:10047000194948600846406848600846406840F4AA
:10048000806048600846406820F47C104860084658
:10049000406840F4E81048600846006840F080700A
:1004A000086000BF0C48006800F000700028F9D018
:1004B0000948406820F00300074948600846406842
:1004C00040F00200486000BF0348406800F00C00A4
:1004D0000828F9D10CBD00000010024000200240A5
:1004E00010B51348006840F0010011490860084643
:1004F0004068104908400E494860084600680E49A7
:1005000008400B4908600846006820F48020086015
:100510000846406820F4FE0048604FF41F008860E1
:10052000FFF76AFF4FF000600449086010BD00004B
:10053000001002400000FFF8FFFFF6FE08ED00E0AB
:1005400008B540F22551174800F05CF8012810D199
:10055000144800F0EDF8C1B2134802880088401C2E
:10056000114B18801148815440F225510D4800F07C
:1005700021F840F224410B4800F044F801280FD143
:100580000848008800900748001D0088009000205F
:100590000649054A1288885401200549087000BFA1
:1005A00008BD0000003801400C0000203000002091
:1005B0000E00002010B50022002340F66A14A1426C
:1005C00000D100BF0A1201249440A3B2DC4304808E
:1005D00010BD21B1828942F40052828104E08289F7
:1005E0004DF6FF731A408281704702460020B1F534
:1005F000007F00D100BF13880B400BB1012000E049
:100600000020704770B5024600240023002500201A
:1006100040F66A16B14200D100BFC1F3421501F0A5
:100620001F03012606FA03F3012D02D196893340F8
:1006300006E0022D02D1168A334001E0968A33404B
:100640000C12012606FA04F41688344013B10CB1DA
:10065000012000E0002070BD2DE9F04786B005467E
:100660000E460024A24600BFA1460027B08900B173
:1006700000BF2F462C8A4CF6FF700440F0880443DC
:100680002C82AC894EF6F3100440B08831890843BF
:10069000718908430443AC81AC8A4FF6FF400440A3
:1006A000B0890443AC8201A8FFF73CFE1F48874293
:1006B00002D1DDF810A001E0DDF80CA0A88900F45B
:1006C000004040B10AEBCA0000EB0A103168490053
:1006D000B0FBF1F807E00AEBCA0000EB0A10316842
:1006E0008900B0FBF1F86420B8FBF0F004012009A8
:1006F000642101FB1089A88900F4004040B1322038
:1007000000EBC900B0FBF1F000F00700044308E083
:10071000322000EB09106421B0FBF1F000F00F0073
:1007200004432C8106B0BDE8F0870000003801408A
:1007300001468888C0F308007047C1F30802828030
:10074000704700000FB4054B10B503A9044A029886
:1007500000F018F810BC5DF814FB0000450A000812
:100760002400002002E008C8121F08C1002AFAD1A4
:1007700070477047002001E001C1121F002AFBD121
:10078000704700002DE9FF4F8DB09B460F46044691
:10079000002606E025280BD05A460F999047641C86
:1007A000761C20780028F5D111B03046BDE8F08FD6
:1007B0000025A8460122984900E0054314F8013FAE
:1007C000203B02FA03F00842F7D120782E2817D1F7
:1007D00014F8010F45F004052A280ED06FF02F02FF
:1007E0002078A0F1300109290AD808EB880102EB32
:1007F000410100EB0108641CF2E757F8048B641C0C
:1008000020786C280DD004DC4C2812D06A2811D135
:1008100004E074280DD07A280CD10AE045F40015C4
:1008200007E0617845F48015814202D1641C05F52A
:100830008015641C2078692844D008DC0028B3D0D7
:10084000582867D063280FD0642808D13AE0702870
:1008500065D0732812D075285AD078285AD05A46B5
:100860000F999047761CD5E017F8040B8DF800001F
:1008700000208DF80100E946012003E057F8049BB1
:100880004FF0FF3069074FF0000501D40AE06D1CFE
:1008900045450DDA8542FADB19F805100029F6D135
:1008A00006E06D1C8542FCDB19F805100029F8D123
:1008B0002E4404E019F8010B5A460F9990476D1E1B
:1008C000F8D2A7E00A200021CDE90801C5F30250C3
:1008D00002280CD001CFC117021E71F100020CDA00
:1008E0000023D0EB030063EB01012D2208E0FF1D84
:1008F00027F00707F7E80201EEE72A0504D52B22C7
:100900008DF8282001223CE0EA073AD02022F7E7C0
:100910000A2000E010200021CDE9080107E01020A6
:10092000002145F00405CDE908014FF00808C5F3A2
:100930000250022810D001CF00214FF0000A2A07F0
:1009400020D52278702A0DD0DDE908C38CF0100C78
:100950005CEA030C0CD015E0FF1D27F00707F7E851
:100960000201EAE740228DF828204FF0010A0CE04E
:1009700050EA010306D030238DF828308DF8292065
:10098000022292462278582A04D024A20DF120098E
:100990000B9209E026A2F9E7DDE90823FFF7C4FB83
:1009A0000B9B9B5C09F8013D50EA0102F4D1ADEBD1
:1009B000090020300890680701D44FF00108089919
:1009C000884503DD0898A8EB000000E00020804681
:1009D000002506E00AA85A46405D0F9990476D1C15
:1009E000761C5545F6DB04E030205A460F999047B7
:1009F000761CB8F10001A8F10108F5DC05E019F852
:100A0000010B5A460F999047761C0899481E08908A
:100A10000029F4DC641CC4E60928010030313233BB
:100A2000343536373839616263646566000000002A
:100A30003031323334353637383941424344454614
:100A40000000000070B504460D46E1B20548FFF70E
:100A500074FE00BF80210348FFF7C7FD0028F9D0CE
:100A6000204670BD0038014010B5002821D0114B40
:100A70000022001F196803E0814203D80A46496832
:100A80000029F9D152B11368841A9C4204D100683C
:100A900018441060104602E0506000E0186039B160
:100AA00002680B1A934203D10B681A44026049682A
:100AB000416010BD2800002038B50A2000900420B5
:100AC00000F092F80446694607A0FFF73BFE09498B
:100AD00009A0FFF737FE21460CA0FFF733FE2046A2
:100AE000FFF7C2FF38BD00006C6F63616C3A2025D0
:100AF000700D0A00080000207374617469635F76EA
:100B000061723A2025700D0A00000000686561706E
:100B10003A2025700D0A000086B0012144F204003D
:100B2000FFF7F0FB18208DF817004FF40070ADF8B8
:100B3000140003208DF8160005A91A48FFF757FB8B
:100B400004208DF817000002ADF8140005A915481F
:100B5000FFF74DFB4FF4E13001900020ADF810009D
:100B60000C20ADF80E000020ADF80C00ADF80A0026
:100B7000ADF8080001A90C48FFF76EFD01210A48F5
:100B8000FFF727FD09490AA0FFF7DCFD0C490DA07E
:100B9000FFF7D8FD0F4910A0FFF7D4FDFFF78CFF3A
:100BA00000BFFEE7000801400038014000000020BF
:100BB000675F696E69743A2025700D0A00000000B5
:100BC00004000020675F756E696E69743A202570B5
:100BD0000D0A0000540C0008675F636F6E73743A6F
:100BE0002025700D0A000000F0B50B30154D20F0E7
:100BF00007010024144A0FE003688B420BD38B4299
:100C000005D95E1A43184768C3E9006700E04368E6
:100C1000136002C004E0021D10680028ECD12046D9
:100C2000002802D1286808B10020F0BD064A074814
:100C30001060074A121A22F00702C0E900240120BE
:100C40002860D7E72C000020280000203404002072
:100C50003006002064000000780C0008000000202E
:100C60003000000064070008A80C000830000020D5
:100C7000000A0000740700080100000000000000E6
:100C80001400000000000000000000010203040145
:100C90000203040607080902040608000000000019
:080CA00000000000000000004C
:04000005080000ED02
:00000001FF
