:020000040800F2
:1000000010070020A50100085319000891150008E9
:100010005119000851070008631E00080000000085
:10002000000000000000000000000000831C000829
:100030005307000800000000811C0008851C000810
:10004000BF010008BF010008BF010008BF01000890
:10005000BF010008BF010008BF010008BF01000880
:10006000BF010008BF010008BF010008BF01000870
:10007000BF010008BF010008BF010008BF01000860
:10008000BF010008BF010008BF010008BF01000850
:10009000BF010008BF010008BF010008BF01000840
:1000A000BF010008BF010008BF010008BF01000830
:1000B000BF010008BF010008BF010008BF01000820
:1000C000BF010008BF010008BF010008BF01000810
:1000D000BF010008BF010008BF010008BF01000800
:1000E000BF010008BF010008BF01000800F002F8CE
:1000F00000F048F80AA090E8000C82448344AAF17A
:100100000107DA4501D100F03DF8AFF2090EBAE877
:100110000F0013F0010F18BFFB1A43F0010318473B
:100120004021000060210000103A24BF78C878C147
:10013000FAD8520724BF30C830C144BF04680C60ED
:10014000704700000023002400250026103A28BF35
:1001500078C1FBD8520728BF30C148BF0B60704739
:10016000642900F0A580752900F0A280782900F0AC
:10017000DB80732900F0AD82002070471FB51FBDE2
:1001800010B510BD00F0A9FA1146FFF7F7FF01F016
:1001900081FE00F0C7FA03B4FFF7F2FF03BC00F0E2
:1001A000D1FA00000948804709480047FEE7FEE70A
:1001B000FEE7FEE7FEE7FEE7FEE7FEE7FEE7FEE717
:1001C00004480549054A064B70470000E71C000833
:1001D000ED0000081001002010070020100300208F
:1001E000100300200FB41CB5084B06AA7B446946D7
:1001F0000090059800F043FA04460020694600F09C
:1002000051FA20461CBC5DF814FB0000B504000048
:1002100070B5044685690068C10601D5302600E046
:100220002026C00707D070BDD4E901213046904791
:10023000206A401C20626D1EF6D570BD70B5044664
:1002400085690078C00707D170BDD4E9012120205D
:100250009047206A401C20626D1EF6D570BD70B5B7
:100260000C460546012A05D02878800600D5EA69A3
:10027000002302E0012305E05B1C934202D2E05C14
:100280000028F9D1A869E618C01AA861286A18449C
:1002900028622846FFF7BCFF04E0D5E9012114F8E5
:1002A000010B9047B442F8D32846FFF7C7FF70BD53
:1002B0002DE9F0410646002410687529314616A53F
:1002C00010D0AFF30080002802DA404213A507E007
:1002D00031688A0701D512A502E0490704D511A5A6
:1002E000012401E0AFF3008000210A2206F1240777
:1002F00009E0B0FBF2FCB0FBF2F302FB1C00303073
:1003000078541846491C0028F3D123462A46304623
:10031000BDE8F04100F054B9000000002D000000DD
:100320002B0000002000000070B504460D46214659
:100330001068AFF300802188090502D50F4A7A447E
:1003400002E00E4A7A440E32002104F1240305E053
:1003500000F00F060009965D5E54491C0028F7D195
:1003600020780023000704D5702D02D009B10223A4
:1003700011322046BDE8704000F022B9C41E0000D2
:100380002DE9F05F894604464FF0000ADFF874B1AA
:10039000FB44C0F820A02046E1688847002874D0BC
:1003A000252806D0D4E901219047206A401C20620C
:1003B000F1E700265F462046E16888472028054689
:1003C00007DB312D05D2781910F8200C08B106434F
:1003D000F1E7B00701D526F00406C4F81CA00027F9
:1003E000C4F818A02A2D09D0284601F04BFD38B3D7
:1003F00004EB8708303DC8F8185019E059F8041B81
:10040000204604EB87029161E1688847012F054689
:1004100018D1E069002820DA26F020061DE0D8F87F
:10042000180000EB800005EB40003038C8F81800D9
:100430002046E1688847054601F024FD0028EED1FA
:10044000012F0AD02E2D08D12046E16888477F1C55
:100450000546022F46F02006C4DBA069002803DA17
:10046000404246F00106A061F00701D026F01006D8
:100470006C2D0BD0682D09D04C2D39D06A2D35D07C
:10048000742D35D07A2D33D016E038E0E1682F4650
:1004900020468847B842054609D16C2F26D04FF434
:1004A0008060E168064320468847054604E06C2FDB
:1004B0001AD04FF4807006430DB3A5F141001928FE
:1004C00002D8203546F400664A4629462046266072
:1004D0004E46FFF745FE80B101280BD0F61D26F0F1
:1004E000070000F1080956E74020E4E78020D8E73C
:1004F0000020D6E706F104094DE7284652E7206AB6
:10050000BDE8F09F9A1E000010B5203AC0F00B80A5
:10051000B1E81850203AA0E81850B1E81850A0E807
:100520001850BFF4F5AF5FEA027C24BFB1E8185061
:10053000A0E8185044BF18C918C0BDE810405FEAD1
:10054000827C24BF51F8043B40F8043B08BF70474D
:10055000D20728BF31F8023B48BF11F8012B28BF52
:1005600020F8023B48BF00F8012B70474FF0000213
:1005700000B5134694469646203922BFA0E80C5099
:10058000A0E80C50B1F12001BFF4F7AF090728BF74
:10059000A0E80C5048BF0CC05DF804EB890028BFF0
:1005A00040F8042B08BF704748BF20F8022B11F019
:1005B000804F18BF00F8012B704770477047704795
:1005C0002DE9F0470D4699469246044600F124086D
:1005D0000168880604D5E06921F01001216000E07F
:1005E0000120A84201DD471B00E00027A1697A191C
:1005F00002EB0900081AA0612078C00602D4204648
:10060000FFF706FE002608E0D4E901211AF80600EB
:100610009047206A401C761C20624E45F4DB20780F
:10062000C0060AD52046FFF7F3FD06E0D4E9012114
:1006300030209047206A401C2062381EA7F1010735
:10064000F4DC07E0D4E9012118F805009047206A9E
:10065000401C2062281EA5F10105F3DC2046FFF7AF
:10066000EDFD2078000602D50220BDE8F0870120CC
:10067000FBE7000001694A1C02610878704700B579
:100680008FB0CDE901310021059105497944CDE9CB
:10069000031011466846FFF773FE0FB000BD00005F
:1006A000E5FFFFFF0A6802F8010B0A60704710B50A
:1006B000436913B1AFF3008001E0FFF7D0FD0120E3
:1006C00010BD127800F124010A7000224A70012244
:1006D000EDE711684FF0FF32E9E7754600F02CF8BE
:1006E000AE4605006946534620F00700854618B01F
:1006F00020B5FFF765FDBDE820404FF000064FF044
:1007000000074FF000084FF0000B21F00701AC4646
:10071000ACE8C009ACE8C009ACE8C009ACE8C00965
:100720008D46704710B50446AFF300802046BDE803
:100730001040FFF730BD000000487047AC000020BB
:100740007047000001491820ABBEFEE726000200FA
:10075000FEE7704772B6FEE770B5044600F00CF98C
:100760000546601C02D004480078044400F004F9F7
:10077000401BA042FAD370BD000000202DE9F84FC5
:10078000DFF8B8910024A9F1040B23460F2709F1E3
:10079000040AABF1040EC9E00125A5402A40AA4293
:1007A0007DD1674ED1F804C0ACEB0608B44532D019
:1007B00014DCBCF1030F3AD009DCBCF1000F2AD0E5
:1007C000BCF1010F1CD0BCF1020F31D11DE0BCF116
:1007D000110F17D0BCF1120F2AD119E0B8F5881FFC
:1007E00019D006DCB8F5803F15D0B8F5801F1FD1B1
:1007F00011E0B8F5001F0ED0B8F5041F18D10AE0BB
:10080000CB6815E0CB681B1D12E0CB6808330FE006
:10081000CB680C330CE08B682BB1012B4FF0080335
:1008200003D0456104E0042302E0056100E00023F9
:10083000FF2A01D8064601E000F104064FEA8405CC
:1008400001D9A5F12005D6F8008007FA05FC28EAB1
:100850000C0803FA05F548EA0508C6F800804D685B
:10086000ED0062D5374DAE6946F00106AE61AD6967
:1008700024F0030605F001050095334D06EB050C49
:10088000DCF80850A607360F07FA06F825EA08052F
:10089000DFF8B880404503D14FF0000817E044E08E
:1008A000DFF8AC80404502D14FF001080FE0DFF8DF
:1008B000A480404502D14FF0020808E0DFF898809C
:1008C000404502D14FF0030801E04FF0040808FA58
:1008D00006F848EA0508CCF808804D68D9F80060A9
:1008E000ED024D4601D5164300E096432E604D685B
:1008F000DAF80060AD02554601D5164300E0964394
:100900002E604D68DBF80060AD035D4601D51643EF
:1009100000E096432E604D68DEF80060ED037546FA
:1009200001D5164300E096432E60641C0D682A46EC
:10093000E5407FF431AFBDE8F88F000008040140C6
:1009400000001110001002400000014000080140AA
:10095000000C01400010014000140140C26821EA6F
:1009600002030A4043EA0241016170470AB1016192
:1009700070470904FBE700000148806870470000E9
:100980000000002090F83D007047000070B50400A2
:1009900025D094F83D00002520B984F83C5020462D
:1009A00000F004FA242084F83D002068016821F05A
:1009B000010101602068016841F400410160206884
:1009C000016821F40041016000F03EFB4D4A61687E
:1009D000914201D84C4900E04C49884201D20120A3
:1009E00070BD4B492368B0FBF1F15E6826F03F060D
:1009F0000E435E606368934206D94FF49673594381
:100A00004FF47A73B1FBF3F12368491C1E6A26F098
:100A10003F06314319626168914210D84900401E77
:100A2000B0FBF1F2521CC2F30B02042A01D20420E3
:100A300022E0B0FBF1F0401CC0F30B001CE0A26808
:100A4000F2B301EBC10303EB0116431EB3FBF6F354
:100A50005B1C43F480431B0549D092B301EBC102F8
:100A600002EB0111401EB0FBF1F0401CC0F30B0083
:100A700040F4804040F400402168CA694CF6FF739E
:100A80009A431043C861D4E9071001432068026803
:100A900022F0C00211430160D4E903010143206840
:100AA000826848F2FF339A4311438160D4E905011B
:100AB00008432168CA6822F0FF021043C86001E0C1
:100AC0000EE016E02068016841F001010160256434
:100AD000202084F83D00256384F83E50002070BD3E
:100AE00001EB4106431EB3FBF6F35B1CB3E70120A9
:100AF000C2E701EB4101401EB0FBF1F0401CC0F326
:100B00000B00B7E7A086010080841E0000093D00AD
:100B100040420F002DE9FF4F81B089460446FFF7A0
:100B20002BFF054694F83D004FF0000820287DD1AA
:100B30001923012250492046009500F0BBFD0028F2
:100B400074D194F83C00012870D0012084F83C0056
:100B500020680168C90703D1016841F00101016003
:100B60002068016821F400610160242084F83D00C0
:100B7000002626644148E0624FF0011B20272068D0
:100B8000016841F4807101600095002259462046B9
:100B9000049B00F08FFD50B120680068C00502D5AD
:100BA0004FF400702064032005B0BDE8F08F216889
:100BB00009F0FE000861FFF7DFFE2168054648697D
:100BC0004969C0F34000C1F380214FF0A00A0FE053
:100BD000FFF7D2FE411B0498814200D808B984F87F
:100BE0003DA0216848694969C0F34000C1F38021F4
:100BF00094F83D20A02A02D008B90029E8D084F852
:100C00003D7020684169C943890716D4016841F4E1
:100C10000071016020684169806919230122164929
:100C20002046009500F046FDB8B900E021E084F8C8
:100C30003D7084F83C600020B6E7016841F4007123
:100C4000016021686FF480604861192301220A491C
:100C50002046009500F02EFD08B10120A4E703987E
:100C600008F1010880458AD384F83D7084F83C601F
:100C7000F3E7022098E70000020010000000FFFFE9
:100C80002DE9F84F1F4690468A460446DDF8289025
:100C9000FFF772FE054694F83D0020287FD1192306
:100CA000012240492046009500F004FD002876D13D
:100CB00094F83C00012872D0012084F83C002068A0
:100CC0000168C90703D1016841F001010160206892
:100CD000016821F400610160212084F83D001020AA
:100CE00084F83E0000262664C4F824806785608D61
:100CF00020852D48E0622B464A465146204600F0AA
:100D00005FFC90B9206841698069009036E02A460E
:100D10004946204600F074FD50B1206C042804D1EF
:100D20002068016841F4007101600120BDE8F88F7E
:100D3000606A216800780861606A401C6062618DA9
:100D4000491E6185218D491E89B22185226853691A
:100D5000DB435B070BD451B100781061606A401C23
:100D60006062608D401E6085208D401E20852A4671
:100D70004946204600F072FC0028CED1208D002884
:100D8000C5D154F83D0B016841F400710160202089
:100D900004F81E09E67766770020C7E7FFE7022020
:100DA000C4E70000020010000000FFFF10B586B08D
:100DB0000021009101910291039100680F4988423E
:100DC0001AD10F4CA06940F00800A061A0696946E3
:100DD00000F008000490C020009012200190032031
:100DE00003900848FFF7CAFCE06940F40010E06196
:100DF000E06900F40010049006B010BD00540040FB
:100E000000100240000C0140024881680278114441
:100E10008160704700000020074810B5016841F06C
:100E200010010160032000F067F80F2000F006F8C1
:100E300000F024F8002010BD0020024070B50D4DD8
:100E400004464FF47A712878B1FBF0F00A4909683A
:100E5000B1FBF0F000F0CEFA48B9102C07D2002216
:100E60002146501E00F028F800206C6070BD012063
:100E700070BD0000000000200C0000200C4808B5E8
:100E8000816941F001018161816901F001010091F5
:100E9000C16941F08051C161C06900F0805000908B
:100EA0000448416821F0E06141F00071416008BDF3
:100EB0000010024000000140F0B40E4B1B680C46CD
:100EC000C3F30223C3F10705042D00D90425191D1E
:100ED000072901D2002300E0DB1E012606FA05F1F6
:100EE000491E214099409E40761E16403143F0BC79
:100EF00000F0B8BF0CED00E0064900F007020868FA
:100F00004FF6FF03184040EA0220034A10430860EE
:100F1000704700000CED00E00000FA052DE9F047F5
:100F20000F46050061D0434E306800F00700B8421C
:100F300009D2306820F0070038433060306800F094
:100F40000700B84251D128683B4C810712D54007B1
:100F500003D5606840F4E06060602878000703D53E
:100F6000606840F4605060606068A96820F0F0003C
:100F7000084360602878C00728D06868012810D02E
:100F80002168022810D0890700292EDA616821F033
:100F9000030101436160FFF7EFFC804641F28839AD
:100FA0000DE021688903EFE78901EDE7FFF7E4FC35
:100FB000A0EB0801494502D90320BDE8F08760682D
:100FC000696800F00C00B0EB810FEFD1306800F0E1
:100FD0000700B8420BD9306820F007003843306072
:100FE000306800F00700B84201D00120E5E728781A
:100FF000400705D56068E96820F4E0600843606058
:101000002878000706D56068296920F4605040EA16
:10101000C100606000F038F86168084AC1F303114C
:10102000515CC8400649086006480068FFF706FFA3
:101030000020C2E70020024000100240EE2100081C
:101040000C0000200400002004480549006849689D
:10105000044AC1F30221515CC84070470C000020D3
:1010600000100240FE210008044805490068496854
:10107000044AC1F3C221515CC84070470C000020F3
:1010800000100240FE2100080E4A51680E4801F08F
:101090000C03042B11D0082B0FD10C48C1F3834350
:1010A000C903C05C0AD55168084AC1F34041921E89
:1010B000515C054A5043B0FBF1F070470449484386
:1010C000704700000010024000127A00DE21000884
:1010D00000093D002DE9F84F040070D02078C04D84
:1010E000C00749D06868C0F38100012807D068684C
:1010F000C0F38100022809D16868C00306D52868BA
:10110000800339D560680028E7D035E06068B0F525
:10111000803F0BD010B1B0F5A02F11D0286820F47B
:1011200080302860286820F4802002E0286840F49D
:1011300080302860606890B1FFF71EFC06460AE028
:10114000286840F480202860F0E700BFFFF714FC17
:10115000801B642873D828688003F7D50CE0FFF75C
:101160000BFC064605E000BFFFF706FC801B642869
:10117000F0D828688003F7D420789A4E80074FF083
:1011800001094FF0000839D5686810F00C0F07D03E
:101190006868C0F38100022809D16868C00306D4DA
:1011A0002868800714D52069012808D110E020693B
:1011B000B0B1C6F80090FFF7DFFB074605E00AE193
:1011C000FFF7DAFBC01B0228C4D828688007F7D5D0
:1011D0002868616920F0F80040EAC10028600DE04D
:1011E000C6F80080FFF7C8FB074604E0FFF7C4FB22
:1011F000C01B022823D828688007F7D4207800076E
:101200002CD57948A169D9B1C0F80090FFF7B4FB9B
:10121000074604E0FFF7B0FBC01B02280FD8686A3E
:101220008007F7D571484FF4FA510068B0FBF1F030
:10123000009000BF0098411E0091FAD20EE080E0BD
:10124000C0F80080FFF798FB074604E0FFF794FB27
:10125000C01B022875D8686A8007F7D42078400739
:1012600060D5E8690027C00008D4E86940F08050E4
:10127000E861E869012700F0805000905C4801684F
:10128000C90513D40168834641F480710160FFF7FA
:1012900073FB824606E000BFFFF76EFBA0EB0A007F
:1012A00064284ED8DBF80000C005F5D5E0680128B9
:1012B0000AD008B1052813D0286A20F0010028625E
:1012C000286A20F0040002E0286A40F00100286249
:1012D000E06841F2883B98B1FFF74EFB82460BE095
:1012E000286A40F004002862EEE700BFFFF744FBE5
:1012F000A0EB0A0159455AD8286A8007F6D50CE0B8
:10130000FFF73AFB824605E0FFF736FBA0EB0A0148
:1013100059454CD8286A8007F6D41FB1E86920F0F7
:101320008050E861E06988B36968C1F381010229EE
:1013300044D00228C6F8608004D0FFF71DFB0446A5
:1013400038E034E0FFF718FB074604E0FFF714FB32
:10135000C01B02282BD828688001F7D4206AB0F57A
:10136000803F05D16868A16820F4003008436860B8
:10137000D4E908010843696821F4741108436860DE
:10138000C6F86090FFF7F8FA044606E025E000BFD3
:10139000FFF7F2FA001B022809D828688001F7D568
:1013A0001BE000BFFFF7E8FA001B022802D9032068
:1013B000BDE8F88F28688001F4D40EE00128F7D04A
:1013C0006868226A00F48031914204D1616A00F4B5
:1013D0007010884201D00120EAE70020E8E7000011
:1013E0000010024000004242800442420C000020F3
:1013F0000070004010B5401EB0F1807F01D3012085
:1014000010BD4FF0E02460610F21601700F02AFD4D
:101410000020A06107202061002010BD70B50400ED
:1014200004D094F84100002510B106E0012070BD01
:1014300084F84050204600F023F8242084F841002E
:101440002068C16821F40051C160204600F074FC9E
:101450002068016921F4904101612068416921F00F
:101460002A0141612068C16841F40051C16065648E
:10147000202084F8410084F842006563002070BD9C
:1014800030B585B000240094019402940394006860
:101490001449884224D11448816941F48041816112
:1014A000816901F480410491816941F00401816105
:1014B00080690E4D00F0040004904FF4007000901D
:1014C000022001900320039069462846FFF756F951
:1014D0002815CDE90004694628460294FFF74EF925
:1014E00005B030BD00380140001002400008014046
:1014F0002DE9F843044690F84100984616460D46FB
:10150000202802D00220BDE8F88385B17EB10020FA
:101510006064212084F84100FFF72EFAA6848146FA
:10152000E684A0682027B0F5805F02D003E00120A8
:10153000E9E7206910B12E4600250EE000260CE0F8
:101540008021204600F054FCA8B9C6B116F8010B62
:1015500021684860E08C401EE084E08C4B464FF0F0
:101560000002CDF800800028EAD14FF0400120466B
:1015700000F03EFC40B184F841700320C3E735F829
:10158000020BC0F30800E3E784F841700020BAE7DB
:10159000FEE701684A69D24352050FD46FF48062B6
:1015A0004A61002140F8301F202242738173026992
:1015B00042F004020261017301207047002070476D
:1015C000F8B50446C06A1E460D461746082807D0DF
:1015D000012805D010F5803F02D0206B122804D1DD
:1015E0002068016841F480710160134600224FF0C9
:1015F00001112046009600F05DF840B120680068B7
:10160000C00502D54FF4007020640320F8BD2069A6
:10161000B0F5804F0ED00620216800EAD51040F0CA
:10162000F000086133463A460B49204600F08AF83C
:1016300078B902E005F0FE0000E0E8B22168086138
:10164000054933463A46891F204600F07BF80028BA
:10165000DCD00120F8BD00000800010070B516467E
:101660000D4604461EE02046FFF793FF08B1012017
:1016700070BD681C16D0FFF77FF9801BA84200D808
:1016800085B920684069C04340070BD5002044F865
:10169000300F20216173A073216941F02001216185
:1016A0002073E4E720684069C0434007DBD4002092
:1016B00070BD00002DE9F047984617460D460446D8
:1016C000C1F30746DDF820902AE000BFB8F1FF3FE4
:1016D00026D0FFF751F9A0EB0901414502D8B8F136
:1016E000000F1DD12068012E16D0806925EA000068
:1016F0000004000C12D00020B84211D1002044F8A0
:10170000300F20216173A073216941F02001216114
:1017100020730120BDE8F0874069E7E70120EBE78F
:101720002068012E0AD0806925EA00000004000C20
:1017300006D00020B842C9D00020EBE74069F3E7AB
:101740000120F7E72DE9F047984616460D46044676
:101750004FF000094FF0200AC1F3074723E020684B
:101760004069C043400515D42068016841F4007108
:10177000016021686FF480604861C4F8309084F89B
:101780003DA084F83E90216C41F00401216484F86E
:101790003C9021E0701C06D0FFF7EEF8A0EB0800AB
:1017A000B04203D816B1012F1FD021E02068012FCD
:1017B00015D0806925EA00000004000C18D000BF95
:1017C00044F8309F84F80DA084F80E90216941F010
:1017D0002001216184F80C900120BDE8F087406968
:1017E00025EA00000004000CEAD12068406901E00D
:1017F0002068806925EA00000004000CAFD1ECE706
:1018000070B516460D4604461EE02046FFF7C1FEA1
:1018100008B1012070BD681C16D0FFF7ADF8801B21
:10182000A84200D885B920684069C04300060BD59E
:10183000002044F8300F20216173A073216941F02A
:10184000200121612073E4E720684069C04300065D
:10185000DBD4002070BD000070B586B000241C48A9
:101860000094019402940394816941F01001816114
:10187000816901F010010491816941F020018161C9
:10188000816901F020010491816941F004018161C5
:10189000816901F004010491816941F008018161CD
:1018A00080690C4E00F008004FF4005504900022AF
:1018B00029463046FFF75AF801200095CDE901048A
:1018C0000220039069463046FEF758FF06B070BD0F
:1018D00000100240001001400D4810B50B49016096
:1018E0000C49416000214FF480428160C0E903123D
:1018F00041618161C1610162FFF748F8002803D0AE
:10190000BDE81040FEF726BF10BD000000540040A7
:1019100010000020A08601000C4810B50A490160A3
:101920004FF4E1314160002181600C22C160C0E9C7
:1019300004128161C161FFF771FD002803D0BDE889
:101940001040FEF707BF10BD0038014064000020C2
:10195000FEE7FEE7F0B5CDB066A0674900680590E8
:101960000FC901AC84E80F00142264A106A8FEF799
:10197000CBFD4FF47A752B46132206A96448FFF776
:10198000B7FD002405AE01AF6248FEF7FBFF335DF3
:1019900057F8242060A110A8FEF724FC82B22B4641
:1019A00010A95B48FFF7A4FD315D0A2303225948C3
:1019B000FFF7B0F8002875D05EA20DF1300C07CA11
:1019C0008CE807002B460A220CA95148FFF790FD2E
:1019D000641C042CD8DB1C2259A127A8FEF794FD17
:1019E0002B46182227A94A48FFF782FD5BA24AAC82
:1019F00007CA84E807002B4609224AA94448FFF792
:101A000077FD282258A10BA8FEF77EFD2B46252244
:101A10000BA93F48FFF76CFD1C225DA12EA8FEF725
:101A200073FD2B461A222EA93948FFF761FD1C22AF
:101A30005EA135A8FEF768FD2B461A2235A9344869
:101A4000FFF756FD1C2260A13CA8FEF75DFD2B466A
:101A50001A223CA92E48FFF74BFD242261A115A8AC
:101A6000FEF752FD2B46232215A92948FFF740FD1A
:101A7000242265A11EA8FEF747FD2B4620221EA9A1
:101A80002348FFF735FD1C2268A143A8FEF73CFD63
:101A90002B461A2243A91E48FFF72AFD01204DB00C
:101AA000F0BDFFE768A30CAF0FCB87E80F002B4614
:101AB0000C220CA91648FFF71BFDAE208DF87C0008
:101AC00064200090315D01231FAA1248FFF7D8F867
:101AD0004FF0140258B160A120A8FEF715FD2B4667
:101AE000122220A90A48FFF703FD0020D7E75FA1D3
:101AF000F2E700003C3D787ACC210008CFEACFB86D
:101B0000C9A8C3E84F4C4544B5D8D6B73A0D0A002A
:101B10006400002010000020B2E2CAD4B5D8D6B7C5
:101B20002025732028307825303258292E2E2E205B
:101B300000000000CEDECFECD3A6203F0D0A00004F
:101B40000D0A212121204F4C4544C1ACBDD3CECA42
:101B5000CCE2202121210D0A00000000C7EBBCECE3
:101B6000B2E93A0D0A000000312E203F204F4C45CB
:101B7000442056434320C1ACBDD3B5BD20332E33E2
:101B8000562028B2BBCAC7355621290D0A000000CD
:101B9000322E203F204F4C454420474E4420C1ACBC
:101BA000BDD3B5BD20474E440D0A0000332E203F63
:101BB000204F4C45442053444120C1ACBDD3B5BD5A
:101BC000205042370D0A0000342E203F204F4C4554
:101BD000442053434C20C1ACBDD3B5BD2050423648
:101BE0000D0A0000352E203F20493243D7DCCFDFDD
:101BF000CAC7B7F1D3D0342E376BA6B8C9CFC0ADA2
:101C0000B5E7D7E83F0D0A00362E203F204F4C4560
:101C100044C4A3BFE9B5E7D4B4D6B8CABEB5C6CAF2
:101C2000C7B7F1C1C13F0D0A00000000372E203FA9
:101C300020B3A2CAD4C1EDD2BBB8F64F4C4544C4C0
:101C4000A3BFE93F0D0A0000C9E8B1B8CFECD3A6A5
:101C5000203F0D0A000000002020C3FCC1EEB7A207
:101C6000CBCDCAA7B0DC203F0D0A00002020C3FC6A
:101C7000C1EEB7A2CBCDB3C9B9A6203F0D0A000073
:101C800070477047FFF7C0B830B58FB0282168465D
:101C9000FEF76CFC14210AA8FEF768FC0121080479
:101CA000CDE900100024029402250491CDE90750EB
:101CB0004FF4E01009906846FFF70CFA08B172B6CD
:101CC000FEE70F20CDE90A054FF48060CDE90C4016
:101CD00002210AA80E94FFF721F9002801D072B65C
:101CE000FEE70FB030BD704701680C3151E8002F9E
:101CF00022F4907241E80023002BF5D101681431E1
:101D000051E8002F22F0010241E80023002BF5D119
:101D1000016B012909D101680C3151E8002F22F033
:101D2000100241E80023002BF5D1202180F8421059
:101D3000002101637047000070B504460068016926
:101D4000E26821F44051114301612169A068084310
:101D5000616908432168CA6841F20C639A430243EF
:101D6000CA6020684169A26921F440711143416150
:101D70001E492068884202D1FFF776F901E0FFF79B
:101D800063F900EBC00101EB001260686421800080
:101D9000B2FBF0F3B3FBF1F36FF018067343B2FB41
:101DA000F0F5B2FBF0F605EB8305322303EB0515E6
:101DB000B5FBF1F5B6FBF1F605F0F00505EB061500
:101DC000B2FBF0F6B2FBF0F0B0FBF1F06FF01802EE
:101DD000504306EB800003EB0010B0FBF1F02168EC
:101DE00000F00F002844886070BD000000380140FA
:101DF0002DE9F843984617460D460446089E24E010
:101E0000701C22D0FEF7B8FDA0EB0800B0421AD833
:101E1000CEB12068C168490717D5802D15D0402D57
:101E200013D00168C94309070FD401680025406831
:101E300000902046FFF758FF0820606484F8405067
:101E40000120BDE8F8830320FBE72068006835EA3D
:101E5000000004D00020B842D2D00020F1E70120D9
:101E6000F9E7FEE70907090E002804DB00F1E0208E
:101E700080F80014704700F00F0000F1E02080F8B7
:101E8000141D704730380A2801D201207047002005
:101E900070470000B8B0FEF7BFFFFFF7F5FEFFF791
:101EA000DBFCFFF719FDFFF737FD18226AA108A830
:101EB000FEF72AFB4FF47A773B46162208A96C48B6
:101EC000FFF716FB4FF400586A4E01224446414684
:101ED0003046FEF74BFD68A30DF1680C0FCB8CE884
:101EE0000F003B460D221AA96148FFF701FB384657
:101EF000FEF732FC002221463046FEF737FD62A392
:101F00000DF1780C0FCB8CE80F003B460D221EA97B
:101F10005748FFF7EDFA3846FEF71EFC18225EA17F
:101F20000EA8FEF7F1FA3B4614220EA95048FFF71F
:101F3000DFFA0025012461000A2303225C48FEF732
:101F4000E9FD60B922465BA122A8FEF74BF982B2F7
:101F50003B4622A94648FFF7CBFA6D1CEDB2641C44
:101F6000E4B27F2CE7D3002D2AD02A4656A122A81E
:101F7000FEF738F982B23B4622A93D48FFF7B8FA8E
:101F80001C2258A101A8FEF7BFFA3D463B46182285
:101F900001A93748FFF7ACFAFFF7DCFC040017D0C3
:101FA000024657A122A8FEF71DF982B22B4622A9AC
:101FB0002F48FFF79DFA012C13D0022C19D023E0F3
:101FC0001C2257A122A8FEF79FFA3B461B22D3E70B
:101FD00014225AA122A8FEF797FA2B46122222A910
:101FE0000FE01C225AA131A8FEF78EFA2B461822C8
:101FF00006E01C225DA131A8FEF786FA2B461A22C4
:1020000031A91B48FFF774FA18225FA114A8FEF744
:102010007BFA2B46162214A91548FFF769FA00240B
:10202000474639463046FEF799FCFFF793FC80B1EE
:102030005BA32246641C5CA122A8FEF7D3F882B2FF
:102040002B4622A90A48FFF753FA2846FEF784FBDD
:10205000E7E75CA3EDE7000021212120BBF9B4A153
:10206000D3B2BCFEB2E2CAD4202121210D0A000065
:1020700064000020001001404C4544D3A6B8C3C101
:10208000C1C1CB0D0A0000004C4544D3A6B8C3C360
:10209000F0C1CB0D0A000000BFAACABC493243C937
:1020A000E8B1B8C9A8C3E82E2E2E0D0A0000000022
:1020B00010000020B7A2CFD6C9E8B1B83A203078D6
:1020C000253032580D0A0000C9A8C3E8CDEAB3C9CB
:1020D000A3ACB7A2CFD620256420B8F6C9E8B1B822
:1020E0000D0A00000D0A3D3D3D204F4C4544CDA852
:1020F000D0C5B2E2CAD4203D3D3D0D0A000000002B
:102100003F204F4C4544CDA8D0C5CAA7B0DCA3A101
:10211000B4EDCEF3B4FAC2EB3A2025640D0A000008
:1021200021212120CEB4B7A2CFD6C8CEBACE493213
:1021300043C9E8B1B8202121210D0A003F204F4CAE
:102140004544CDA8D0C5D5FDB3A3A3A10D0A000079
:10215000BDA8D2E93A20B3A2CAD4493243B5D8D6F1
:10216000B720307833440D0A00000000BDA8D2E942
:102170003A20BCECB2E9B5E7D4B4BACDC9CFC0AD12
:10218000B5E7D7E80D0A0000CFB5CDB3BECDD0F787
:10219000A3ACBDF8C8EBD6F7D1ADBBB70D0A0000B4
:1021A000D2ECB3A300000000D0C4CCF83A20256CD8
:1021B000752C204F4C4544D7B4CCAC3A2025730D38
:1021C0000A000000D5FDB3A3000000005022000863
:1021D0005822000840220008482200080102020399
:1021E0000405060708090A0B0C0D0E0F101000005D
:1021F00000000000000001020304060708090000B7
:1022000000000102030430313233343536373839B7
:102210004142434445464030580030313233343532
:10222000363738396162636465664030780004008F
:102230000008000000000000000200010000100083
:102240003078373800000000307837410000000057
:102250003078334300000000307833440000000041
:102260008022000800000020100000002801000863
:102270009022000810000020000700004401000820
:1022800001000000100000000000000000127A00B1
:04000005080000ED02
:00000001FF
