:020000040800F2
:10000000D02C002089010008D70F0008B90E000885
:10001000D50F00087B0400089D3D0008000000008B
:100020000000000000000000000000007D3B000810
:1000300045050008000000004B030008A51C00084F
:10004000A3010008A3010008A3010008A301000800
:10005000A3010008A3010008A3010008A3010008F0
:10006000A3010008A3010008A3010008A3010008E0
:10007000A3010008A3010008A3010008A3010008D0
:10008000A3010008A3010008A3010008A3010008C0
:10009000A3010008A3010008A3010008A3010008B0
:1000A000A3010008A3010008A3010008A3010008A0
:1000B000A3010008A3010008A3010008A301000890
:1000C000A3010008A3010008A3010008A301000880
:1000D000A3010008A3010008A3010008A301000870
:1000E000A3010008A3010008A301000800F002F822
:1000F00000F03AF80AA090E8000C82448344AAF188
:100100000107DA4501D100F02FF8AFF2090EBAE885
:100110000F0013F0010F18BFFB1A43F0010318473B
:10012000AC3D0000CC3D0000103A24BF78C878C137
:10013000FAD8520724BF30C830C144BF04680C60ED
:10014000704700000023002400250026103A28BF35
:1001500078C1FBD8520728BF30C148BF0B60704739
:100160001FB51FBD10B510BD00F0A4F81146FFF774
:10017000F7FF03F025FE00F0C2F803B4FFF7F2FF2B
:1001800003BC00F0C9F8000009488047094800474F
:10019000FEE7FEE7FEE7FEE7FEE7FEE7FEE7FEE737
:1001A000FEE7FEE704480549054A064B7047000094
:1001B000CD3B0008ED000008D0260020D02C002008
:1001C000D0280020D028002072B6704762B6704751
:1001D000EFF3108072B6704780F31088704730BF1D
:1001E000704720BF7047B0FA80F0704790FAA0F0D7
:1001F000B0FA80F0704790FAA0F0704710B5203A3E
:10020000C0F00B80B1E81850203AA0E81850B1E8CF
:100210001850A0E81850BFF4F5AF5FEA027C24BF85
:10022000B1E81850A0E8185044BF18C918C0BDE87C
:1002300010405FEA827C24BF51F8043B40F8043B45
:1002400008BF7047D20728BF31F8023B48BF11F8FA
:10025000012B28BF20F8023B48BF00F8012B704754
:100260004FF0000200B5134694469646203922BF4F
:10027000A0E80C50A0E80C50B1F12001BFF4F7AF9A
:10028000090728BFA0E80C5048BF0CC05DF804EB7C
:10029000890028BF40F8042B08BF704748BF20F8EA
:1002A000022B11F0804F18BF00F8012B70477047E8
:1002B00070477047754600F02BF8AE46050069465A
:1002C000534620F00700854618B020B5FFF76AFFB7
:1002D000BDE820404FF000064FF000074FF0000847
:1002E0004FF0000B21F00701AC46ACE8C009ACE8C8
:1002F000C009ACE8C009ACE8C0098D46704710B52C
:100300000446AFF300802046BDE81040FFF735BF3C
:10031000004870476C26002001491820ABBEFEE75C
:10032000260002007047000018484FF0FF010170DE
:10033000002080F309881648016881F30888154871
:100340004FF08051016062B6FEE772B6EFF30980AC
:1003500028B1203880E8F00F0F490968086000B51F
:100360000E4880475DF804EB0D480E490A7802708C
:1003700009480D490A680260106890E8F00F2030C3
:1003800080F309884EF0040E62B6704722ED00E05B
:100390002C00002004ED00E0F8000020011B000804
:1003A0008A0000208B000020FC0000202DE9F04195
:1003B0008AB000240326CDE9064609AD4FF01008A7
:1003C0001A490895059405208DE8030180271748F0
:1003D000CDE903742346164A16A1C83801F080F807
:1003E000CDE9064616490895059406208DE80301D7
:1003F0001348CDE903740023124A13A1C83801F051
:100400006FF8CDE9064613490895059407208DE855
:1004100003011048CDE9037400230F4A0FA1C83827
:1004200001F05EF80AB0BDE8F08100009004002001
:10043000BD0E00084C656431205461736B000000F0
:1004400058070020F50E00084C6564322054617393
:100450006B000000200A0020493D000855617274BD
:10046000205461736B00000008B5FFF79FFF6A46D8
:100470000021642001F078FBF9E7FEE703490969F0
:10048000884201D9401A70470020704710000020B0
:1004900010B5FFF79DFE04494C69FFF79DFE20460D
:1004A000BDE81040FFF7EABF1000002010B5FFF7CD
:1004B000EFFF0446FFF78CFE034A00215161FFF76E
:1004C0008BFE204610BD00001000002010B5FFF785
:1004D0007FFE04498C69FFF77FFE2046BDE810408F
:1004E000FFF7CCBF1000002010B5064C2088401C40
:1004F0002080608810B900F01FF8A0606088401C60
:10050000608010BD1000002010B50A4C6088401EAD
:100510000004000C60800CD100F00EF8E060A168CF
:10052000401A6169814200D26061A169814200D2B2
:10053000A06110BD10000020014840687047000015
:10054000001000E0704770472DE9F84FDFF8B891D0
:100550000024A9F1040B23460F2709F1040AABF18B
:10056000040EC9E00125A5402A40AA427DD1674E6C
:10057000D1F804C0ACEB0608B44532D014DCBCF1B1
:10058000030F3AD009DCBCF1000F2AD0BCF1010FF7
:100590001CD0BCF1020F31D11DE0BCF1110F17D0FE
:1005A000BCF1120F2AD119E0B8F5881F19D006DC6A
:1005B000B8F5803F15D0B8F5801F1FD111E0B8F510
:1005C000001F0ED0B8F5041F18D10AE0CB6815E063
:1005D000CB681B1D12E0CB6808330FE0CB680C33EF
:1005E0000CE08B682BB1012B4FF0080303D0456161
:1005F00004E0042302E0056100E00023FF2A01D8A3
:10060000064601E000F104064FEA840501D9A5F190
:100610002005D6F8008007FA05FC28EA0C0803FA42
:1006200005F548EA0508C6F800804D68ED0062D57A
:10063000374DAE6946F00106AE61AD6924F00306A0
:1006400005F001050095334D06EB050CDCF808506C
:10065000A607360F07FA06F825EA0805DFF8B8807E
:10066000404503D14FF0000817E044E0DFF8AC80CC
:10067000404502D14FF001080FE0DFF8A48040456B
:1006800002D14FF0020808E0DFF89880404502D11F
:100690004FF0030801E04FF0040808FA06F848EAB2
:1006A0000508CCF808804D68D9F80060ED024D4689
:1006B00001D5164300E096432E604D68DAF80060DD
:1006C000AD02554601D5164300E096432E604D68B5
:1006D000DBF80060AD035D4601D5164300E09643AC
:1006E0002E604D68DEF80060ED03754601D51643B7
:1006F00000E096432E60641C0D682A46E5407FF4B6
:1007000031AFBDE8F88F000008040140000011106F
:10071000001002400000014000080140000C0140B0
:1007200000100140001401400AB101617047090442
:10073000FBE70000014880687047000000000020CF
:10074000074810B5016841F010010160032000F076
:1007500067F80F2000F006F800F024F8002010BD24
:100760000020024070B50D4D04464FF47A71287890
:10077000B1FBF0F00A490968B1FBF0F000F0CEFAE5
:1007800048B9102C07D200222146501E00F028F84C
:1007900000206C6070BD012070BD000000000020D2
:1007A0000C0000200C4808B5816941F0010181610D
:1007B000816901F001010091C16941F08051C1617D
:1007C000C06900F0805000900448416821F0E06169
:1007D00041F00071416008BD00100240000001407E
:1007E000F0B40E4B1B680C46C3F30223C3F107059C
:1007F000042D00D90425191D072901D2002300E08A
:10080000DB1E012606FA05F1491E214099409E4053
:10081000761E16403143F0BC03F0C1BA0CED00E087
:10082000064900F0070208684FF6FF03184040EA47
:100830000220034A10430860704700000CED00E0FE
:100840000000FA052DE9F0470F46050061D0434E40
:10085000306800F00700B84209D2306820F0070085
:1008600038433060306800F00700B84251D1286842
:100870003B4C810712D5400703D5606840F4E06027
:1008800060602878000703D5606840F460506060BD
:100890006068A96820F0F000084360602878C0070D
:1008A00028D06868012810D02168022810D0890754
:1008B00000292EDA616821F0030101436160FFF72E
:1008C00039FF804641F288390DE021688903EFE75E
:1008D0008901EDE7FFF72EFFA0EB0801494502D99A
:1008E0000320BDE8F0876068696800F00C00B0EB99
:1008F000810FEFD1306800F00700B8420BD93068A3
:1009000020F0070038433060306800F00700B8423C
:1009100001D00120E5E72878400705D56068E9683F
:1009200020F4E060084360602878000706D560681E
:10093000296920F4605040EAC100606000F038F896
:100940006168084AC1F30311515CC8400649086058
:1009500006480068FFF706FF0020C2E700200240BB
:10096000001002403E3E00080C0000200400002061
:100970000448054900684968044AC1F30221515CF2
:10098000C84070470C000020001002404E3E000896
:100990000448054900684968044AC1F3C221515C12
:1009A000C84070470C000020001002404E3E000876
:1009B0000E4A51680E4801F00C03042B11D0082B8D
:1009C0000FD10C48C1F38343C903C05C0AD55168F9
:1009D000084AC1F34041921E515C054A5043B0FBA6
:1009E000F1F070470449484370470000001002408E
:1009F00000127A002E3E000800093D002DE9F84F54
:100A0000040070D02078C04DC00749D06868C0F39A
:100A10008100012807D06868C0F38100022809D14D
:100A20006868C00306D52868800339D56068002847
:100A3000E7D035E06068B0F5803F0BD010B1B0F57D
:100A4000A02F11D0286820F480302860286820F476
:100A5000802002E0286840F480302860606890B10F
:100A6000FFF768FE06460AE0286840F48020286008
:100A7000F0E700BFFFF75EFE801B642873D828688C
:100A80008003F7D50CE0FFF755FE064605E000BFF2
:100A9000FFF750FE801B6428F0D828688003F7D445
:100AA00020789A4E80074FF001094FF0000839D5A1
:100AB000686810F00C0F07D06868C0F38100022846
:100AC00009D16868C00306D42868800714D5206956
:100AD000012808D110E02069B0B1C6F80090FFF7F6
:100AE00029FE074605E00AE1FFF724FEC01B0228A5
:100AF000C4D828688007F7D52868616920F0F80015
:100B000040EAC10028600DE0C6F80080FFF712FE41
:100B1000074604E0FFF70EFEC01B022823D8286812
:100B20008007F7D4207800072CD57948A169D9B17E
:100B3000C0F80090FFF7FEFD074604E0FFF7FAFD5E
:100B4000C01B02280FD8686A8007F7D571484FF498
:100B5000FA510068B0FBF1F0009000BF0098411E10
:100B60000091FAD20EE080E0C0F80080FFF7E2FDCD
:100B7000074604E0FFF7DEFDC01B022875D8686A4F
:100B80008007F7D42078400760D5E8690027C000C7
:100B900008D4E86940F08050E861E869012700F076
:100BA000805000905C480168C90513D401688346F1
:100BB00041F480710160FFF7BDFD824606E000BF91
:100BC000FFF7B8FDA0EB0A0064284ED8DBF8000060
:100BD000C005F5D5E06801280AD008B1052813D072
:100BE000286A20F001002862286A20F0040002E050
:100BF000286A40F001002862E06841F2883B98B121
:100C0000FFF798FD82460BE0286A40F00400286256
:100C1000EEE700BFFFF78EFDA0EB0A0159455AD859
:100C2000286A8007F6D50CE0FFF784FD824605E0D0
:100C3000FFF780FDA0EB0A0159454CD8286A8007D0
:100C4000F6D41FB1E86920F08050E861E06988B30C
:100C50006968C1F38101022944D00228C6F8608086
:100C600004D0FFF767FD044638E034E0FFF762FD8B
:100C7000074604E0FFF75EFDC01B02282BD828685A
:100C80008001F7D4206AB0F5803F05D16868A1687B
:100C900020F4003008436860D4E90801084369681B
:100CA00021F4741108436860C6F86090FFF742FDB4
:100CB000044606E025E000BFFFF73CFD001B0228CC
:100CC00009D828688001F7D51BE000BFFFF732FD87
:100CD000001B022802D90320BDE8F88F2868800194
:100CE000F4D40EE00128F7D06868226A00F480315D
:100CF000914204D1616A00F47010884201D0012051
:100D0000EAE70020E8E7000000100240000042424D
:100D1000800442420C0000200070004010B5401ECC
:100D2000B0F1807F01D3012010BD4FF0E02460615D
:100D30000F21601703F033F80020A0610720206125
:100D4000002010BD70B5040004D094F841000025C7
:100D500010B106E0012070BD84F84050204600F03C
:100D600023F8242084F841002068C16821F4005150
:100D7000C160204602F052FF2068016921F49041D1
:100D800001612068416921F02A0141612068C16840
:100D900041F40051C1606564202084F8410084F86A
:100DA00042006563002070BD30B585B0002400941A
:100DB00001940294039400681449884224D1144891
:100DC000816941F480418161816901F4804104912C
:100DD000816941F00401816180690E4D00F00400D9
:100DE00004904FF4007000900220019003200390C3
:100DF00069462846FFF7A8FB2815CDE90004694697
:100E000028460294FFF7A0FB05B030BD0038014032
:100E100000100240000801402DE9F843044690F814
:100E20004100984616460D46202802D00220BDE813
:100E3000F88385B17EB100206064212084F84100F0
:100E4000FFF778FCA6848146E684A0682027B0F5E9
:100E5000805F02D003E00120E9E7206910B12E464F
:100E600000250EE000260CE08021204602F032FF33
:100E7000A8B9C6B116F8010B21684860E08C401E85
:100E8000E084E08C4B464FF00002CDF80080002853
:100E9000EAD14FF04001204602F01CFF40B184F837
:100EA00041700320C3E735F8020BC0F30800E3E705
:100EB00084F841700020BAE7FEE7000008B50C4D49
:100EC0004FF47A74012211462846FFF72DFC6A463A
:100ED0000021204600F048FE002201212846FFF7AD
:100EE00023FC6A460021204600F03EFEEAE70000AF
:100EF000000C014008B50C4D40F6B8340122022127
:100F00002846FFF711FC6A460021204600F02CFE1F
:100F1000002202212846FFF707FC6A4600212046EE
:100F200000F022FEEAE70000000C014030B585B079
:100F3000002418480094019402940394816941F0BC
:100F400020018161816901F020010491816941F0F2
:100F500008018161816901F008010491816941F012
:100F60000401816180690C4D00F0040004900022AE
:100F700003212846FFF7D8FB032000900120CDE98C
:100F800001040220039069462846FFF7DDFA05B008
:100F900030BD000000100240000C01400C4810B5AC
:100FA0000A4901604FF4E1314160002181600C2267
:100FB000C160C0E904128161C161FFF7C3FE00286E
:100FC00003D0BDE81040FFF7BEBA10BD00380140A5
:100FD000200C0020FEE7FEE7704700000248006892
:100FE000002800D0004770474000002010B504469C
:100FF00000F0BEF8464800210A2201704548017001
:101000004548017045480160454801604548017008
:1010100045480170454801704548016045480160F8
:10102000454801604548017045480068B0FBF2F052
:10103000444A1060444A106830B14448006818B10E
:10104000126802C0521EFCD1414801604148016053
:1010500041480160414801604148016041480160E8
:10106000414801604148017001F020FB01F0D2FBD2
:10107000204600F031FE2088002847D1204601F0AC
:1010800025F92088002841D1204601F02BF920883D
:1010900000283BD1204601F0BFF92088002835D137
:1010A000204601F029FB208800282FD1204601F09E
:1010B000D9FC2088002829D1204601F045FF20884E
:1010C000002823D1204601F075F8208800281DD182
:1010D000204600F00DFF2088002817D1204602F09E
:1010E0009FFB2088002811D1204601F08BFE20882C
:1010F00000280BD1204602F0E7FB2088002805D10C
:1011000000F0E8FDBDE81040FFF766BF10BD00002D
:10111000540000205C000020A4000020F800002003
:10112000FC0000208A0000208B0000208C000020A2
:10113000980000209C000020A0000020AC000020AF
:10114000A03E0008A80000207C3E0008783E000871
:1011500034000020380000203C0000204000002027
:1011600044000020480000204C000020DA0000204D
:1011700030B5094B0020094A0446196801E010C146
:10118000401C1568A842FAD31868054900EB850091
:10119000001F086030BD0000783E00087C3E00085B
:1011A0002C0000201A4810B5007801282FD1FFF735
:1011B0000FF8184A0446117829B1491E11F0FF00B2
:1011C000107022D103E0BDE81040FFF705B81248C7
:1011D0000078D0B901F058FA10490870104900EBB6
:1011E000400051F820100F4801600F48006881420C
:1011F0000BD051F8900F401C08600C480168491C46
:1012000001600B494FF0805008602046DBE710BDBD
:101210005C00002054000020A40000208B0000206F
:1012200094220020FC000020F8000020D0000020C4
:1012300004ED00E0164810B50078002826D11548C6
:101240000078002822D1FEF7C3FF044601F01CFA03
:1012500011490870114900EB400051F82000104975
:1012600008601049096888420BD050F8901F491C4B
:1012700001600D480168491C01600C494FF0805025
:1012800008602046BDE81040FEF7A6BF10BD000074
:1012900054000020A40000208B0000209422002095
:1012A000FC000020F8000020D000002004ED00E049
:1012B00070B504461248007810B146F662501DE041
:1012C00010480078012802D045F6896016E00E4DDE
:1012D0002878FA2802D345F209200FE0FEF778FFBC
:1012E0000646FFF701F92878401C287001F05AFBE8
:1012F000FFF70AF93046FEF76FFF0020208070BD2F
:10130000540000205C000020A400002070B50446BA
:101310001848007810B146F6655029E01648007864
:10132000012802D045F6896022E0144D287890B15A
:10133000FEF74EFF0646FFF7D7F82878401E10F05C
:10134000FF0028700AD0FFF7DFF83046FEF744FFB1
:1013500046F663500CE046F6645009E001F030FBBD
:10136000FFF7D2F83046FEF737FFFFF763FF0020A4
:10137000208070BD540000205C000020A4000020EC
:1013800070B50F4D0446287818B145F68A60208064
:1013900070BD01F079F90B4908700B4908700B49D1
:1013A00000EB400051F82000094908600949086035
:1013B00001202870FEF7B8FF43F69920E7E7000008
:1013C0005C0000208B0000208A0000209422002076
:1013D000FC000020F80000202DE9F0410646FEF751
:1013E000F7FE0546FFF780F82E48002404602E48DB
:1013F00004802E4804802E4804602E4804602E4845
:1014000004602E4804602E4804602E480481FFF7D3
:101410007BF82846FEF7E0FEFEF7DAFE0746FFF708
:1014200063F82948056818E0FEF7D2FE0746FFF783
:101430005BF8C5F8B440C5F8B84045F8784F2C6360
:10144000AC61AC82EC826C62AC62FFF775F845F877
:10145000200FA5F134008481AD6AFFF755F83846B6
:10146000FEF7BAFE002DDFD1FEF7B2FE0746FFF70A
:101470003BF81648056806E0FEF7AAFE0746FFF7A8
:1014800033F8AC85AD69FFF73FF83846FEF7A4FEA8
:10149000002DF1D102F0DEF802F0E4FA3480BDE86C
:1014A000F0810000700000206A000020BA000020D7
:1014B000CC000020E0000020E800002058000020C0
:1014C0009C00002088220020D400002090000020F2
:1014D00002480068002800D0004770474400002000
:1014E0002DE9FF4F83B004467248DDE91785DDE939
:1014F00010960078DDF854A0139F10B147F24A10FF
:101500002AE04CB1059850B166B16B48006887423B
:101510000BD246F630601FE047F2AD101CE047F2F8
:101520004F1019E046F62F6016E01298B84202D329
:1015300046F6316010E046F27320B9F1200F0BD26D
:101540005FEA090103D0B9F11F0F02D008E05B493F
:1015500000E05B498C4203D0288007B0BDE8F08FE3
:10156000204601F001FD4FF0000BA5F800B05FEA46
:10157000C8700AD05FEA887007D5304600215A4605
:1015800001E004C0491CB942FBD31298CDE90078B0
:1015900006EB8005DDE905012B46324600F078FABE
:1015A0000599A1620699E1620499216284F8379055
:1015B000C4F854A0A56020605FEA0A0024D0A065AA
:1015C0001698A76366626060A4F83C8000205946C4
:1015D00004EB8002401CD16710F0FF00F8D004F14A
:1015E0006400149900F0CCFE204600F075F8FEF778
:1015F000EFFD0646FEF778FF324D2878401CC0B25A
:101600002870012803D004E02F480068D7E701F0D4
:10161000C9F9FEF779FF3046FEF7DEFD94F8370092
:1016200001F04AF8204601F03BF9204601F05EFC4B
:1016300026490888401C088025480078012821D0C8
:10164000FEF7C6FD0446FEF74FFF2878401E10F057
:10165000FF0129700ED101F0B3F91E48008848B18E
:10166000FEF752FF2046FEF7B7FD07B0BDE8F04F8A
:1016700001F074B9FEF748FF07B02046BDE8F04F0F
:10168000FEF7AABDFEF7A4FD0446FEF72DFF28785D
:10169000401E10F0FF01297001D101F091F9FEF711
:1016A00033FF2046FEF798FD07B0BDE8F04FFFF787
:1016B000C1BD0000540000209C3E0008C021002055
:1016C000F8200020A4000020A8000020D80000205E
:1016D0005C0000206800002002490968002900D051
:1016E00008477047340000202DE9F0410446524875
:1016F0000E46007810B147F24E100AE04F4884427F
:1017000002D147F24C1004E04D48844204D147F224
:101710004D100880BDE8F0815CB9FEF759FD054623
:10172000FEF7E2FE47480468FEF7EEFE2846FEF7A5
:1017300053FDFEF74DFD0746FEF7D6FE424D2878D5
:10174000401CC0B22870012801D101F02BF9FEF72E
:10175000DBFE3846FEF740FD94F8360008283DD2FF
:10176000DFE800F004080C0C1C080C0C204601F00B
:10177000CBF813E0204601F051FF0FE0204601F0C6
:101780004DFF94F83400072808D2DFE800F0070482
:10179000070404040400204600F0E9FE04F164009C
:1017A00000F0D4FD204600F055F8204601F0B0FBD3
:1017B00026490888401E0880204601F0D5FBFF20FE
:1017C00084F83600FEF704FD0446FEF78DFE287807
:1017D000401E10F0FF00287021D022E0FEF7F8FC38
:1017E0000446FEF781FE2878401E10F0FF002870A6
:1017F0000CD101F0E5F81648008838B1FEF784FEF8
:101800002046FEF7E9FC01F0A9F804E0FEF77CFEB3
:101810002046FEF7E1FC46F62D6030807AE701F0C5
:10182000CFF8FEF771FE2046FEF7D6FC0020308090
:10183000BDE8F041FFF7FEBC54000020F820002076
:10184000C0210020F8000020A4000020D8000020C3
:101850006800002002490968002900D00847704745
:101860003800002002490968002900D00847704765
:101870003C0000202DE9F0478146574814461E469B
:101880000078884610B146F2AE1006E0080006D097
:10189000B1F5004F03D045F6256018803DE00027E4
:1018A00004B12760FEF794FC8246FEF71DFE4B4D07
:1018B0002968486CD8B1401E804648640CB1086C59
:1018C0002060FEF739FE29680A6C801AC1F8A4006E
:1018D000D1F8A820824201D2C1F8A800FEF714FE78
:1018E0005046FEF779FC37804046BDE8F0875FEA56
:1018F000084007D5FEF708FE5046FEF76DFC46F29D
:10190000B01009E03648017849B1FEF7FDFD5046B8
:10191000FEF762FC46F6635030800020E5E70121C7
:101920008046017001F03EF8FEF7EEFD5046FEF7EE
:1019300053FC00214B460722084600F079FDFEF7D4
:1019400047FC8146FEF7D0FD98F80010491E11F0C3
:10195000FF0188F8001001D101F032F8FEF7D4FD44
:101960004846FEF739FCFFF765FCFEF731FC804680
:10197000FEF7BAFD286890F8351031B1012916D06C
:1019800003291AD046F62E601BE074B1006C20606B
:10199000FEF7D2FD29680A6C801AC1F8A400D1F8BC
:1019A000A820824201D2C1F8A80037800AE00CB119
:1019B000006C206046F2A91003E004B1276047F2F2
:1019C000D92030802868446CFEF79EFD4046FEF723
:1019D00003FC204689E7000054000020F8000020A6
:1019E000A40000202DE9F0470546274816460F467B
:1019F00000781C4610B147F259100AE046F2D52093
:101A00003FB136B1FEF7E4FB8146FEF76DFD1DB137
:101A100004E01880BDE8F0871C4805684FF0000816
:101A2000286858B195F83C00C00713D0FEF76CFD4C
:101A30004846FEF7D1FB0020696A1AE0FEF764FD14
:101A40004846FEF7C9FBC7F8008047F25210C6F8B7
:101A500000800AE0FEF758FD4846FEF7BDFBC7F8D8
:101A6000008047F25410C6F800802080D2E7401C66
:101A7000091D0A68002AFAD03860A96B081A30607C
:101A8000A4F80080C6E7000054000020F800002001
:101A900010B5029C02EB84024FF0807442E902040C
:101AA000164842F80C0C4FF0123042F8100CA2F11C
:101AB00014004FF0023240E903134FF0113140F8A7
:101AC000101CD10040F8141C4FF0093140F8181CCC
:101AD000910040F81C1C4FF007314FF0033440F8E0
:101AE000201C610040F8241C4FF0053140F8281DEF
:101AF0005100C0E9092440F8041D10BD91320008CE
:101B000070B51548006800B18047FEF715FD134C0D
:101B1000134A21681268914207D0D1F89830C31A4D
:101B200041F8943F8D682B448B60C2F89800FEF713
:101B3000BDFC2168D1F8B420824201D2C1F8B400C2
:101B4000084AD1F8B8301068834201D2C1F8B80011
:101B50000020106070BD000048000020F800002048
:101B6000FC000020A00000202DE9F041804636480E
:101B70000F461546007810B147F2752020E0334C2F
:101B8000207810B146F663501AE047B1022F06D014
:101B9000042F07D0082F02D045F6256010E0B8F1D9
:101BA000000F0BD0FEF714FB0646FEF79DFC2078D5
:101BB000401CC0B22070012805D006E047F27E200C
:101BC0001080BDE8F08100F0EDFEFEF79DFC304690
:101BD000FEF702FB1E4E01212B4630683A4680F884
:101BE0003610414601F0AEFC288898B1FEF7F0FAB5
:101BF0000546FEF779FC2078401E10F0FF012170A9
:101C000001D100F0DDFEFEF77FFC2846BDE8F04183
:101C1000FEF7E2BA306800F077FEFEF7D9FA064622
:101C2000FEF762FC2078401E10F0FF00207001D10A
:101C300000F0C6FEFEF768FC3046FEF7CDFAFFF76F
:101C4000F9FA00202880BCE754000020A4000020FE
:101C5000F800002000B585B000F01CF8FEF76CFC21
:101C600004AA002103920091CDE90110064807491A
:101C7000002300781A4600EB400001EB8001044885
:101C800000F06AF905B000BD8A000020942200200F
:101C90005449434B02480068002800D00047704771
:101CA0004C00002010B5FEF793FA0446FEF71CFC2A
:101CB00007490878401C0870FEF726FC2046FEF70E
:101CC0008BFAFFF7C7FFBDE81040FFF76BBA0000C3
:101CD0005400002070470000034A00211160034AAD
:101CE00011800180704700007400002078000020FF
:101CF0002DE9F05F9A4690460D4604460A9FFEF78E
:101D000067FA8346FEF7F0FB5FEA080024D001285B
:101D100007D0B0F5004F1FD06FF4004118EB010F52
:101D200012D1206A30EA0500C4E9080A208A04F1C9
:101D300008064FF0000990B14D4D2878401CC0B204
:101D40002870012815D016E0FEF7DEFB5846FEF796
:101D500043FA45F625606CE0206A2843E4E7FEF785
:101D6000D3FB5846FEF738FAA7F80090206ABDE882
:101D7000F09F00F017FEFEF7C7FB5846FEF72CFA5F
:101D8000366833E090F88810766801F00F01012979
:101D90001BD0022921D004290DD0082910D0FEF72C
:101DA00017FA0446FEF7A0FB2878401E10F0FF004B
:101DB00028702AD036E0216AD0F88020114009E04E
:101DC000216AD0F8802011400BE0D0F88010236AFF
:101DD0000A4699438A4205D007E0D0F88010226A6B
:101DE000914311B1524600F047F816B1B06800288F
:101DF000C8D1FEF7EDF90646FEF776FB2878401EBF
:101E000010F0FF00287017D018E000F0D9FD194835
:101E1000008838B1FEF778FB2046FEF7DDF900F0C8
:101E20009DFD04E0FEF770FB2046FEF7D5F943F672
:101E3000FF20388000209AE700F0C2FDFEF764FB27
:101E40003046FEF7C9F95FEA084001D4FFF7F2F91E
:101E5000FEF7BEF90546FEF747FB246AFEF754FB82
:101E60002846FEF7B9F9A7F8009020467FE7000062
:101E7000A40000206800002070B50025C0F8841080
:101E800080F8355080F834500446026490F83600EB
:101E900008280ED2DFE800F00D0D04040D0D0A0A2B
:101EA000204601F067F984F8365002E0042084F8F7
:101EB00036002046BDE8704000F059BB0A4C0B4D7F
:101EC000FEF786F90646FEF70FFB2068401C2060EF
:101ED0002868401C2860FEF717FB3046FEF77CF9A7
:101EE000FFF77CF8ECE7000050000020BC00002069
:101EF00000B50E4A89B0002111600B2205910691B0
:101F0000CDE907200A480B4A0B4B006812681B6892
:101F10000292CDE903011F20CDE900030023074A07
:101F200007A10C48FFF7DCFA09B000BD5000002003
:101F3000603E00085C3E0008583E0008BD1E0008D8
:101F400075432F4F532D4949492049646C652054EE
:101F500061736B00F82000202DE9F84F1D46DDE984
:101F60000CB4DDE90AA916460F468046FEF730F9A3
:101F70000090FEF7B9FA1D481D4A01881288914267
:101F80002DD2491C89B201801A4802888A4200D2A7
:101F9000018019490868C0F80080C0E9027605820E
:101FA000C0F814A0A0F81890C0F81CB040680860F1
:101FB000124801210181124901604160002000F0B6
:101FC0007BFB1048007808B10F4908700020208082
:101FD000FEF79AFA0098BDE8F84FFEF7FDB80B49F6
:101FE0000888401C088044F25360F0E76800002035
:101FF000683E00086A000020600000209422002053
:10200000C02100208A0000208C0000206C000020ED
:102010003EB5374C374B02A920680268D51A9A4260
:1020200045D015DC344BD2182DD0344BD21822D0E9
:10203000334BD21832D0334BDA4208D1C269CDE9E2
:102040000021038B028AC168806800F0F1FF3EBD69
:102050002D4AAA181ED02D4BD21824D02C4BDA4270
:10206000F5D1C269CDE90021038B028AC16880687D
:1020700000F04EFB3EBD0091028BC3694169806850
:10208000FFF736FE3EBD018BC269806802AB00F0EF
:10209000F5FC3EBD806801F07BF83EBD018BC26956
:1020A000806802AB21E0806801F0C2F93EBD1948AA
:1020B0001949007800EB400001EB800000F09EFC25
:1020C000206802AB0021C269144801F0EDF8144801
:1020D0000168491E0160E9D1124909680160FEF7F3
:1020E0002BFA024602AB00210F4801F0DDF83EBD9D
:1020F000640000205449434BADBAB2BE0DF90BFA4F
:10210000F2F8F7FF0006F6FF00F7FDF700FFEFFF1C
:1021100003FE0FFE8C00002094220020DC2400200F
:10212000F4000020F0000020A42500201D4D1E4CCE
:102130001E4E00BFFEF74CF80746FEF7D5F9208883
:1021400008B3FEF7E1F93846FEF746F8FEF7F4F972
:102150000746FFF75DFFFEF7EFF92968C01B8142D4
:1021600000D22860FEF734F80746FEF7BDF9306864
:10217000406830602088401E2080FEF7C5F9384650
:10218000FEF72AF8D6E70A4900200881086048606F
:1021900000F0A2FAFEF7B8F93846FEF71DF8FFF78F
:1021A00049F8C5E7700000206800002064000020A6
:1021B00094220020F0B52F492F4D89B000220A80CB
:1021C000296831B12D4E3188022905D244F254617B
:1021D00035E044F2526132E029490023294F0A6078
:1021E000296801F1200410E041F8087B5B1C41F8EC
:1021F000082B9BB241F8042C21F8102B41F80C2C31
:1022000021F8082C41F81C4C2034B6F800C0634576
:10221000EAD32B6841F81C3C1B490B601B490B603F
:102220001B490A801B490A801B490B6853B11B4B91
:102230001B4D1C682D68AC4207D244F256610180E8
:1022400009B0F0BD44F25561F9E703240592069206
:10225000CDE907401868134B09681B68CDE90302F4
:102260000092CDE9011300230F4A10A11648FFF791
:1022700037F9E5E76C000020643E0008683E00087E
:10228000700000204E4F4E4560000020640000208A
:10229000680000206A0000206C3E0008743E0008C0
:1022A0009C3E0008703E00082D21000875432F4F0A
:1022B000532D494949204953522051756575652070
:1022C0005461736B00000000C0210020034A00210C
:1022D0001160034A11800180704700007C000020DB
:1022E00080000020F0B5164C216859B1154E318898
:1022F00059B189B2491E22688FB2002502F110033C
:1023000029460EE045F21E7118E045F21D7115E0F8
:10231000E2E802316D1C22F8081BADB242F8041C41
:102320001033BD42F4D3116051601181D160064A6F
:102330002368136033889380D18011810180F0BDC0
:10234000843E0008803E00088822002010B54289A3
:1023500092B10A4903680C681C6043680B60CB8823
:1023600044891B1BCB808B88448923448B800021AC
:102370004181818101604160104610BD88220020AA
:10238000018100214181818101604160704700002D
:10239000F0B54489DDE905E70589AC4202D346F290
:1023A00093501EE01B4DAE88CEB12C68761ED4F83B
:1023B00000C0C5F800C0AE80EE88761CB6B2EE80D4
:1023C000B5F808C0B44500D22E814689002556B123
:1023D000DB060ED403681C60046025600CE045F247
:1023E0001D703880F0BD0460012344604381256086
:1023F00005E043682360446043895B1C4381868910
:1024000043899E4200D2838161602281C4F80CE03E
:102410003D80F0BD88220020034A00211160034A5C
:102420001180018070470000840000208800002097
:102430002DE9F041114D07460C4628680026194643
:1024400080F8342080F8356000F03AFD64B1FC601B
:1024500004F1080601223946286800F011F83946CF
:10246000304600F057F802E02868C6870663204629
:102470002968BDE8F04100F01BB80000F80000201A
:1024800010B5C2870024234601630EE04B6041F87B
:10249000103B641C41F8103BA4B241F80C3C21F8FD
:1024A000083C41F8043C41F8180C9442EED310BDAE
:1024B00038B14268C1F8C42081688968096AC1617D
:1024C000704791F83400022803D0072803D004A0F5
:1024D00002E004A000E005A0C1F8C40070470000BD
:1024E000200000005461736B205100005461736B35
:1024F0002053656D0000000005A2C1F8C42081686A
:1025000011B18968096A00E001A1C161704700004A
:102510002000000030B58A68002392F83740028915
:102520001AB1521C028102680BE0012202814B6049
:102530000B60016014E0956895F83750A54203D808
:102540005268002AF7D107E032B1146854B1C1E9EA
:1025500000426160116030BD4B6042680A605160AA
:10256000416030BD1160C1E90032016030BD70B51D
:102570000646C48F056B07E0E8682946083000F07E
:1025800009F8641EA4B22035002CF5D10020F08794
:10259000306370BD10B502890023012A0BD00A6890
:1025A00062B14C6874B1546022600289521E02818B
:1025B0004B600B6010BD03604360F6E74A68136030
:1025C0000260F2E753604260EFE7F8B50C4606465A
:1025D00091F836100025069808293BD2DFE801F073
:1025E0003A3A04043A3A202094F83410032911D0DE
:1025F000E265A4F86030206436B12046FFF7B7FFEB
:1026000021463046FFF778FF204600F0B3FD84F8FE
:1026100036501BE000902146304600F022F8EBE7F0
:1026200094F83410032916D0E265A4F860302064D1
:10263000204600F0F3FF36B12046FFF798FF214611
:102640003046FFF759FF042084F8360084F83550EF
:1026500084F83450F8BD00902146304600F001F86F
:10266000E6E770B50C6B049DC98F0AE0E668864208
:1026700004D1C4E904022383E56170BD491E89B217
:1026800020340029F2D170BD10B50024064802E0C4
:102690002034E4B2001D01680029F9D00846FDF796
:1026A000A2FD2044C0B210BD30000020014900202E
:1026B000086070473000002000F01F02410901202F
:1026C000C2F11F029040034A52F82130034342F8FE
:1026D000213070473000002000F01F024109012026
:1026E000C2F11F029040034A52F82130834342F85E
:1026F0002130704730000020034A00211160034A56
:10270000118001807047000090000020940000209C
:102710002DE9FF4F83B01F46DDE9109A9346064628
:10272000FDF756FD0546FDF7DFFE384C2078401CCE
:10273000C0B22070012801D100F034F9FDF7E4FEA9
:102740002846FDF749FD358A06F108001DB1B90597
:1027500030D500683CE0F80601D4002300E01023E7
:10276000CDE9009A5A4606F120000499FFF710FEC1
:10277000FDF72EFD0546FDF7B7FE2078401E10F050
:10278000FF0121700ED100F01BF92148008848B1EB
:10279000FDF7BAFE2846FDF71FFD07B0BDE8F04F74
:1027A00000F0DCB8FDF7B0FE07B02846BDE8F04FFA
:1027B000FDF712BD006801255B46D0E90181CDF827
:1027C00000903046049AFFF700FF6D1E4046ADB200
:1027D000002DF1D1FDF7FCFC0546FDF785FE2078C4
:1027E000401E10F0FF00207001D100F0E9F8FDF765
:1027F0008BFE2846FDF7F0FC380401D4FEF71AFDE5
:102800000021AAF8001007B0BDE8F08FA400002056
:10281000680000200020074B014600BF00EB40028B
:1028200003EB8202401C11811160C0B2516020286C
:10283000F4D370479422002010B5044690F8370076
:10284000FFF73AFF074994F8370009788842204695
:1028500003D1BDE8104000F023B8BDE8104000F0FF
:1028600003B800008A00002090F837100B4A01EBF3
:10287000410102EB810100220B8943B15B1C0B81FA
:102880000B68C0E903320A681061086070470123D1
:102890000B81C2600261086048607047942200208A
:1028A00090F837100A4A01EB410102EB8101002246
:1028B0000B893BB15B1C0B81C2604A680261D0602E
:1028C0004860704701230B81C26002610860F7E72E
:1028D0009422002010B50289002A14D0012A12D0B7
:1028E0000021022A07D0D0E90024D3681961C2E987
:1028F0000314E26005E0D0E90023C2E90313C3E951
:102900000321C0E9003210BD70B5054690F83700CC
:10291000114900EB400001EB8001D5E903020024DE
:1029200042B10B895B1E0B81D06090B102612C61BA
:10293000EC6070BD28B10A89521E0A8104610860EA
:10294000F5E70C810C604C6095F83700FFF7C4FE8A
:10295000EDE74A60EBE700009422002010B5FDF798
:1029600037FC0B4A002111700B4A0A49116051F8DB
:10297000902F521C0A6009490A68521C0A60084AD2
:102980004FF080511160BDE81040FDF725BC0000FC
:102990008B000020C0210020FC000020D00000207F
:1029A00004ED00E0044810B50078012803D1FDF7DC
:1029B000C3FD0249086010BDA4000020980000205B
:1029C0000A4810B5007800280ED1FDF7B5FD08497A
:1029D0000968401A07490A68824200D2086006491D
:1029E0000A68824200D2086010BD0000A4000020E6
:1029F000980000209C000020A000002070B5044634
:102A000014480078012824D1FDF7E2FB0546FDF7C4
:102A10006BFD2168B1B11048814213D08A6D12B1AB
:102A2000521E8A650ED1208902280BD30B480078EC
:102A300040B92046FFF74EFF2068416D09B90849AB
:102A400009688165FDF760FD2846BDE87040FDF727
:102A5000C3BB70BDAC000020F8200020A400002003
:102A6000A8000020034A00211160034A1180018060
:102A700070470000B0000020B40000202DE9F84F9E
:102A80001E46904689460446FDF7A2FB0090FDF7DE
:102A90002BFD208A04F108074FF0000B50B1DFF83E
:102AA000BCA09AF80010491CC9B28AF8001001298C
:102AB0001AD01BE0256A681C0CD06D1CC4E90858AC
:102AC000FDF722FD0098FDF787FBA6F800B0284629
:102AD000BDE8F88FFDF718FD0098FDF77DFB46F681
:102AE000C55030800020F3E7FFF75CFFFDF70CFDD9
:102AF0000098FDF771FB5FEA895002D53D893F6878
:102B00000CE03F6801250023B9687F681A4620461B
:102B1000CDF80080FFF759FD6D1EADB2002DF2D14A
:102B2000246AFDF755FB0546FDF7DEFC9AF8000028
:102B3000401E10F0FF008AF8000001D1FFF740FFAF
:102B4000FDF7E2FC2846FDF747FB5FEA094001D4A8
:102B5000FEF770FBA6F800B02046B9E7A4000020FD
:102B60000EB5964C964E2068450004E028466A460D
:102B70000021FEF7F9FF30780128F7D16846FEF70B
:102B80002BFC904822680168914206D90A462168C8
:102B9000B2FBF1F15FEA010803D100680A21B0FB42
:102BA000F1F8DFF824B2894F42F2107A5FF00006A4
:102BB000FDF7C2FC0190FDF789FC85490860FDF72F
:102BC00007FB0546FDF790FC8248834C01682160B5
:102BD0000660FDF799FC2846FDF7FEFA7F4823685A
:102BE00002689A422BD97E48824202D25046012185
:102BF00015E07C48824203D24FF47A700A210EE03D
:102C00007948824202D26420014608E07748824235
:102C100003D20A204FF47A7101E001205146B2FB41
:102C2000F1F15843B0FBF1F0AAEB0000704980B21B
:102C3000ABF800000A88824203D2088001E0ABF8BA
:102C400000A0FEF745FC0024FDF7C2FA8146FDF71F
:102C50004BFC3D6842E000BFFDF7BAFA0290FDF779
:102C600043FCDFF8909199F80010491CC9B289F82B
:102C70000010012901D1FFF795FEFDF745FC0298F0
:102C8000FDF7AAFAD5F89C00C5E92760FDF7A0FA80
:102C90000290FDF729FC99F80010491E11F0FF0180
:102CA00089F800100CD1FFF78BFE5348008838B12B
:102CB000FDF72AFC0298FDF78FFAFFF74FFE04E0BC
:102CC000FDF722FC0298FDF787FA55F8A00F04449F
:102CD000FDF77EFA8146FDF707FC2D6AFDF714FC2F
:102CE0004846FDF779FA002DB6D12CB33C48844212
:102CF00002D25546012015E03A48844203D24FF4EF
:102D00007A750A200EE03848844202D264252846AB
:102D100008E03648844203D20A254FF47A7001E075
:102D200001255046B4FBF0F08146FDF751FA0290C0
:102D3000FDF7DAFB3C6822E000250120F4E700BF44
:102D4000D4F8A0006843B0FBF9F080B2504500D938
:102D50005046A4F88C00B4F88E10814201D2A4F839
:102D60008E0004F1AC026B46111D2046FEF73AFEC0
:102D7000FDF72EFA0290FDF7B7FBD4F8C040FDF73F
:102D8000C3FB0298FDF728FA002CD9D11B48017823
:102D9000012903D106706846FEF71EFBFDF7CCFB48
:102DA0000199401A16490A68824200D208606A46B0
:102DB00000214046FEF7D8FEFAE600008C3E0008EF
:102DC000C8000020A03E0008B8000020D400002069
:102DD00058000020BC000020C4000020C0000020DB
:102DE000801A060000093D00005A62020084D717CD
:102DF000BA000020A400002068000020B6000020D7
:102E0000CC00002030B51D4A89B0002111601C4A59
:102E100011601C4A11601C4A11701C4A11701C4A36
:102E2000136843B11B4B1C4D1C682D68AC4205D286
:102E300046F62C6108E046F62B6105E0174C257834
:102E40001F2D04D346F62A61018009B030BD032549
:102E500005910691CDE9075011481B68126800687A
:102E6000CDE90120CDE903312078009000230D4AFF
:102E70000DA11248FEF734FBE7E70000BC0000207C
:102E8000C4000020C0000020C8000020B6000020C0
:102E9000903E0008983E00089C3E0008883E0008CE
:102EA000943E0008612B000875432F4F532D49496C
:102EB000492053746174205461736B001424002002
:102EC00038B50446022531B16B46022200F03AFBC8
:102ED000BDF8000028B184F836502046FFF714FDF5
:102EE00038BD032084F83600F7E70000074B0022C6
:102EF000C0F8BC20196829B1C0F8C010C1F8BC00E6
:102F000018607047C0F8C020FAE70000D400002025
:102F1000D0E92F2100234AB181B1C2F8C010C1F815
:102F2000BC20C0F8C030C0F8BC307047054A116002
:102F300009B1C1F8BC30C0F8C0307047C2F8C03029
:102F4000F1E70000D4000020044A00211160044A87
:102F50001180044A1160018070470000D4000020F5
:102F6000D8000020D000002070B5002505608560E5
:102F70004560C560056145610446856129A0C4E9D5
:102F800007506562A562E5622563E5872564E5650E
:102F9000A4F86050002104F16400FFF7F1F96567BF
:102FA000A567C4F88050A4F888500020C4F8845065
:102FB00004EB8001401CCD6710F0FF00F8D0656481
:102FC000C4F8A450C4F8A850A56384F88A50C4F883
:102FD000B050C4F8AC50A5874FF00040C4E91205CA
:102FE00025656565A565A4F88C50A4F88E50C4F8D5
:102FF0009050C4F894503434FDF79EFAC4E9190592
:10300000C4F88050C4F8845004F8015B202004F810
:10301000015B04F8015B04F8850B04A020C4C4E93B
:10302000005070BD3F5461736B0000002000000031
:103030002DE9FC5F9946DDE90C7692468B46054604
:10304000FDF7C6F88046FDF74FFA474C2078401C44
:10305000C0B22070012801D1FFF7A4FCFDF754FA9B
:103060004046FDF7B9F80DB94048056800203080AA
:1030700095F83600DFF8F880082852D2DFE800F033
:103080000404262604042626CDE900764B46524643
:10309000594605F16400FFF77BF9FDF799F80546FD
:1030A000FDF722FA2078401E10F0FF01217031D187
:1030B000FFF786FCB8F8000060B3FDF725FA284654
:1030C000FDF78AF8BDE8FC5FFFF748BC95F83400CF
:1030D0000228D9D153465A46294600200097FFF7C7
:1030E00074FAFDF775F80546FDF7FEF92078401EE5
:1030F00010F0FF01217001D1FFF762FCFDF704FA27
:103100002846FDF769F85FEA09402AD4BDE8FC5F6C
:10311000FEF790B8FDF7F8F92846BDE8FC5FFDF72B
:103120005BB8FDF755F80546FDF7DEF92078401E3F
:1031300010F0FF0020700CD1FFF742FCB8F800003F
:1031400038B1FDF7E1F92846FDF746F8FFF706FC30
:1031500004E0FDF7D9F92846FDF73EF846F62D6064
:103160003080BDE8FC9F0000A4000020F800002093
:103170006800002010B5044600F050FA94F83600BC
:10318000400704D42046BDE81040FFF755BB10BDF2
:103190002DE9F0410D460446FDF71AF80746FDF704
:1031A000A3F900262E8094F83600082864D2DFE8C0
:1031B00000F0040404040D394955FDF7A5F938461B
:1031C000FDF70AF847F25310288037E02F4D287892
:1031D000401CC0B22870012801D1FFF7E3FBFDF7C6
:1031E00093F93846FCF7F8FF94F88A00401E10F077
:1031F000FF0084F88A0004D184F836602046FFF787
:10320000B9FFFCF7E5FF0446FDF76EF92878401E8C
:1032100010F0FF01297001D1FFF7D2FBFDF774F91F
:10322000204609E094F88A00401E10F0FF0084F860
:103230008A001BD101200EE0FCF7CEFFBDE8F04173
:10324000FDF7F8BF94F88A00401E10F0FF0084F8E4
:103250008A000BD1022084F8360007E094F88A0037
:10326000401E10F0FF0084F88A0003D0FDF74CF9EF
:103270003846E1E70320EEE7FDF746F93846FCF76C
:10328000ABFF46F62D602880BDE8F081A400002049
:10329000044808B50068FEF7E5FA69460020FEF725
:1032A00023FA08BDF80000202DE9F84F9846914612
:1032B0008B460646FCF78CFF0546FDF715F9594C81
:1032C0002078401CC0B22070012801D1FFF76AFBB2
:1032D000FDF71AF92846FCF77FFF0EB95248066839
:1032E0000020524FC6F84090A8F8000096F836002B
:1032F00046F6C55A082872D2DFE800F033332F2F84
:1033000033332F2FFDF700F92846FCF765FFFFF751
:1033100025FB04E0FDF7F8F82846FCF75DFFA8F868
:1033200000A00020BDE8F88F6D1C7564FCF750FF0D
:103330000646FDF7D9F82078401E10F0FF002070F7
:1033400047D1FFF73DFB3888F0B3FDF7DDF8304695
:10335000FCF742FFFFF702FB62E096F83400072813
:1033600013D0756C681CDFD1FCF732FF0546FDF702
:10337000BBF82078401E10F0FF002070CAD1FFF784
:103380001FFB38880028C5D0BCE700231A46314609
:103390001846CDF80090FFF718F9756CFCF718FF88
:1033A0000646FDF7A1F82078401E10F0FF002070BF
:1033B00001D1FFF705FBFDF7A7F83046FCF70CFF3E
:1033C0005FEA0B402CD401E003E008E0FDF732FF98
:1033D00026E0FDF799F83046FCF7FEFE20E0FCF70A
:1033E000F7FE0546FDF780F82078401E10F0FF003C
:1033F00020700BD1FFF7E4FA388838B1FDF784F874
:103400002846FCF7E9FEFFF7A9FA04E0FDF77CF88F
:103410002846FCF7E1FE46F62D60A8F800000025DE
:1034200028467FE7A4000020F80000206800002064
:103430002DE9F0410D460446FCF7CAFE0746FDF7AC
:1034400053F8334804B90468016832488C4209D102
:10345000017839B1FDF758F83846FCF7BDFE46F65D
:10346000635052E00021298094F836100126082983
:1034700044D2DFE801F0043133393B3B3B3B0546A6
:103480000078401CC0B22870012801D1FFF78AFAE9
:10349000FDF73AF83846FCF79FFE042084F8360022
:1034A00084F88A602046FFF72FFAFCF791FE044665
:1034B000FDF71AF82878401E10F0FF01297001D19D
:1034C000FFF77EFAFDF720F84FEA0400FCF784FED0
:1034D000BDE8F041FDF7AEBE052000E0062084F80F
:1034E000360084F88A6005E00720F8E714F88A0FB0
:1034F000401C2070FDF708F83846E7E7FDF704F8B0
:103500003846FCF769FE46F62D602880BDE8F0815C
:10351000F8000020A400002010B500200146074C50
:10352000074B06E004EBC002401C11609180D18083
:1035300080B21A889042F5D310BD0000E81D00202B
:10354000B43E0008F0B5324C47F27E2625680024D0
:10355000042A08D0B1B32E4E082A36680E440BD088
:10356000C0E9136115E04A1B521E12F5803F2AD8AC
:10357000521CC0E913120CE0826C0A44571B7F1ED8
:103580008F4201D2C26400E0C664C16C4A1B02656E
:103590008164204AC16C1288B1FBF2F602FB16115D
:1035A0001D4A89B202EBC102918889B11168F1B15B
:1035B000CE6C761B0E65076DB74212D94E6966B1A7
:1035C0003146F5E7FFE7C4640465C4611E80F0BDC1
:1035D00044618461012110600BE0C0E9054148614C
:1035E00005E08D6975B1C0E905156861886191884C
:1035F000491C9180D58889B28D4200D2D180C261A8
:103600001C80F0BDC0E9051488611060EFE7000080
:10361000DC000020B43E0008E81D002010B5C2699F
:10362000002A15D0002101651368834204D1436943
:10363000136033B1996104E0D0E90534636103B1EB
:103640009C6141618161C161C1649088401E90802C
:1036500010BD000010B500200446064B064A04E0E9
:1036600003EBC001401CCC8080B211888842F7D3A4
:1036700010BD0000E81D0020B43E00082DE9F05FF9
:10368000FCF7A6FD0446FCF72FFF554D2878401C9B
:10369000C1B22970012901D1FFF784F9FCF734FF89
:1036A0002046FCF799FDFCF747FFDFF83881074615
:1036B0004D49D8F800004FF00009401CC8F8000040
:1036C00009884FF0030AB0FBF1F201FB12004749F1
:1036D00080B24FF0040B51F8304074B394F83600C8
:1036E0006669082851D2DFE800F0500450115029D3
:1036F0005036E06CD8F80010421A2265884246D154
:1037000084F836902046FFF735FD3EE0E06CD8F8AF
:103710000010421A2265884239D1C4F85C90A4F89E
:103720006090FCF709FF20642046FEF720FF20464A
:10373000FFF720FD84F8369023E028E0E06CD8F80D
:103740000010421A2265884221D184F836B0204602
:10375000FFF764FF19E0E06CD8F80010421A226508
:10376000884214D1C4F85C90A4F86090FCF7E4FEA1
:1037700020642046FEF7FBFE2046FFF74FFF84F84B
:1037800036B084F835A084F834903446A5E7FCF7C9
:10379000D3FE1749C01B0A68824200D20860FCF7BA
:1037A00017FD0446FCF7A0FE2878401E10F0FF012C
:1037B00029700DD1FFF704F90E48008840B1FCF7DD
:1037C000A3FE2046FCF708FDBDE8F05FFFF7C6B892
:1037D000FCF79AFE2046BDE8F05FFCF7FDBC000058
:1037E000A4000020DC000020B43E0008E81D0020FA
:1037F000E0000020680000201CB5084C00216B464A
:1038000001AA0846FEF736F8BDF800000028F5D1F9
:1038100020780128F2D1FFF731FFEFE75C000020AC
:1038200030B504461A4889B000250560194805607E
:10383000FFF772FE1848016841B11849184B0A6831
:103840001B689A4205D247F2132008E047F2122083
:1038500005E0144A13781F2B04D347F2112020806F
:1038600009B030BD0B2305950695CDE907340E4B05
:10387000096800681B68CDE90103CDE903151078DC
:1038800000900023094A0AA10E48FDF729FEE7E748
:10389000DC000020E0000020A83E0008B03E000848
:1038A0009C3E0008A43E0008AC3E0008F937000822
:1038B00075432F4F532D494949205469636B205458
:1038C00061736B00DC24002030B52A4A89B00021E6
:1038D000294B1160294C2A4A1D681DB12468B4FB8C
:1038E000F5F303E023680A24B3FBF4F313601A46EC
:1038F000244B274D274C1A60234A1160234A11603C
:10390000002206E005EBC203521C9980D98092B2D6
:10391000196023889A42F5D31F4B1A6842B11F4A97
:103920001F4D14682D68AC4205D247F2483108E0BB
:1039300047F2473105E01B4C25781F2D04D347F291
:103940004631018009B030BD0B2505910691CDE9C6
:1039500007501068144A1B681268CDE90301CDE9CD
:103960000132207800900023104A11A11648FDF77B
:10397000B7FDE7E7E4000020B83E0008A03E0008DD
:10398000F0000020F4000020EC000020E8000020FF
:1039900070200020C83E0008BC3E0008C43E00085D
:1039A0009C3E0008B63E0008C03E00088D3A000864
:1039B00075432F4F532D4949492054696D65722035
:1039C0005461736B00000000A425002070B5022232
:1039D00080F82A20204A012914681ED0016AE1B12A
:1039E0001E4A214481611288B1FBF2F302FB1312DB
:1039F0001B4B92B203EBC202002315687DB1091B79
:103A0000C1611168D1B18D692D1BCD61C669AE420E
:103A10000ED90D6945B12946F5E7416AE0E7036132
:103A20004361106001200BE0C0E90431086105E04A
:103A30004C6964B1C0E90414206148619088401C5D
:103A40009080D18880B2814200D2D08070BDC0E920
:103A5000041348611060F1E7EC000020C83E000844
:103A60007020002010B500200446064B064A04E0F2
:103A700003EBC001401CCC8080B211888842F7D390
:103A800010BD000070200020C83E00081CB5DFF803
:103A90009090DFF890A0244DDFF890B000216B46A5
:103AA00001AA0846FDF7E6FE6846FDF701FCFCF7B3
:103AB00043FD064628684FF00308401C2860B9F80B
:103AC0000010B0FBF1F201FB120080B25AF8304056
:103AD000C4B1A06929682769884213D1204600F043
:103AE00027F8208D022808D084F82A80A26812B115
:103AF0002046E16890473C46EAE701212046FFF76F
:103B000065FFF3E7FCF718FD841B6846FDF7FEFB35
:103B1000DBF80010A142C1D2CBF80040BEE70000A4
:103B2000C83E000870200020EC000020E8000020C3
:103B300010B5104A81691288B1FBF2F302FB131130
:103B40000D4A89B202EBC102002314680169844264
:103B500003D1116029B14B6103E04469216101B1D6
:103B60004C61012180F82A10036143619088401E56
:103B7000908010BDC83E000870200020704730B50E
:103B80008FB028216846FCF76BFB14210AA8FCF7CC
:103B900067FB01210804CDE90010002402940225EE
:103BA0000491CDE907504FF4E01009906846FCF706
:103BB00025FF0F20CDE90A056802CDE90C4002215E
:103BC0000AA80E94FCF73EFE0FB030BD70470168A6
:103BD0000C3151E8002F22F4907241E80023002BB1
:103BE000F5D10168143151E8002F22F0010241E8BB
:103BF0000023002BF5D1016B012909D101680C319B
:103C000051E8002F22F0100241E80023002BF5D1EB
:103C1000202180F8421000210163704770B50446EE
:103C200000680169E26821F4405111430161216992
:103C3000A0680843616908432168CA6841F20C63BF
:103C40009A430243CA6020684169A26921F4407125
:103C5000114341611E492068884202D1FCF798FE59
:103C600001E0FCF785FE00EBC00101EB001260688B
:103C700064218000B2FBF0F3B3FBF1F36FF01806A0
:103C80007343B2FBF0F5B2FBF0F605EB830532238C
:103C900003EB0515B5FBF1F5B6FBF1F605F0F00504
:103CA00005EB0615B2FBF0F6B2FBF0F0B0FBF1F05D
:103CB0006FF01802504306EB800003EB0010B0FBDE
:103CC000F1F0216800F00F002844886070BD00000A
:103CD000003801402DE9F843984617460D46044642
:103CE000089E24E0701C22D0FCF724FDA0EB080005
:103CF000B0421AD8CEB12068C168490717D5802DC7
:103D000015D0402D13D00168C94309070FD40168AD
:103D10000025406800902046FFF759FF08206064A6
:103D200084F840500120BDE8F8830320FBE72068B9
:103D3000006835EA000004D00020B842D2D000204C
:103D4000F1E70120F9E700008CB0282208A16846BD
:103D5000FCF754FA4FF4FA646423272269460E48AC
:103D6000FDF75AF80AAA00212046FDF7FDFEF3E709
:103D700068656C6C6F2075632F4F532120BBB6D3E1
:103D8000ADC0B4B5BD52544F53B6E0C8CECEF1BBB2
:103D9000B7BEB3A3A10D0A00200C0020FEE709075F
:103DA000090E002804DB00F1E02080F800147047C1
:103DB00000F00F0000F1E02080F8141D70470000B3
:103DC00000B58BB0FCF7BCFCFFF7D9FEFDF7AEF8F1
:103DD000FDF7E4F809A8FDF709F9002009A9032275
:103DE00005900690CDE90721102202928021CDE9AD
:103DF0000310084B0420CDE9000306480023064ABF
:103E000006A1C838FDF76CFB09A8FDF7B9FA0BB09D
:103E1000002000BDC8010020690400084170702026
:103E20005461736B205374617274000001020203C9
:103E30000405060708090A0B0C0D0E0F10100000F0
:103E4000000000000000010203040607080900004A
:103E50000000010203040000680C00200C000000B8
:103E600080000000680E00200A000000A80F00205B
:103E70000C00000080000000A8110020800000005D
:103E800064000000A81300200B0000000A000000DE
:103E9000E81900200C000000800000004000000035
:103EA000E80300000A000000E81B00200C000000EE
:103EB0008000000011000B000A000000701E0020AE
:103EC0000C0000008000000011000000EC3E000823
:103ED000000000200001000028010008EC3F00085D
:103EE00000010020D02B0000440100080100000068
:103EF000100000000000000000127A000000000026
:103F000000000000000000000000000000000000B1
:103F100000000000000000000000000000000000A1
:103F20000000000000000000000000000000000091
:103F30000000000000000000000000000000000081
:103F40000000000000000000000000000000000071
:103F50000000000000000000000000000000000061
:103F60000000000000000000000000000000000051
:103F70000000000000000000000000000000000041
:103F80000000000000000000000000000000000031
:103F90000000000000000000000000000000000021
:103FA0000000000000000000000000000000000011
:103FB0000000000000000000000000000000000001
:103FC00000000000000000000000000000000000F1
:103FD00000000000000000000000000000000000E1
:0C3FE000000000000000000000000000D5
:04000005080000ED02
:00000001FF
