:020000040800F2
:10000000400C002089010008BB1300086F10000895
:10001000B9130008F30200083515000800000000BD
:10002000000000000000000000000000BF130008F6
:10003000F502000800000000BD130008C11300080D
:10004000A3010008A3010008A3010008A301000800
:10005000A3010008A3010008A3010008A3010008F0
:10006000A3010008A3010008A3010008A3010008E0
:10007000A3010008A3010008A3010008A3010008D0
:10008000A3010008A3010008A3010008A3010008C0
:10009000A3010008A3010008A3010008A3010008B0
:1000A000A3010008A3010008A3010008A3010008A0
:1000B000A3010008A3010008A3010008A301000890
:1000C000A3010008A3010008A3010008A301000880
:1000D000A3010008A3010008A3010008A301000870
:1000E000A3010008A3010008A301000800F002F822
:1000F00000F03AF80AA090E8000C82448344AAF188
:100100000107DA4501D100F02FF8AFF2090EBAE885
:100110000F0013F0010F18BFFB1A43F0010318473B
:10012000D0690000F0690000103A24BF78C878C197
:10013000FAD8520724BF30C830C144BF04680C60ED
:10014000704700000023002400250026103A28BF35
:1001500078C1FBD8520728BF30C148BF0B60704739
:100160001FB51FBD10B510BD00F08EF81146FFF78A
:10017000F7FF01F06BFF00F0ACF803B4FFF7F2FFFC
:1001800003BC00F0AFF80000094880470948004769
:10019000FEE7FEE7FEE7FEE7FEE7FEE7FEE7FEE737
:1001A000FEE7FEE704480549054A064B7047000094
:1001B0001D140008ED00000840060020400C00203F
:1001C00040080020400800204FF000020429C0F041
:1001D000128010F0030C00F01B80CCF1040CBCF179
:1001E000020F18BF00F8012BA8BF20F8022BA1EBCB
:1001F0000C0100F00DB85FEAC17C24BF00F8012BB0
:1002000000F8012B48BF00F8012B70474FF00002A7
:1002100000B5134694469646203922BFA0E80C50FC
:10022000A0E80C50B1F12001BFF4F7AF090728BFD7
:10023000A0E80C5048BF0CC05DF804EB890028BF53
:1002400040F8042B08BF704748BF20F8022B11F07C
:10025000804F18BF00F8012B7047704770477047F8
:1002600010B500F009F8006810BD10B5044600F0A4
:1002700003F8046010BD000000487047E00500204E
:1002800000487047E00500207546FFF7F9FFAE46CD
:1002900005006946534620F00700854618B020B592
:1002A000FFF780FFBDE820404FF000064FF0000749
:1002B0004FF000084FF0000B21F00701AC46ACE80E
:1002C000C009ACE8C009ACE8C009ACE8C0098D467B
:1002D000704710B50446AFF300802046BDE81040DB
:1002E000FFF74BBF01491820ABBEFEE72600020016
:1002F0007047FEE77047000072B6054D4FF400549A
:100300002146284600F008F9642000F003F8F7E7DA
:100310000010014070B5044600F006F90546601C67
:1003200002D004480078044400F0FEF8401BA042CC
:10033000FAD370BD180000202DE9F84FDFF8B8910E
:10034000002409F1040A0AF1040B23460F270BF1DC
:10035000040EC9E00125A5402A40AA427DD1674E7E
:10036000D1F804C0ACEB0608B44532D014DCBCF1C3
:10037000030F3AD009DCBCF1000F2AD0BCF1010F09
:100380001CD0BCF1020F31D11DE0BCF1110F17D010
:10039000BCF1120F2AD119E0B8F5881F19D006DC7C
:1003A000B8F5803F15D0B8F5801F1FD111E0B8F522
:1003B000001F0ED0B8F5041F18D10AE0CB6815E075
:1003C000CB681B1D12E0CB6808330FE0CB680C3301
:1003D0000CE08B682BB1012B4FF0080303D0456173
:1003E00004E0042302E0056100E00023FF2A01D8B5
:1003F000064601E000F104064FEA840501D9A5F1A3
:100400002005D6F8008007FA05FC28EA0C0803FA54
:1004100005F548EA0508C6F800804D68ED0062D58C
:10042000374DAE6946F00106AE61AD6924F00306B2
:1004300005F001050095334D06EB050CDCF808507E
:10044000A607360F07FA06F825EA0805DFF8B88090
:10045000404503D14FF0000817E044E0DFF8AC80DE
:10046000404502D14FF001080FE0DFF8A48040457D
:1004700002D14FF0020808E0DFF89880404502D131
:100480004FF0030801E04FF0040808FA06F848EAC4
:100490000508CCF808804D68D9F80060ED034D469A
:1004A00001D5164300E096432E604D68DAF80060EF
:1004B000AD03554601D5164300E096432E604D68C6
:1004C000DBF80060ED025D4601D5164300E096437F
:1004D0002E604D68DEF80060AD02754601D516430A
:1004E00000E096432E60641C0D682A46E5407FF4C8
:1004F00031AFBDE8F88F000000040140000011108A
:10050000001002400000014000080140000C0140C2
:100510000010014000140140C26821EA02030A40B1
:1005200043EA02410161704701488068704700005A
:100530001800002070B5040025D094F83D00002577
:1005400020B984F83C50204600F04EF9242084F86D
:100550003D002068016821F0010101602068016808
:1005600041F4004101602068016821F4004101600C
:1005700000F08AFA4D4A6168914201D84C4900E086
:100580004C49884201D2012070BD4B492368B0FB21
:10059000F1F15E6826F03F060E435E6063689342A9
:1005A00006D94FF4967359434FF47A73B1FBF3F1C4
:1005B0002368491C1E6A26F03F06314319626168B0
:1005C000914210D84900401EB0FBF1F2521CC2F318
:1005D0000B02042A01D2042022E0B0FBF1F0401CFF
:1005E000C0F30B001CE0A268F2B301EBC10303EB04
:1005F0000116431EB3FBF6F35B1C43F480431B055B
:1006000049D092B301EBC10202EB0111401EB0FBD5
:10061000F1F0401CC0F30B0040F4804040F4004077
:100620002168CA694CF6FF739A431043C861D4E944
:10063000071001432068026822F0C00211430160E4
:10064000D4E9030101432068826848F2FF339A43EA
:1006500011438160D4E9050108432168CA6822F08A
:10066000FF021043C86001E00EE016E02068016858
:1006700041F0010101602564202084F83D002563DC
:1006800084F83E50002070BD01EB4106431EB3FBD1
:10069000F6F35B1CB3E70120C2E701EB4101401E0A
:1006A000B0FBF1F0401CC0F30B00B7E7A0860100DF
:1006B00080841E0000093D0040420F002DE9F84FE4
:1006C0001F4690468A460446DDF82890FFF72CFF27
:1006D000054694F83D0020287FD119230122404986
:1006E0002046009500F050FD002876D194F83C009B
:1006F000012872D0012084F83C0020680168C907F5
:1007000003D1016841F0010101602068016821F412
:1007100000610160212084F83D00102084F83E0033
:1007200000262664C4F824806785608D20852D48C6
:10073000E0622B464A465146204600F0B1FC90B993
:10074000206841698069009036E02A464946204683
:1007500000F099FD50B1206C042804D12068016894
:1007600041F4007101600120BDE8F88F606A2168E2
:1007700000780861606A401C6062618D491E618575
:10078000218D491E89B2218522685369DB435B07AD
:100790000BD451B100781061606A401C6062608DBA
:1007A000401E6085208D401E20852A4649462046F1
:1007B00000F0C4FC0028CED1208D0028C5D154F80B
:1007C0003D0B016841F400710160202004F81E090E
:1007D000E67766770020C7E7FFE70220C4E700005E
:1007E000020010000000FFFF10B586B0002100914C
:1007F0000191029103910068104988421BD1104C6D
:10080000A06940F00800A061A069694600F00800F6
:1008100004904FF440600090122001900320039058
:100820000848FFF789FDE06940F48000E061E06975
:1008300000F48000049006B010BD00000058004095
:1008400000100240000C0140024881680278114407
:100850008160704718000020074810B5016841F01A
:1008600010010160032000F067F80F2000F006F887
:1008700000F024F8002010BD0020024070B50D4D9E
:1008800004464FF47A712878B1FBF0F00A49096800
:10089000B1FBF0F000F0CEFA48B9102C07D20022DC
:1008A0002146501E00F028F800206C6070BD012029
:1008B00070BD000018000020240000200C4808B57E
:1008C000816941F001018161816901F001010091BB
:1008D000C16941F08051C161C06900F08050009051
:1008E0000448416821F0E06141F00071416008BDB9
:1008F0000010024000000140F0B40E4B1B680C4693
:10090000C3F30223C3F10705042D00D90425191DE3
:10091000072901D2002300E0DB1E012606FA05F1BB
:10092000491E214099409E40761E16403143F0BC3E
:1009300000F015BE0CED00E0064900F00702086863
:100940004FF6FF03184040EA0220034A10430860B4
:10095000704700000CED00E00000FA052DE9F047BB
:100960000F46050061D0434E306800F00700B842E2
:1009700009D2306820F0070038433060306800F05A
:100980000700B84251D128683B4C810712D5400777
:1009900003D5606840F4E06060602878000703D504
:1009A000606840F4605060606068A96820F0F00002
:1009B000084360602878C00728D06868012810D0F4
:1009C0002168022810D0890700292EDA616821F0F9
:1009D000030101436160FFF7A7FD804641F28839BA
:1009E0000DE021688903EFE78901EDE7FFF79CFD42
:1009F000A0EB0801494502D90320BDE8F0876068F3
:100A0000696800F00C00B0EB810FEFD1306800F0A6
:100A10000700B8420BD9306820F007003843306037
:100A2000306800F00700B84201D00120E5E72878DF
:100A3000400705D56068E96820F4E060084360601D
:100A40002878000706D56068296920F4605040EADC
:100A5000C100606000F028F86168084AC1F3031122
:100A6000515CC8400649086006480068FFF706FF69
:100A70000020C2E700200240001002406E41000842
:100A8000240000201C000020044805490068496833
:100A9000044AC1F30221515CC84070472400002081
:100AA000001002407E41000812A185B00FC98DE8F8
:100AB0000F0014A0144A006804905168134801F014
:100AC0000C03042B10D0082B0ED1C1F38343C903B0
:100AD0001DF803000AD5516804AAC1F34041515CD6
:100AE0000A4A5043B0FBF1F005B07047084948434B
:100AF000FAE7000002030405060708090A0B0C0DBB
:100B00000E0F1010010200000010024000127A00C7
:100B100000093D002DE9F84F040070D02078C04D49
:100B2000C00749D06868C0F38100012807D0686811
:100B3000C0F38100022809D16868C00306D528687F
:100B4000800339D560680028E7D035E06068B0F5EB
:100B5000803F0BD010B1B0F5A02F11D0286820F441
:100B600080302860286820F4802002E0286840F463
:100B700080302860606890B1FFF7D6FC06460AE036
:100B8000286840F480202860F0E700BFFFF7CCFC25
:100B9000801B642873D828688003F7D50CE0FFF722
:100BA000C3FC064605E000BFFFF7BEFC801B6428BF
:100BB000F0D828688003F7D420789A4E80074FF049
:100BC00001094FF0000839D5686810F00C0F07D004
:100BD0006868C0F38100022809D16868C00306D4A0
:100BE0002868800714D52069012808D110E0206901
:100BF000B0B1C6F80090FFF797FC074605E00AE1A0
:100C0000FFF792FCC01B0228C4D828688007F7D5DC
:100C10002868616920F0F80040EAC10028600DE012
:100C2000C6F80080FFF780FC074604E0FFF77CFC75
:100C3000C01B022823D828688007F7D42078000733
:100C40002CD57948A169D9B1C0F80090FFF76CFCA8
:100C5000074604E0FFF768FCC01B02280FD8686A4B
:100C60008007F7D571484FF4FA510068B0FBF1F0F6
:100C7000009000BF0098411E0091FAD20EE080E083
:100C8000C0F80080FFF750FC074604E0FFF74CFC7B
:100C9000C01B022875D8686A8007F7D420784007FF
:100CA00060D5E8690027C00008D4E86940F08050AA
:100CB000E861E869012700F0805000905C48016815
:100CC000C90513D40168834641F480710160FFF7C0
:100CD0002BFC824606E000BFFFF726FCA0EB0A00D3
:100CE00064284ED8DBF80000C005F5D5E06801287F
:100CF0000AD008B1052813D0286A20F00100286224
:100D0000286A20F0040002E0286A40F0010028620E
:100D1000E06841F2883B98B1FFF706FC82460BE0A1
:100D2000286A40F004002862EEE700BFFFF7FCFBF2
:100D3000A0EB0A0159455AD8286A8007F6D50CE07D
:100D4000FFF7F2FB824605E0FFF7EEFBA0EB0A019E
:100D500059454CD8286A8007F6D41FB1E86920F0BD
:100D60008050E861E06988B36968C1F381010229B4
:100D700044D00228C6F8608004D0FFF7D5FB0446B3
:100D800038E034E0FFF7D0FB074604E0FFF7CCFB88
:100D9000C01B02282BD828688001F7D4206AB0F540
:100DA000803F05D16868A16820F40030084368607E
:100DB000D4E908010843696821F4741108436860A4
:100DC000C6F86090FFF7B0FB044606E025E000BFE0
:100DD000FFF7AAFB001B022809D828688001F7D575
:100DE0001BE000BFFFF7A0FB001B022802D9032075
:100DF000BDE8F88F28688001F4D40EE00128F7D010
:100E00006868226A00F48031914204D1616A00F47A
:100E10007010884201D00120EAE70020E8E70000D6
:100E200000100240000042428004424224000020A0
:100E30000070004010B5401EB0F1807F01D301204A
:100E400010BD4FF0E02460610F21601700F087FBB8
:100E50000020A06107202061002010BD70B590F82F
:100E60003C20012A26D0012480F83C40022280F850
:100E70003D2003685A689D6822F070060A68324374
:100E80005A600D4B02689A4208D0B2F1804F05D0EB
:100E90000A4B9A4202D00A4B9A4204D1496825F083
:100EA00080031943916080F83D40002180F83C1098
:100EB000084670BD022070BD002C014000040040B7
:100EC0000008004010B5040003D094F83D0010B1B4
:100ED00007E0012010BD002084F83C00204600F00F
:100EE0001FF8022084F83D00211D206800F098FAC8
:100EF000012084F8460084F83E0084F83F0084F81E
:100F0000400084F8410084F8420084F8430084F8EB
:100F1000440084F8450084F83D00002010BD000026
:100F200008B500680649884208D10648816941F43D
:100F300000618161806900F40060009008BD0000DC
:100F4000002C01400010024090F83D10012901D012
:100F500001207047022180F83D1000680B4988424B
:100F600008D0B0F1804F05D00949884202D0094924
:100F7000884204D1816801F00701062903D0016885
:100F800041F001010160002070470000002C014089
:100F9000000400400008004070B5044690F83C0092
:100FA000012817D0012584F83C50022084F83D0028
:100FB0002068826822F0770222F47F42826008680B
:100FC000502830D00DDC20284DD005DC98B31028F7
:100FD0003BD148E0022070BD302844D0402834D1B5
:100FE00039E0602828D0702806D0B0F5805F2CD07A
:100FF000B0F5005F29D10AE0CB68D1E90121206872
:1010000000F044FA2068816841F0770109E0CB687C
:10101000D1E90121206800F039FA2068816841F4A3
:101020008041816011E0CA684968206800F040FA98
:101030005021206807E016E0CA684968206800F07F
:1010400048FA6021206800F02BFA84F83D50002017
:1010500084F83C0070BDCA684968206800F028FA2E
:1010600040212068EFE7226801461046EBE7FEE7E3
:1010700001684A69D24352050FD46FF480624A6115
:10108000002140F8301F202242738173026942F030
:1010900004020261017301207047002070470000C4
:1010A000F8B50446C06A1E460D461746082807D004
:1010B000012805D010F5803F02D0206B122804D102
:1010C0002068016841F480710160134600224FF0EE
:1010D00001112046009600F057F840B120680068E2
:1010E000C00502D54FF4007020640320F8BD2069CC
:1010F000B0F5804F0ED00620216800EAD51040F0F0
:10110000F000086133463A460B49204600F070F87B
:1011100078B902E005F0FE0000E0E8B2216808615D
:10112000054933463A46891F204600F061F80028F9
:10113000DCD00120F8BD00000800010070B51646A3
:101140000D4604460DE02046FFF792FF08B101204E
:1011500070BD681C05D0FFF7E7F9801BA84207D8CF
:1011600035B120684069C0434007ECD4002070BD11
:10117000002044F8300F20216173A073216941F0F1
:10118000200121612073E2E72DE9F0471E469046D9
:101190000D460446C1F30747DDF8209008E0701CB7
:1011A00006D0FFF7C1F9A0EB0900B0420FD876B125
:1011B0002068012F18D0806925EA00000004000C87
:1011C00014D000214145EAD00020BDE8F08700207E
:1011D00044F8300F20216173A073216941F0200190
:1011E000216120730120F0E74069E5E70121E9E78B
:1011F0002DE9F0479A4691460E46044600254FF0E9
:101200002008C1F3074725E020684069C043400536
:1012100014D42068016841F40071016021686FF402
:1012200080604861256384F83D8084F83E50206CDE
:1012300040F00400206484F83C501FE0B9F1FF3F07
:1012400008D0FFF771F9A0EB0A0149450CD8B9F1B4
:10125000000F09D02068012F13D0806926EA000012
:101260000004000C0BD0CFE744F8305F84F80D8009
:10127000A573206940F02000206125730120BDE89E
:10128000F0874069EAE770B516460D4604460DE062
:101290002046FFF7EDFE08B1012070BD681C05D0A7
:1012A000FFF742F9801BA84207D835B12068406992
:1012B000C0430006ECD4002070BD002044F8300F7D
:1012C00020216173A073216941F020012161207305
:1012D000E2E700000D4808B5816941F02001816115
:1012E000816901F020010091816941F0080181616B
:1012F000816901F008010091816941F00401816177
:10130000806900F00400009008BD00000010024059
:101310000D4810B50B4901600C49416000214FF4A4
:1013200080428160C0E9031241618161C161016253
:10133000FFF700F9002803D0BDE81040FEF7DCBF3E
:1013400010BD000000580040C4000020A08601002D
:1013500010B586B0002417480094019402940394B9
:1013600004941349059401604721C0E901144FF624
:10137000FF71C0E9031444618461FFF7A3FD08B164
:10138000FEF7BAFF4FF48050009069460948FFF716
:1013900003FE08B1FEF7B0FF049404A905480594C4
:1013A000FFF75CFD002801D0FEF7A6FF06B010BDD8
:1013B000002C014018010020FEE7FEE7704770474F
:1013C000FFF742BA30B58FB028216846FEF71EFFFE
:1013D00014210AA8FEF71AFF01210804CDE9001024
:1013E0000024029402250491CDE907504FF4E01047
:1013F00009906846FFF78EFB60B90F20CDE90A051A
:101400006802CDE90C4002210AA80E94FFF7A6FA63
:10141000002801D0FEF770FF0FB030BD704700000C
:10142000F0B50268164B174C174D4FF080479842A5
:1014300005D0B84203D0A04201D0A84203D122F087
:1014400070064A683243984205D0B84203D0A042A1
:1014500001D0A84203D122F44074CA6822434C69E7
:1014600022F08002224302608A68C2620A688262B5
:10147000984201D10969016301214161F0BD000079
:10148000002C0140000400400008004010B58468B2
:1014900042EA032224F47F440A432243826010BDBF
:1014A000826822F070020A4342F0070181607047AF
:1014B00010B5036A046A24F001040462846924F00C
:1014C000F00444EA021423F00A020A43846102622F
:1014D00010BD10B5036A23F0100303628369046A28
:1014E00023F4704343EA023224F0A00343EA0111DB
:1014F0008261016210BD00000D4900220B685A6232
:101500000A68136843F00103136009684A6A82425B
:10151000FCD3086A41F21112104207D1086A9210F6
:10152000104203D1086820F00100086070470000F5
:1015300018010020FEE7490050EAC12018BF04202E
:101540004A0D18BF40F0010040F2FF72B2EB515F4C
:1015500008BF40F00200012808BF052070470907B6
:10156000090E002804DB00F1E02080F80014704729
:1015700000F00F0000F1E02080F8141D704700001B
:101580002DE9F74F144694B00021C4E902111599D2
:10159000079121F00045C9498D4206DC1599C4E93F
:1015A000000117B00020BDE8F08FC549DFF814A393
:1015B000A9423CDD0799C44E0029C44FC44A15997D
:1015C000534619DD02F05AFA554506D0C14AC24BBE
:1015D00002F054FAC4E900010AE04FF0D352BE4BC6
:1015E00002F04CFA32463B4602F048FAC4E90001E8
:1015F00017B00120BDE8F08F01F0D4FE554506D0AC
:10160000B44AB54B01F0CEFEC4E900010AE04FF048
:10161000D352B14B01F0C6FE32463B4601F0C2FE4A
:10162000C4E9000117B04FF0FF30BDE8F08FAB49BF
:10163000A942159978DB21F0004183468846A84AE3
:10164000A84B02F011F90022A74B01F0ABFE02F00B
:10165000B1F8099002F0DDF806460F469C4A534661
:1016600002F002F943465A4602F0FCF980468A46E7
:10167000984A994B3046394602F0F6F82A0D012572
:101680000B924246534602F0EDF9032DC4E90001E6
:1016900039D00B98C1F30A51401A05EB45111139A5
:1016A000814230DA9148C346784400EB0510CDF80A
:1016B0000CA00C90D0E900233046394602F0D4F853
:1016C00002460B46049106905846039902F0D6F95B
:1016D00080468A4602460B465846039902F0CEF9E8
:1016E000049B069A02F0CAF983460C980391394686
:1016F000D0E90223304602F0B7F85A46039B02F0C5
:10170000BDF96D1CBDE707980028A2BF099817B066
:10171000BDE8F08F616881F000416160099817B001
:101720004042BDE8F08FFFE784461598C1F31301EE
:10173000C0F30A50A0F2F5304FEA601800F01F061F
:10174000C6F12000139000200690079041F4801EFF
:1017500005206D4676B1664A08EB00017A4452F8DE
:10176000213002EB8101B3404A68139922FA01F15A
:10177000194305E05F4908EB0002794451F8221053
:10178000A1FB0E27A1FB0C131A449A4234BF01237C
:10179000002303EB070A05EB8003D3E901B70F44ED
:1017A0008F4234BF0121002193448B4411B19345F2
:1017B00002D903E0934501D2012100E00021C3E9F1
:1017C00001B7514445F82010011EA0F10100C1DC11
:1017D0000298059F00F10050800F12900298DDE9F9
:1017E0000356800002F015F8834628460D9102F05A
:1017F00027F86FF01D0202F074FCCDE90E013046AF
:1018000002F01EF86FF03D0202F06BFC80468A4643
:10181000384602F015F86FF05D0202F062FC0746F0
:1018200042465346119101F0BDFDDDE90E2301F062
:10183000B9FD5A460D9B01F0B5FD00250E465A46EE
:1018400028460D9B02F01AF9DDE90E2302F016F985
:101850004246534602F012F93A46119B02F002F951
:10186000DFF898A0244A534601F0FEFF0746884659
:10187000234A244B3146284601F0F6FF3A464346B8
:1018800001F090FD074688464FF0A8425346314686
:10189000284601F0E9FF3A46434601F083FD159AD8
:1018A00012F0004F04D0129A81F00041524212927D
:1018B000C4E90001129817B0BDE8F08FFB21E93FA1
:1018C0007CD90240FB21F93F7370032E8A19A33B98
:1018D000000040543163621A61B4D03DFB213941AC
:1018E00083C8C96D305FE43F0000E03F54530000FF
:1018F000D0520000B2520000182D4454FB21F93D93
:101900003326A611460B113C2DE9FF4D21F000486E
:1019100007460C46B8F1795F08DA01F04BFF002862
:1019200001BF0020324904B0BDE8F08D3A4623469D
:101930001046194601F098FF054602462D480E460E
:101940000B460621784400F05DF82A46334601F044
:101950008BFFDDE9022382468B463846214601F0A3
:1019600083FF04460F4652465B462846314601F047
:101970007BFF22463B4602F081F807468A464FF03D
:10198000FF322846314602F0ACFB1B4A90450ADA8A
:101990003A46534602F072F804B00022BDE8F04D1A
:1019A000134B02F05FB8154A4245A8BFA8F50015D1
:1019B0004FF00004B8BF124D22462B4602F05EF8ED
:1019C0000646884622462B460020094902F056F872
:1019D00004460D463A4653463046414602F04EF81C
:1019E00004B022462B46BDE8F04D02F03BB80000A3
:1019F0000000F03F885000003333D33F0000E93F40
:101A00000000D23F2DE9F0414F1E00EBC701044614
:101A1000D1E9000115461E4637F006020DD02A46D0
:101A2000334601F021FF7F1E04EBC703D3E90023F7
:101A300001F0B8FC37F00602F1D1022F25D0042FB7
:101A400013D0062F18BFBDE8F0812A46334601F0B7
:101A50000BFFD4E90A2301F0A5FC2A46334601F026
:101A600003FFD4E9082301F09DFC2A46334601F028
:101A7000FBFED4E9062301F095FC2A46334601F02B
:101A8000F3FED4E9042301F08DFC2A46334601F02D
:101A9000EBFED4E9022301F085FC2A46334601F02F
:101AA000E3FED4E90023BDE8F04101F07BBC000077
:101AB0002DE9FF4D054621F0004084B00C46B0F101
:101AC000795F0BDA2846FFF736FD042808BF00F0DF
:101AD0006FF8284608B02146BDE8F08D2A460B462F
:101AE000104601F0C1FE06460F462A46234601F085
:101AF000BBFE804626488A4632463B46052178444E
:101B0000FFF780FF83461098029160B3214A224B71
:101B10004046514601F0A8FECDE900015A46404634
:101B20005146029B01F0A0FE82468846DDE906018F
:101B30004FF0FF3202F0D5FA5246434601F09EFFC5
:101B400032463B4601F090FEDDE9062301F096FFA8
:101B5000DDE9002301F092FF08B02A462346BDE8E4
:101B6000F04D01F07FBF0B465A463046394601F032
:101B70007BFE084A084B01F015FC4246534601F033
:101B800073FE08B02A462346BDE8F04D01F00ABCBA
:101B9000C64F0000495555555555C5BF012202F0A5
:101BA000A0BA002213461046114601F0ABBC00005B
:101BB000024A0020110702F094BA000001FDFFFF65
:101BC00000B5244B21F0004287B09A42DCBF0022CE
:101BD000134629DD204B9A4208D140B94FF001004D
:101BE000FEF743FBFFF7DDFF07B000BD03DBFFF7A8
:101BF000D5FF07B000BD02AAFFF7C2FC10F0030139
:101C000004BF0DF1080C9CE80F000DD00120012944
:101C10000ED0022914D00DF1080C00909CE80F00A2
:101C2000FFF746FF07B000BDFFF76EFE07B000BD2F
:101C30000DF1080C00909CE80F00FFF739FF05E05C
:101C40000DF1080C9CE80F00FFF75EFE07B081F075
:101C5000004100BDFB21E93F0000F07F10B5FEF719
:101C600063FC224CE168401A40F6B83188420AD938
:101C7000FEF75AFCE06060790321401CB0FBF1F2F2
:101C800001FB120060711A4800F0ACFA607920B1D3
:101C900001280CD0022818D11CE06178144800F00B
:101CA00039F91449124800F056FC13A308E0617892
:101CB0000F4800F0FDF80F490D4800F04CFC11A34F
:101CC0003C2228210A4800F017FCBDE810400848D3
:101CD00000F038BC6178064800F0AAF805490448CD
:101CE00000F039FC3C220AA32D21EBE70000002084
:101CF0003000002086410008526F746174696E677D
:101D000000000000426F756E63696E67000000009E
:101D1000536D696C6579000070B51E4800F062FA79
:101D20001D4C00251D49E07800281A481DD000F000
:101D300012FCA0781AA3503881B21E22154800F078
:101D4000DBFBA078801CC0B2A070962804D9E57097
:101D5000A5702079401C20712079022800D32571BC
:101D6000BDE870400B4800F0EDBB00F0F4FBA0783C
:101D70000EA3C0F1800081B21E22064800F0BCFB19
:101D8000A078801CC0B2A0709628E5D90120E07030
:101D9000DEE700003000002000000020F9580008B5
:101DA00048656C6C6F204F4C45442100536C69644E
:101DB000696E6720546578740000000008B5124809
:101DC00000F010FA1149104800F0C5FB10A31422CE
:101DD00011210D4800F090FB11490B4800F0BBFBAE
:101DE00010A328220D21084800F086FB1920024686
:101DF000009076230A21044800F010FBBDE808405B
:101E0000014800F09FBB0000300000205C4B000840
:101E10003633323330373033303430330000000063
:101E2000F95800087A68656E676A696162616F00D7
:101E3000F8B50F250C4606462B4619224021009581
:101E400000F0D9F91420B4FBF0F0C0074FF01604ED
:101E50001FD03D23372122463046009400F0DEFAA1
:101E60004323492122463046009400F0D7FA01204E
:101E70001E240090402108232246304600F0DBF962
:101E800002200090402108232246304600F0D3F97A
:101E9000F8BD3A21032322463046009500F0CBF9E5
:101EA0004621032322463046009500F0C4F9DEE7C0
:101EB00038B504466020B1FBF0F200FB1210144963
:101EC0002030D1E904231A440A61921D282A03DD37
:101ED00022220A615A424A610A69921F0A2A04DAD6
:101EE00010220A614A6952424A610F220092098A0D
:101EF00006238AB281B2204600F09DF92820009086
:101F0000582305221421204600F0B5F938BD000001
:101F1000000000202DE9F34F83B0084601F05AFF7E
:101F2000474901F06BFF01F093FE0E460446FFF7B0
:101F300047FE01F037FF05462046314600F0E8F83D
:101F400001F030FF3F4E81460146304601F056FF1A
:101F5000044600902946304601F050FF8346214652
:101F600002F018F801F002FF00F14008594600980D
:101F700001F09AFE01F0FAFEDFF8CCA000F119049E
:101F8000019050462946009E01F038FF0546314633
:101F900002F000F801F0EAFE00F140075E4650460C
:101FA000494601F02BFF8246314601F07DFE01F0EB
:101FB000DDFE00F119092846009901F075FE01F0D7
:101FC000D5FE00F140065946504601F0E3FF01F00E
:101FD000CDFE00F1190A0198594600F1400500981C
:101FE00001F0D8FF01F0C2FE00F1190B1FFA89F0D1
:101FF00001900090BBB2A2B21FFA88F1039800F0E2
:102000000DFA1FFA8AF9B3B2B9B2CDF80090019A6D
:10201000039800F003FA1FFA8BF7ABB2B1B24A464D
:102020000097039800F0FAF9A0B200901FFA88F325
:10203000A9B23A46039800F0F1F905B0BDE8F08F77
:10204000CDCCCC3D00004041000040C1FEF704FC77
:10205000FFF7B8F9FFF73EF9FFF75AF9FFF778F9FC
:10206000244800F0A5F82448FEF76EFF214800F050
:10207000B9F822491F4800F06EFA21A31E220A2156
:102080001C4800F039FA1B4800F05CFA4FF47A70F3
:10209000FEF740F903261D4C4FF4FA67002500BFF8
:1020A000FEF742FAA168411AB94208D9A060207827
:1020B000401CB0FBF6F106FB110020706570207823
:1020C00020B1012805D0022808D105E0FFF776FEEF
:1020D00004E0FFF721FE01E0FFF7C0FD6078401C3F
:1020E000C0B26070642800D965703220FEF712F922
:1020F000D6E700003000002018010020F958000841
:102100004F4C454420526561647921000000002055
:1021100000B5254B21F0004287B09A4203DC002233
:10212000134600922BE0214B9A4208D140B94FF060
:102130000100FEF79AF8FFF734FD07B000BD03DB9E
:10214000FFF72CFD07B000BD02AAFFF719FA10F047
:1021500003014FF001000DD0012914D002291AD03B
:102160000DF1080C9CE80F00FFF7CEFB07B081F0E3
:10217000004100BD0DF1080C00909CE80F00FFF736
:1021800097FC07B000BD0DF1080C9CE80F00FFF7AD
:10219000BBFB07B000BD0DF1080C00909CE80F00E0
:1021A000FFF786FCE2E70000FB21E93F0000F07F3B
:1021B00010B50446084B094A094900F013FA2046B5
:1021C00000F08DFE0021204600F099FE2046BDE87B
:1021D000104000F007B80000F9320008A12F0008F5
:1021E0006C68000801680A7C90F83810406B514315
:1021F000C900FDF7E9BF2DE9F8431C4680461019D8
:10220000401C80B200900819401C83B21546101B78
:1022100082B20E46081B81B2089F404600F07AF950
:10222000002806D023462A4631464046009700F053
:102230008FFABDE8F8832DE9F8431C468046101953
:10224000401C80B200900819401C83B21546101B38
:1022500082B20E46081B81B2089F404600F05AF930
:10226000002806D023462A4631464046009700F013
:1022700001FBBDE8F8832DE9F84F83460A9E9A4694
:10228000901980B201EB0A04009015460F46A3B2E4
:10229000584600F03FF900282FD04FF00009534670
:1022A0002A4639465846CDF8009000F061F8022ED3
:1022B00023D3B61E360405F10105360CADB214D099
:1022C0004FF0010833462A4639465846CDF800807B
:1022D00000F04EF8641EA1B233462A465846CDF8A7
:1022E000008000F045F8A81985B253462A463946C1
:1022F0005846CDF8009000F03BF8BDE8F88F2DE986
:10230000F041044690F870001F4615460E4630B165
:10231000012809D002280CD0032815D10FE0E16D67
:1023200020468847284408E0E16D20468847301A57
:1023300009E0E16D20468847281A85B204E0E16D86
:1023400020468847304486B22846A4F86460A4F842
:10235000660039460025204600F068FC010003D0E5
:10236000204600F093FB85B22846BDE8F0810000CE
:102370003FB581B0044690F88C00089900283AD007
:10238000BDF81000002836D0012811D9022902D04A
:10239000032907D00CE0BDF80820101A401CADF846
:1023A000080005E0BDF80C20101A401CADF80C0028
:1023B00011F0010521D0B4F84810BDF808008142A1
:1023C00019D8B4F84A10814215D9B4F84E30B4F88F
:1023D0004C2004A90DF10C0000F09CF900280AD053
:1023E0000095206BBDF81030BDF80C208568BDF855
:1023F00008102046A84705B030BDB4F84C10BDF811
:102400000C008142F7D8B4F84E108142F3D9B4F8E9
:102410004A30B4F8482004A902A8DDE72DE9FF5F9F
:102420001C460E984FF00008A14201D90B1B00E09A
:10243000631A9DB2824201D9131A00E0831A9BB23B
:10244000AB420AD92E461D4633460E461146324649
:10245000264604464FF001083046A14205D90E46F3
:10246000214634461646024630466E08904201D94F
:10247000012001E04FF0FF308146A4F57F409246F5
:10248000FF3801D1641EA4B20F4603F0FF0B14E025
:10249000B8F1000F15D03A465146009800F014F8F4
:1024A000A6EB0B0006B2002E05DA0AEB09001FFAB4
:1024B00080FA701906B27F1CBFB2A742E8D9BDE806
:1024C000FF9F52463946E8E708B5B0F84C309342D2
:1024D00010D8B0F84E3093420CD9B0F848308B4247
:1024E00008D8B0F84A308B4204D900230093012366
:1024F000FFF73EFF08BD000030B4024C446030BC22
:1025000000F062BA652F000838B501240094FFF787
:102510002FFF38BD70B50D461E460446B0F84E106C
:10252000B0F84C00049B00F0DEFB002809D0B4F8A2
:102530004A10B4F8480033462A46BDE8704000F01F
:10254000D2BB70BD10B5044600F05DFC2046BDE86E
:10255000104000F0CCBC10B50446806D884209D014
:1025600004F17400A16500F019FC2046BDE810409C
:1025700000F054B810BD00000149C165704700006B
:102580003F2A00080021A0F85010A0F854104FF680
:10259000FF71A0F85210A0F85610016B4968084767
:1025A00070B5044600250498A565E362616384F86C
:1025B000382084F8395084F86D5084F89150012106
:1025C00084F8921084F893102063016820468847AD
:1025D0002046FFF7D7FF2046FFF7CEFF84F8705064
:1025E00070BD00007CB50C46009313460546084AB2
:1025F000084900F08CFC01A800F0CAFB0146064B1C
:1026000000949DF804202846FFF7CAFF7CBD000017
:10261000C9300008F1310008012D000810B5816DA6
:1026200000291AD090F9813080F88E3090F98220FC
:1026300080F88F2090F88D1000290ED001290DD040
:1026400090F97E4090F980100C449C4201DD80F8A6
:102650008E408A4201DD80F88F1010BD90F9831002
:102660008B4201DA80F88E1090F98410F1E72BB1DB
:10267000012B05D0022B06D0104402E0084400E0F4
:10268000801A80B27047401AFBE72BB1012B05D0AE
:10269000022B06D0401A02E0104400E0084480B249
:1026A0007047801AFBE738B50446B0F85600009032
:1026B000B4F85230B4F85420B4F850102046FFF764
:1026C00029FF18B3012084F88C00B4F84810B4F83E
:1026D0005000814201D2A4F84800B4F84A10B4F87E
:1026E0005200814201D9A4F84A00B4F84C10B4F861
:1026F0005400814201D2A4F84C00B4F84E10B4F852
:102700005600814201D9A4F84E0038BD002084F85B
:102710008C0038BD30B504880D882544ADB2AC427C
:1027200005D99C4202D25D1EADB200E014469C4227
:1027300001D2954201D8002030BD944200D2144607
:102740009D4200D91D460480281B0880012030BD11
:102750002DE9FF4FC3F1010083B006B25842914604
:10276000DDF840A040008B4601271C46CDE9009AC9
:1027700000250FFA80F85B462246294615E0002E18
:1027800008DB08F102000FFA80F8641E06EB08006F
:10279000A4B206B26D1CBF1C3FB2CDE9009AADB227
:1027A000F01906B25B4622462946039800F005F868
:1027B000A542E4D307B0BDE8F08F2DE9FF4F83B009
:1027C0000E46DDE9108703EB060002901546A8EBE4
:1027D0000600019003EB05001C46F907A8EB050B6A
:1027E00000900DD002981FFA8BF281B20398FFF788
:1027F0006BFE019882B2009881B20398FFF764FEE5
:10280000B907A4EB060AA4EB05090DD51FFA8BF254
:102810001FFA8AF10398FFF757FE01981FFA89F112
:1028200082B20398FFF750FE08EB0504390708EB66
:1028300006050BD50298A2B281B20398FFF744FEB9
:102840000098AAB281B20398FFF73EFE78070ED532
:10285000A2B21FFA8AF10398FFF736FE039807B079
:10286000AAB21FFA89F1BDE8F04FFFF72DBE07B0FD
:10287000BDE8F08F2DE9FF4FC3F1010083B006B230
:1028800058429146DDF840A040008B4601271C4687
:10289000CDE9009A00250FFA80F85B4622462946CA
:1028A00015E0002E08DB08F102000FFA80F8641E24
:1028B00006EB0800A4B206B26D1CBF1C3FB2CDE906
:1028C000009AADB2F01906B25B462246294603983B
:1028D00000F005F8A542E4D307B0BDE8F08F2DE97C
:1028E000FF4F83B0164610980F46A0EB060B03EB84
:1028F000070001901098DDF84490A0EB070098467F
:102900005FEAC97103EB060A02F1010507F1010450
:1029100000900FD00198ABB281B21FFA8BF20398EE
:10292000FFF7F2FD0098A3B282B21FFA8AF1039872
:10293000FFF7EAFD5FEA8971A8EB0707A8EB060637
:102940000DD5ABB21FFA8BF2B9B20398FFF7DCFDDD
:102950000098A3B282B2B1B20398FFF7D5FD5FEA47
:1029600009700DD50198ABB281B2109A0398FFF7A8
:10297000CBFDA3B21FFA8AF1109A0398FFF7C4FDAA
:102980005FEA49700ED5ABB2B9B2109A0398FFF75F
:10299000BBFD109A039807B0A3B2B1B2BDE8F04FE7
:1029A000FFF7B2BD07B0BDE8F08F38B5C58F049C06
:1029B0000094521BC46A92B2A04738BD38B5049C3B
:1029C0000094FFF7F2FF38BD2DE9F0471C46914611
:1029D0008846064600F0E1FC00254FF6FF77726856
:1029E0002178304690470346B84225D0641CA3F5B1
:1029F0007F40FE38F3D04A4641463046FFF77FFC21
:102A000096F8701031B1012907D0022908D00329A6
:102A10000FD10AE008EB000104E009EB000106E039
:102A2000A8EB00011FFA81F803E0A9EB00011FFAEF
:102A300081F9284485B2D2E72846BDE8F087002016
:102A4000704710B50C4600F006F80122641EA24043
:102A5000801A40B210BD30B50568047B2A78E24088
:102A60006318DBB2082B09D36D1C05602D78C4F107
:102A70000804A5401543083BEAB2DBB201248C40B0
:102A8000641E14400373204630BD00002DE9F84356
:102A9000054600F1600400F00CF915F96B6F204653
:102AA000E97BFFF7CEFF8146297C2046FFF7C9FF6F
:102AB0000746697C20466B3DFFF7C3FF804694F9CB
:102AC0000A00002857DDF019404247B2237CA08855
:102AD0003A464946FFF7CBFDA080237C3A46E08882
:102AE0004946FFF7D2FDE080A188277C02460B46CD
:102AF00037B1012F0AD0022F40D0032F0FD146E06B
:102B000094F90A7030443B449BB207E0891B491C8E
:102B100094F90A705B1C89B29BB2384480B2009071
:102B20002846FFF7F7FC30B30020207284F8090034
:102B300095F876102046FFF78EFF814695F87710BE
:102B40002046FFF788FF074600224946284600F046
:102B500027F801223946284600F022F801212046B4
:102B6000FFF779FF0028EFD194F90900B042DFDBCD
:102B7000A07B85F892004046BDE8F88394F90A707E
:102B80005B1CC91B491C89B29BB2921B04E094F9DF
:102B90000A7033449BB2D21B521C92B2401CBDE758
:102BA0002DE9F74F84B00D46049C94F8687094F8B2
:102BB00069806034A07AC01BC6B20196B54200D2CB
:102BC00001954FFA88F279B2A088B4F806B0237C58
:102BD00092468946FFF74BFD0290237C52464946B8
:102BE0005846FFF752FD0246069808B1A17B02E065
:102BF000607B50B9E17B049880F89210207C0090B3
:102C0000DDE901310498FFF7B3FBB54207D3A81BF8
:102C1000C5B208F10100002700F0FF08CAE77819E3
:102C2000207284F8098007B0BDE8F08F70B50D46BA
:102C30000146806D1730FF2D10D8612D02D3B1F8F9
:102C4000881003E0412D02D3B1F886100844417882
:102C500019B30278AA42F9D1801C70BDB1F88A106C
:102C60000C1826460021304600F019F804440221D1
:102C7000304600F014F8361DA842F3D34FF6FF7229
:102C8000207802EA00216078084306D0A84201D1EA
:102C9000E01C70BDA0780444F2E7002070BD084439
:102CA0004FF6FF720178407802EA0121084480B2B1
:102CB000704730B5054600F16004016600202073BE
:102CC00015F8781F2046FFF7C6FEA07269782046E7
:102CD000FFF7C1FEE072A87EA07310B10020E07380
:102CE00030BD0120FBE78A4205D2834201D89A42D7
:102CF00003D9012070478342F9D8002070470000B3
:102D0000F0B502F007060124B440002590F892E0E7
:102D1000E7B2DDF814C02C46BEF1010F01D83D46E4
:102D200000D03C46076822F00702BCF1000F3F7C50
:102D300007FB02F7BAB2476B3A44114409D108784D
:102D40005B1E284360401B0401F8010B1B0CF6D1ED
:102D5000F0BD0A78761C2A436240A3F101030A7091
:102D600016F007069BB206D06A06150E6206140E10
:102D7000002BEED1F0BD428F114490F89220012A31
:102D800003D800BF4FF00105F2D04FF00104EFE788
:102D90000821017000487047E001002070B5054629
:102DA00008782870487868708878A870C878E870C3
:102DB000087928714879687188790C46A871E0799A
:102DC000E871207A2872607A6872A07AA872E07A34
:102DD000E872207B2873607B6873A07BA873E07B1C
:102DE000E873207C287411212046FFF758FF688281
:102DF00013212046FFF753FFA88215212046FFF735
:102E00004EFFE88270BD2DE9F843064690F8387011
:102E100090F83950006800244FF6FF7890F8119030
:102E2000316830462A460B7C716B04FB03FC1FFAA9
:102E30008CFC08EACC0C61440091002100F040F8C1
:102E4000641C6D1CE4B2EDB2BC4201D24D45E7D327
:102E5000BDE8F883F0B590F838204FF6FF750368A9
:102E600005EAC2018187197C05EAC101418790F812
:102E7000394005EAC401C1875E7CA718B74201D971
:102E8000321B92B205EAC20220F8401F1144418071
:102E9000998A8180D98AC180F0BDFFF7DBBF00210C
:102EA000A0F84810B0F84410A0F84A10B0F840104C
:102EB000A0F84C10B0F84210A0F84E10FFF7F3BB8A
:102EC0001CB58DF805108DF80620049C8DF8043093
:102ED0000094012284686B460F21A0471CBD30B4CA
:102EE00084680023A44630BC1A460A21604730B4E7
:102EF00084680023A44630BC1A461021604730B4D1
:102F000084680023A4460A4630BC0B2160472DE9A3
:102F1000F04115460E460446069F00F009F8676129
:102F2000A660C4E903532046BDE8F04100F012B8A2
:102F3000002140F8081B064A026042608260C260BD
:102F4000C17681770161FF21017780F820107047F9
:102F5000F532000830B484680023A44630BC1A4619
:102F600009216047080001D00A2801D14FF6FF70FF
:102F7000704730B404690023A44630BC1A461921B6
:102F8000604713B50122046901AB1721A0471CBD9E
:102F900030B404690023A44630BC1A4618216047A7
:102FA00038B5184818290DD004DC142907D0172982
:102FB00023D10AE0192916D020291ED11FE0FEF7DF
:102FC000A7F91CE00021017019E00F4C08E000BFD8
:102FD000017813F8015B6554491C521E0170D2B28E
:102FE000002AF5D10BE04FF47A7100910378064A7C
:102FF00078210648FDF762FB08B1002038BD0120AA
:1030000038BD00002800002060010020C40000201E
:1030100030B4C4680023A44630BC1A461921604766
:1030200030B4C4680023A4460A4630BC1621604769
:1030300030B4C4680023A4460A4630BC152160475A
:1030400030B4C4681346A4460A4630BC1721604712
:10305000F8B50C464FEA000514F8011B182924D0D6
:103060000EDC152919D0162917D0172923D120785D
:103070008DF800006A4601212846FFF7E1FF0AE0CB
:10308000192912D0FE2916D122788DF80020292185
:10309000284600F066F9641CDEE722788DF80020EF
:1030A000EE6800232846B047F5E70023EE681A468D
:1030B0002846B047D0E7F8BD30B4C4680023A44622
:1030C00030BC1A46182160472DE9F041DFF8B08086
:1030D00014460646A1F11402002798F800001D4688
:1030E000062A4AD2DFE802F02F03161B3E4310B136
:1030F0003046FFF73EFF3046FFF74AFF00213046DB
:10310000FFF73FFF21463046FFF73BFF012088F8DD
:10311000000029E021463046FFF733FF24E050B19C
:103120003046FFF726FF06E01821304600F01FF971
:10313000183CE4B21835182C2A46F5D821463046FA
:1031400000F015F90EE096F82400FF2802D178204F
:1031500086F8240037692B4622463046BC46BDE837
:10316000F041604788F800700120BDE8F081002838
:10317000F8D03046FFF7FDFEF4E70020F5E7000049
:103180002900002070B50023456904461A4628210D
:10319000A8470023E5681A4614212046A8470122C3
:1031A0004B21204600F0DDF82068292102792046D5
:1031B00000F0D7F800224B21204600F0D2F820681A
:1031C00029210279204600F0CCF801224B2120462B
:1031D00000F0C7F82068292142792046BDE87040F8
:1031E00000F0BFB80160897C80F8221070470000B1
:1031F00070B50C46054600F019F888B9092C0BD0BB
:103200000A2C01D0002070BD2846FFF7BBFF0549FE
:103210002846FFF71DFF03E003492846FFF7E2FFBA
:10322000012070BD9E680008A06900082DE9F041EA
:103230001E46144605460B2908D00D290ED00E292E
:103240001ED00F2927D00020BDE8F0811AB12849EF
:10325000FFF7FEFE4AE02649491FF9E74AB1244933
:103260000C31FFF7F5FE286890F8130085F822006E
:103270003CE01F49491DFFF7EBFE2868807CF5E71D
:10328000FFF71AFF81212846FFF7D2FE2146284684
:10329000FFF7C6FE27E0FFF70FFF707995F82210C1
:1032A00001EBC000C7B240212846FFF7C1FE102045
:1032B00040EA17112846FFF7BBFE07F00F0128462A
:1032C000FFF7AEFEB07940F0B0012846FFF7A8FE48
:1032D00030793268C006010E2846FFF7B1FE641E41
:1032E00014F0FF04F4D12846FFF792FE0120ABE76B
:1032F0007D6800080020704710B54D2919D00CDCFE
:103300002B2918D004DC292920D02A290ED114E039
:103310002D291FD04C2909D10BE0002250291DD0A6
:1033200051291BD0522919D0532917D0012180F8D7
:103330002710012010BD00BFFBE700204FF4A07153
:1033400000BF401C80B28842FAD3F2E70120FCF7AC
:10335000E1FFEEE70520FEF7CFF8EAE780F8272047
:10336000E7E730B444690023A44630BC60472DE948
:10337000F04115460E460446FFF70AFE402120465E
:10338000FFF7FFFD27692B46324617212046B84735
:103390002046BDE8F041FFF7ECBD002180F8261083
:1033A0007047000010B591EA030F48BF83F0004357
:1033B00000F16C83841A71EB030C05D2121943EBF4
:1033C0000C03001B61EB0C01DFF824E14FEA115400
:1033D000A4EB135C1EEA430F18BF9EEA445F73D050
:1033E00023EA0E03DCF1200E21EA045143F480139A
:1033F00032D322FA0CFE10EB0E0023FA0CFE41EB46
:103400000E01CCF1200E03FA0EFE10EB0E0051F16E
:103410000001B1F5801FCCF1200E32D201EB045136
:1034200012FA0EF2BDE8104058BF7047401C38BF7A
:103430005FEA420218BF7047002814BF20F0010065
:1034400041F100014FEA410313F5001F38BF7047F7
:10345000A1F1C04100F000BB012A43EB0302ACF133
:10346000200CDCF11F0E32BF4FF0000E23FA0CF3DC
:1034700010EB030041EB0451B4EB115FD0D0A1EB92
:10348000045101F5801149085FEA300001EB045155
:103490000ED350F1000038BF12FA0EFE08D1BDE87D
:1034A0001040C9E7401C38BF5FEA4202CAD1C3E7F7
:1034B000BDE810404FEA410313F5001F38BF7047C5
:1034C000A1F1C04100F0C8BA9EEA445F08D011EAF9
:1034D0005E0FBDE8104004BF01F0004100207047BE
:1034E000BDE8104070B500F069FA00BF64FBBE3E55
:1034F0000000E0FF02494FF0000000F0C0BD00BF37
:103500000000F87F2DE9C04130B4DFF8A0C23CEAEA
:10351000111418BF3CEA131400F0EC8081EA030593
:103520001CEA111444EAD57418BF1CEA131500F004
:10353000C780A4EB05044FF0004545EAC12145EAE8
:10354000C32341EA505143EA525304F17F74994234
:1035500004F500344FEAC0204FEAC22208BF90426F
:1035600000F09C804FEA13650FF24016765D4FEA3B
:10357000134506FB05F7C7F1807706FB07F74FEA0F
:10358000D737A7FB03687642C8F58038A7FB06CE7D
:1035900038BFA8F1010807FB08E64FF0000EA6FBB4
:1035A000028CE6FB03CEDCF1000CCEF1004E38BFFE
:1035B000AEF1010EA6FB0C584FF000074FF00005CE
:1035C000E6FB0E87A1FB08C6A0FB07CE16EB0E0696
:1035D00045F10005E1FB076515F1E04E7EBFA4F55E
:1035E00080345FEA46066D4116F1800745F100051B
:1035F0004FEA17274FEA066647EA0567A6F1DE4657
:10360000B6F1805F4FEA15251FD9384624F0010C2A
:1036100005EBC471BCF1FE6F01EB0C1102D8F0BCDC
:10362000BDE8008124425CBF01F5801E9EEAC47F94
:1036300002D4F0BCBDE80081244238D4F0BCA1F132
:10364000C041BDE8004100F007BA4FEAD22242EA89
:1036500043524FEAD323A7FB02864FEAD02040EA29
:10366000415007FB03661EEA0E0F4FEAD12105FB0E
:10367000026658BFA6EB0056B6EB00564FEA520E54
:103680004EEAC37E18EB0E0E56EB530EBDD518EB6B
:1036900002085E417F1C55F10005B6E74FF4801526
:1036A0004FF000074FF000064FF00008ADE7F0BC08
:1036B0004FF0000001F1C04101F00041BDE8008180
:1036C00011EA0C1F0CEA131500D00CE013EA0C1FD2
:1036D00000F025804FF00000F0BC81EA030101F00A
:1036E0000041BDE80081F0BCBDE8004181EA030172
:1036F00000F0B2B9F0BCBDE8004170B500F05EF971
:10370000097EFC3E00F007B881EA03014FF000009B
:1037100001F00041704781EA030100F09DB9F0BC5F
:10372000BDE800414FF0000021497047FFFDFBF963
:10373000F7F5F4F2F0EEEDEBE9E8E6E4E3E1E0DEE4
:10374000DDDBDAD8D7D5D4D3D1D0CFCDCCCBCAC856
:10375000C7C6C5C4C2C1C0BFBEBDBCBBBAB9B8B77D
:10376000B6B5B4B3B2B1B0AFAEADACABAAA9A8A870
:10377000A7A6A5A4A3A3A2A1A09F9F9E9D9C9C9B3E
:103780009A999998979796959594939392919190E9
:103790008F8F8E8E8D8C8C8B8B8A8989888887877A
:1037A0008685858484838382828181800000FF07EF
:1037B0000000F87F4FEA41034FEA5353A3F58063BB
:1037C000D3F11E03C8BFD3F1210C0CDD4FF0004232
:1037D00042EAC12242EA505232FA03FC8CEAE17C0E
:1037E000ACEBE1707047102BC4BF0020704703F5AD
:1037F000787CBCF1FF3F04D06FF0004282EA2100E8
:10380000704770B500F0DAF84992248000207047C4
:10381000F2E710F0004248BF4042B0FA80F310FADD
:1038200003F10AD0C3F11D0303F580634FEA415051
:1038300002EB035202EBD12170474FF000007047BA
:10384000B0FA80F310FA03F10AD0C3F11D0303F5B7
:1038500080634FEA41504FEA035202EBD121704797
:103860004FF0000070470000DFF848C170B51CEA57
:10387000111E1EBF1CEA13159EEA0C0F95EA0C0FD1
:1038800000F06F8081EA030423EA4C134EEAD47EF1
:1038900021EA4C1141F4801143F48013AE44A1FBA2
:1038A000024CA0FB0365AEF17F7E361955EB0C058B
:1038B000A1FB034C4CF10003A0FB021C16EB0C0611
:1038C000654153F10003094218BF46F0010613F4A5
:1038D000007F0BD14FEA03314FEA0530340341EA50
:1038E000155140EA16506FF003020AE04FEAC32177
:1038F0004FEAC520F40241EA555140EA56506FF0B4
:10390000020202EB2E4201EB025585EACE710AD08B
:103910005FEA440C18BF24F0004450F1000041F16C
:10392000000120EAD47040F2FE7C624500D270BDF6
:10393000A84214BF4FF080444FF04044002E08BF0F
:103940000024BEF1806FA8BFA1F1C041BDE8704066
:1039500080F282804FF0000001F1C04101F000418F
:1039600070479EEA0C0F0CEA131518BF95EA0C0F6E
:1039700006D04FF0000081EA030E0EF0004170BD4A
:1039800000F01CF88900013E00F007B800F009B80B
:103990004FEA430C5FEA5C5C08D081EA030100F067
:1039A0005BB84FEA410C5FEA5C5CF6D14FF0000077
:1039B000014970470000FF070000F87F0EF1020E7A
:1039C0002EF0030E5EF8046B364205D4012A43EB59
:1039D000030515F5001F12D8012841EB010C1CF559
:1039E000001F0CD80ED14FEAD17C15F5001F0CEB4F
:1039F0004C0C0CF1020C08BF4CEBD37C04E04FF0F4
:103A0000080C01E04FEAD37C0CEB4C0526FA05F6D6
:103A100006F00706B6F1040C06D20EEB860CBDE8E4
:103A200070404CF0010C6047DFE80CF0090B02021B
:103A30004FF000414FF00000A1F5002170BD194684
:103A40001046012851EB010418BFD4F5001484BFBF
:103A5000002001F0004170BD0808A0F500114FEAF8
:103A60003101704791EA030F10B581F000413FF535
:103A7000A1AC83F0004300F009B8000010B591EA52
:103A8000030F48BF83F000433FF594AC841A71EBF9
:103A9000030C07D212198CF0004C43EB0C03001BF3
:103AA00061EB0C01DFF8A4E14FEA1154A4EB135CC5
:103AB0001EEA430F18BF9EEA445F00F0B08023EA7D
:103AC0006E03524221EA0451C3EB6E0338BF5B1E02
:103AD000DCF1200E25D322FA0CFE10EB0E0043FA87
:103AE0000CFE41EB0E01CCF1200E03FA0EFE10EBA2
:103AF0000E0051F10001CCF1200E29D412FA0EF281
:103B000001EB0451BDE8104058BF7047401C1CBF7A
:103B1000B2F1004F704700280CBF491C20F0010093
:103B2000704712EB020E43EB030218BF4FF0010E79
:103B30004EEA4202ACF1200CDCF11E0E54D943FADD
:103B40000CFE10EB0E0051F1FF31CCF11E0ED5D55D
:103B50000EF1010E12FA0EFE404141EB010101EBA4
:103B6000445C5FEA5C5C10D910EBDE7001EB045141
:103B700038BFBEF1004FBDE8104018BF70470028A5
:103B80000CBF491C20F00100704730D24FEAD42C02
:103B900011F5001124F400641BD0B1FA81F20B3A44
:103BA000A41AA41ED2F12003914030FA03F3194362
:103BB000904001EBCC71002C01EB0451BDE81040AA
:103BC000A8BF704701F1C0414FF0000001F0004173
:103BD0007047B0FA80F310FA03F100D110BDE41A77
:103BE000173C4805C90AE4E701EB045110BD491030
:103BF00001EB0451BDE810404FEA300002E04FF005
:103C0000000170474A0008BF0042F8D0B2F5001F1B
:103C100028BF704701F000414FF0000070479EEA56
:103C2000445F07D011EA5E0FBDE8104004BF0021D9
:103C300000207047BDE8104070B5FFF7BFFE00BF21
:103C400040DFF63E83F00041104670470000E0FF81
:103C500043004FEAD30C4FEA3C0C43401FBF4007E0
:103C60000CF1605113F0FE4F70471CF0006F03D150
:103C700000200CF0004170470CF0004343EA507004
:103C800010B540EACC0000F03AF900BF0000009205
:103C90004FEA0001FFF7E0BE4FF000414FF0000097
:103CA000A1F500217047000090EA010F48BF81F0A4
:103CB000004100F17681421A3CBF801A89184FEA10
:103CC000D0524FF07F4C1CEA410FA2EBD15318BFEA
:103CD0009CEA026F00F03B804FF0004C4CEA002061
:103CE0004CEA012121FA03FC10EB0C0C1ED202F16C
:103CF000FF325FEA1C2040EBC25038BF70471CF017
:103D00007F0F4FEA400C18BFBCF17F4F38BF7047A0
:103D1000C3F12003994008BF20F00100BCF17F4FA0
:103D200038BF7047A0F1C04000F02FB94FEA3C0007
:103D3000000A40EBC25028BF1CF0FF0F4FEA400CB6
:103D4000E6D018BFBCF17F4F38BF7047EAE79CEA66
:103D5000026F05D010EA5C0F08BF00F0004070470A
:103D600010B500F0CCF800BF64FBBE3E41000B0E66
:103D7000D3F19E0208D950F400034FEA032323FA3B
:103D800002F048BF4042704710B500F0B8F800BFDD
:103D900049922480002070476FF0004282EA2000A0
:103DA0007047000010F0004148BF4042B0FA80F375
:103DB00010FA03F2C3F19D030BD051EAC35101EB9A
:103DC0001220530638BF704700F1010008BF20F0F1
:103DD00001007047B0FA80F310FA03F2C3F19D03BB
:103DE0000AD0D90501EB1220530638BF704700F105
:103DF000010008BF20F00100704700004FF47F0C65
:103E00001CEAD0121EBF1CEAD11392EA0C0F93EAEF
:103E10000C0F00F0478090EA010F48BF42F4807217
:103E20004FF0004C4CEA00204CEA012102EB030267
:103E3000A0FB0113A2F50002002918BF43F0010303
:103E40005B0028BF4FEA330342EB22425FEA132CA8
:103E50004CEBC2502EBFBCEB436FB2F57C0F7047EA
:103E60004FEA036CBCF1004F08BF20F00100B2F52F
:103E70007C0F38BF70470BD582F0FF0212F5803FF0
:103E8000C8BF704700F1C040D8BF00F00040704785
:103E900000F5000C5FEA4C0C48BF7047B0F1C04021
:103EA00000F073B890EA010F0CEAD11348BF42F456
:103EB0008072624538BF634504D280EA010000F099
:103EC0000040704710B500F01AF800BF8900013EAD
:103ED00000F007B800F009B85FEA410C5FEA1C6C1B
:103EE00008D080EA010000F050B85FEA400C5FEAB9
:103EF0001C6CF6D14FF00040A0F5800070470EF129
:103F0000020E2EF0030E5EF8044B244204D44FEA56
:103F10004102B2F17F4F11D84FEA4003B3F17F4F16
:103F20000CD80ED14FEAD07CB2F17F4F0CEB4C0C89
:103F30000CF1020C08BF4CEBD17C04E04FF0080CF4
:103F400001E04FEAD17C0CEB4C0324FA03F404F0BB
:103F50000704B4F1040C06D20EEB840CBDE810404B
:103F60004CF0010C6047DFE80CF0070802024FF04C
:103F70000040A0F5800010BD0846420018BFD2F1F5
:103F8000807288BF00F0004010BDFF2141EAD05090
:103F9000C005704790EA010F48BF81F000413FF52E
:103FA0008AAE421A04D882F00042A0EB020011440B
:103FB0004FEAD0524FF07F4C1CEA410FA2EBD15395
:103FC00018BF9CEA026F4AD04FF0004C4CEA002028
:103FD0004CEA012121FA03FCB0EB0C0C0FD412F0D7
:103FE000FE0F36D05FEA4C001DD5001240EBC250E8
:103FF00038BF70471CF03F0F18BF70470BE0A2F1AD
:1040000001025FEA1C2040EBC25038BF70471CF031
:104010007F0F18BF7047C3F12003994014BF401EA3
:1040200020F00100704780084FEA122308BF704754
:10403000B0FA80FCA2EB0C02CCF1280C60FA0CF078
:1040400093EA122F04BF00EBC25070474FEAC370CF
:104050007047130A5FEADC1008BF7047F6E79CEA76
:10406000026F04D010EA5C0F08BF0020704710B543
:10407000FFF745FF40DFF63E81F0004070470CF04F
:104080000F03092B08BF082000F059800A2B0BD022
:10409000082B18BF704708BF1CF0400F0AD04FF024
:1040A00000004FF0000170471CF0400F18BF4FF0A8
:1040B000004070471CF0100F08D020F0704300F053
:1040C0007F4242EAD3014FEA4370704700F06040FC
:1040D00021F07F4242EA000201F07F4040EA727024
:1040E00070474FF0FF0C4CF4E06C1CEA11531CBFFE
:1040F0009CEA030C9445C2BFDA4201EB02517047BF
:10410000002B0DD0BCF1000F0FD0002A01F00041B0
:10411000A4BF41F0E04141F07F614FF000007047E3
:1041200001F000414FF00000704750EA01334FF0BA
:104130009B0C18BF4CF0806C7FF4DCA970471CF41A
:10414000801F11D01CF4E02F03D06FEACC3149005E
:1041500070474FF04050EFF3008222F0704242EA85
:10416000000282F3008870474FF0000070470000A3
:104170000000000000000102030406070809000017
:10418000000001020304BF00030304040304050C40
:104190000DFFFE08FE08FE0176034509B920050063
:1041A000CC09210882C4894B8C002208336D8B888E
:1041B0004A0023128744BC4830123245829190292C
:1041C000128CC4002410A53CAB582522093145248B
:1041D000915A080025198AC41D914C22894912253B
:1041E00029224944128C486221492C260126118833
:1041F000C42CA92428894A2332911265220127065A
:10420000316D8A01280CA4B4BA504822D2260B067C
:10421000290CA4B48A604C498B280D002A0B555CEC
:10422000AB949449A610002B0A554CAB60A8140C13
:10423000012C0842B4098A04002D06135C8A012E61
:104240000622C409022F0C84C4BAA45828168AC5B1
:1042500000300B85449B89842F92090031098445E5
:104260001BC9482F04320D85449B8984221389621F
:104270008701330E85449B898422125228920900BB
:10428000340C8544AB95882432BA8906350C8544B4
:104290008B8324C842914C00360D85449B8984460B
:1042A00091B0482600370B84448B432C140B6901D2
:1042B000380E85449B898422994858241300390D6F
:1042C00085449B89844542A34826003A0752C40985
:1042D00012013B0872B4091245023C0856CC4B91BE
:1042E000B2023D0735548B6A013E0956CC0BB192A0
:1042F00022003F0D85449B899A481407C944004019
:1043000014A93CBDA14C148D8428FA49228A43E4A7
:1043100020120041108943CC38603C0D0943B25350
:10432000503222421087440C938A48525211494419
:10433000870800430E8744AC491A71AA18098628D9
:1043400000441288C40C9B2C2493C82432894C222C
:104350008B9800450F86C40B8B282209912421518C
:104360004474461086C40B8B28228A48422449484C
:104370004602470F8744AC491A712AAA4962A249EA
:1043800000481189440D0A452692894E32914C24E9
:104390009330490984C40A8A482F044A0C86C42BE6
:1043A0009A5045979068044B1189C40C925A4C144A
:1043B00094448B22990A69004C0B86C40B9A50A72F
:1043C00088E8004D198B440E1A65368A4822A28867
:1043D00024228A4822A29052486522214E1488C481
:1043E0000CD944161A8528A10829348A4966110077
:1043F0004F0D8744AC598A8C9B24161B01500F87A4
:10440000440C938A48229294A4421A005114983C76
:10441000AC612C2493C824320945241152A2120005
:10442000520D88C40C9B48A7584DA48532530C8666
:10443000C49B255AB1469A4C00540C86C48B8B966B
:1044400090501B0500551388C40CCA44169285640D
:104450002159481692C54800561288C40CCA441601
:1044600092C5244149501215CB0057198B440E8A2E
:104470006422128594429288242489486293A14C34
:10448000281301581188C40CCA44169A04C7C3C81B
:1044900028269910591088C40CCA44169304255133
:1044A000B12A09005A0A86C48B9B6CB44D765B080E
:1044B000A3348A8A7E195C0C84C48A5830168C0511
:1044C00063015D08A3348A897E295E0B6554AB6065
:1044D0006C144993055F0616340B03600723740AB6
:1044E0009100610854C48A998462620D86C40BA14C
:1044F00016C984449A4C00630B55449B8968268AEC
:104500004C00640B86C4BBA1CA8965A2006509552D
:10451000449B89E42024660D85C4AA89242222C9EB
:10452000942800670C8634CBD048A26966BB00682B
:104530000B86C40BA116C984C424690A84C41A91C9
:1045400074A485006A0AA3B41AB5892E14006B0CF2
:1045500086440BA11609892451196C0884C48A91D8
:10456000BE106D0E5AC40D8948B242129144240502
:104570006E0A56C40B89644262126F0A56C41B8AC3
:1045800088494201700D76B40B896442225D843300
:1045900000710F77B49B8A482292484612A9900076
:1045A000720954C40AC9490900730854C49A12A96B
:1045B00002740973449A88A4A224750956C40B1185
:1045C000978902760C56C48B894A4812138A007761
:1045D0000F59448D892E21892426114A4400780BD5
:1045E00056C48B894A4C165119790E76B48B894A78
:1045F0004812138A6642007A0955440B8B48C90059
:104600007B0BA4B42A89484526D2267C0781468B99
:1046100043007D0CA4B40A99484D22D222027E08A0
:1046200026DC9B896402A00500CC09A10882B4099C
:104630005AE400A20E753CCB882522894C22A3188F
:1046400000A30F87442C922824B4096592CB040060
:10465000A40F574C8CC824A224114924914900A5C9
:104660001088C40CCA44169304254269514A02A614
:104670000781468B0901A70EA4B41AD24C12A1449B
:1046800064230A00A80823748A882400A91388C414
:104690002C5A30129A484211495034498C9100AA40
:1046A0000863540A592536AB0B56C4AB140945248C
:1046B0001125AC0735548B6202AD06135C8A01AE3E
:1046C0001488C42C5A3012A1484211C948129124AE
:1046D000C64800AF0614F40A02B00943649A1449AC
:1046E0000A00B109554CAB50290E28B20843E49991
:1046F00049CA00B30843E489496C02B40723741A19
:104700000A00B50A76B40B11170B5108B61187448D
:104710009CC32442094D82916024188915B7062252
:10472000DC0902B80732358AD000B90843E4998819
:104730002832BA0A64D41A4948149112BB0E56C4DE
:104740008B504822925024A11000BC1388C49C585E
:104750004896149B8443C1882C428A4500BD128828
:10476000C49C584896149B8443B248522C6900BE9E
:104770001388C48C512C3112138543C1882C428A72
:104780004500BF0D85342B991C145293482600C058
:1047900014B9432C39448E16078CA7216148760A38
:1047A0004A4604C113B9435CB11C290E184F43C2D9
:1047B00090EC14948C08C214B943BCA9448E12071F
:1047C0008CA7216148760A4A4604C315B9433C497F
:1047D0003022478A03C6D39030243B05252302C4E8
:1047E00015B943BC483812478A03C6D39030243BDE
:1047F00005252302C515B9433C71282C87C401E364
:10480000694818929D82921101C6168AC4AD432C44
:10481000228A4524B110AD128A89223111C500C700
:1048200010A734AC491A71AA18098688511900C812
:1048300012B6C41BA91C62114524219224248A8823
:104840000EC911B6C43B75884514918448929028CE
:10485000223ACA12B6C4AB91446C11452421922469
:10486000248A880ECB14B6C4AB482C1207584411C6
:10487000498824098922A203CC0BB4C40A99942242
:10488000D20B01CD0BB4C42A899422D20B01CE0CD9
:10489000B5C49A892A49A6270A00CF0AB4C49A1C2B
:1048A0002922BD10D01188C40C9B2C2433496412DA
:1048B0009944163101D118B8C43C492C2287C92625
:1048C000B2D02844094548A1514C328B00D210B7D0
:1048D000442CB11C384B917193C4622300D310B7A0
:1048E000443CA11C3A4B917193C4622300D411B78C
:1048F00044AC99440E9BA5C8B84962B11100D512C9
:10490000B7442C49282207CE5264DC24B1D80800D1
:10491000D612B744AC48301207CE5264DC24B1D86A
:104920000800D70A554C0B8964169B28D812874477
:10493000AC495A445489502225492C121901D916E0
:10494000B8C42C39400EA44C642159481692856491
:1049500021598C04DA16B8C44CA91C4899C842B233
:10496000902C240BC942B2180900DB16B8C4BCA1B4
:10497000440EA24C642159481692856421598C0436
:10498000DC17B8C4BC483412875126B2902C240BD3
:10499000C942B2902C4602DD12B8C44CA91C4899F9
:1049A000C86292A0242A562501DE0F87448C6949EB
:1049B000452411494A421A00DF1087442C928A4844
:1049C000A2A42292882A1200E00A84C40A997426BA
:1049D000A118E10A84C42A897426A118E20E95C49C
:1049E000AAD84475289A44241400E30C85C41ACD2F
:1049F00043D12422A100E40A84C48A48D69984625F
:104A0000E50C84C41A49282299492806E60E58C4A0
:104A10008CC92424911C24B20901E70D75349B89AB
:104A200068268ACC622200E80C85441BA11C3091C8
:104A30001C8404E90B85442B75C844721012EA0CDF
:104A40009544ABD8447922390809EB0D85449BA4E1
:104A5000481C30911C8404EC0A84C40A9974A4850F
:104A600000ED0A84C42A8974A48500EE0B95C4AABB
:104A7000D84475A68902EF0A84C48A48D6911602E2
:104A8000F00E86C40B516894461131492800F10D8F
:104A900086C41B498A1CA232213109F20D86C41B2F
:104AA000A91C441131492800F30C86C43B751045FC
:104AB000C424A100F40F96C4ABE048228750444CB4
:104AC000120A00F50E86C42B498A1C42113149286E
:104AD00000F60E86C49BB4481C441131492800F7E7
:104AE0000A554CAB38A00E0801F80D76BCDB084522
:104AF000622149285100F90B86C41BA91C22E2320D
:104B000051FA0B86C43B758888CB4401FB0D96C4D3
:104B1000ABE048220788B84C14FC0C86C49BB44810
:104B20001C22E23251FD10A6B43B75C844252489ED
:104B30000945332100FE0EA6B40BA116C98444BA60
:104B4000086700FF11A6B49BB4481C3251094962A2
:104B500042D14C0800000004FFFF0000BF00030228
:104B600004040305051012FEFD0BFD0BFE01D50428
:104B70006A0D802005008C142109B285140F4A3675
:104B80000C220843BD15894B002315A7847849984A
:104B90008449344C499844C3948449986400241946
:104BA000D77C78E1A028C9940C493684833864C93D
:104BB00090444BA20C6206251CBC845D62A80CA12B
:104BC000549492548962299323258CA43092B24C38
:104BD000094309261CBC847D430E48B2244B39B2DC
:104BE0002343344553A40D99380DD9200D92042741
:104BF0000741BD134300280CD47475512445BE658C
:104C00005A18290DD4741561A66592A748AA012ADD
:104C10000A55B45695CAD214012B0B778C78716D56
:104C200018B2B8062C0752751417052D07249C15C9
:104C300007012E06328514072F0CB484754D5929AF
:104C40002B6519003014B784589B621BB2211BB22C
:104C5000211BB221536C1300310AB58558CA90F953
:104C6000A721320DB7843843240D9A6AF4367C3379
:104C700013B7843843240D9A2A6A43AC0ED9102DF9
:104C800043043412B78498E22DD112299222651878
:104C900042551C023513B78438C3324871655256E9
:104CA00075C886681922003614B7845843240DD974
:104CB000902A0FDA900DD920294304370DB78418B4
:104CC0003F26992AAA46D5063815B784384374C8B2
:104CD000866C58B2214A866DC886E890003915B7AF
:104CE000845843220DDA900DD9A05CD4211B22698F
:104CF00088003A07728514A7613B09927514A76171
:104D000051003C09778CD8E1743E073D09379C1867
:104D1000871C38043E09778C18F1D331063F0EB654
:104D2000843743220D91A81973D009401DBD849E7C
:104D3000C33A4EDAA4989421B20C89240D89A4B800
:104D40002C2665D4916C38014116BA849B3AA20393
:104D5000899CC8519A8999386CA9942ADB1042160B
:104D6000B9841A87CCA4499A641B86485444455494
:104D7000B4E110014316BA847B83928C8ABC033B56
:104D8000A2233AA24372326A83044417BB841C07ED
:104D9000519C54495664455664455654495C864175
:104DA000034515B9841A2FA2A22652450A07510AB3
:104DB000A58A9A88C3414615B9841A2FA2A2265201
:104DC000450A07510AA55007E421054719BB847C11
:104DD00083128D929CE840A2433A240E432CA9D220
:104DE000360E51024819BB841C433624AAA44AAA91
:104DF000A44AC349955449955465C88600490AB4E4
:104E000085174322F997214A0EB7847943A8FA22DD
:104E1000299212DD004B19BB841C43344462A8A5BF
:104E200052ACE4C0202BAB346A9BB80CD1204C169A
:104E3000B9841A43AC033AA0033AA0033AA0266A05
:104E4000220E07014D22BD841E433A24EBB44E8945
:104E5000964889964889964891124991124991122B
:104E60004999659286004E1ABB841CEBB2464318E2
:104E7000255B14695126D596281CA2748A953901A0
:104E80004F1ABB847C83B84DAAA203430E0C393061
:104E9000E4C090038A2A6DE3A0015016B9841A0772
:104EA000495B444554B465D874400774401E5200B1
:104EB0005120EB6C7C83B84DAAA203430E0C393011
:104EC000E4C0906C8AA4488770D021295E7260018A
:104ED0005216BB841C0751DB444DD48CC3AA899A5B
:104EE000681395415B005316B9845A43926C8A9AB1
:104EF000A8C9100FF3301FC2211924005415BA8419
:104F00001B9FA4CD2DD4111DD1111DD1111D1832FF
:104F1000005517BB841C43B8C8911CC9911CC9918A
:104F20001CC9919C89E9A0015617BA841B43B6A8F5
:104F3000919A69A1166AA9122BB192033A220257DB
:104F400021BD841E4332248BA6459A16695AA62495
:104F50004AA8244AA8244AA8244AAAC99AAC6900A3
:104F6000581BBB841C833424A326A6520E2839B0B8
:104F700003890E446AA889CB100D025918BA841B04
:104F800043B6A899166AA9122B39A0233AA2233A4C
:104F90003064005A0FB884190FE1215B5DB7213CE2
:104FA0001C025B09D4741527FFD3105C0DB684175F
:104FB000699CC6699CC6691C5D0AD4741543E47F6C
:104FC0001A065E0D77A478713A2699226589265FC4
:104FD000071774178700600734C5169A18610E7892
:104FE00084594326C9DAA0688A74196216B9841AEA
:104FF0003BA0033AA003CA3619155111154D4A8634
:1050000008631077845843240DD9908A89240D09A8
:10501000006415B984BA3BA0033AA02D92B4888AE3
:10502000A88892B42D03650F788459432629E2F0AD
:105030000E68D2A000660DB6845693E26D90446F60
:1050400043046714B76CB8CAA06843A60C4A3C4C2A
:10505000C3908ACAA0006816B9841A3BA0033AA07C
:1050600003CA36D9244DD2244D199221690AA48449
:1050700035923AF932046A0DD56A757660F3DB90A1
:10508000280B006B10B88419B3A745B26843A86811
:1050900092320D6C09B4841593FF32046D147E8432
:1050A0001FCBB44D93CDA499349366199221190264
:1050B0006E1079841ACB36D9244DD2244D19922101
:1050C0006F10788459432629E2100EA12269430407
:1050D0007013A96C1ACB361915511195C9B2E98014
:1050E0003CA4007115A96C594312498BA8888A28E1
:1050F00049DBA2033A200F01720B778417CBC5EA74
:10510000386400730F768437C3900DE1100ED930E8
:105110002400740EA6845669A80D92E89448D10222
:10512000751079841AD3A4499AA4499A246DCB00A6
:10513000761078831743B268919629A192CA1A0013
:1051400077177D831C4332248BA6459A96298912B2
:105150002A89926AB2A601780F788419D32269430A
:10516000AA0E59A64C037913A86B1743B2689196FF
:1051700029A192CA72A8842B007A0A76841787CC58
:10518000B761087B0CD5747652E6560D35632A7CE0
:1051900007B187180F027D0ED574166AA819D32C93
:1051A000738B34007E0827A438876401A005008C27
:1051B00014A109B26D15B7643808A213977CB8D949
:1051C00010298334289912258B34642100A311B847
:1051D000847963E4751865391D9561508604A412BD
:1051E00088941991940C93451C424592862592020D
:1051F000A516BA841B43B6A899166AA9122BE930E2
:10520000CBC3AC034306A608B18718433408A716DE
:10521000D6745793A2448A3824D1200D5232848305
:105220003444D104A80825C517CA9008A918BB841E
:105230009CB3A6E540140D49498AA458922AD1543A
:105240000732F308AA0B75A416A3B424AE8300ABEF
:105250000A578C588A6F8AA608AC0847941887B8F2
:1052600001AD07249C150701AE1ABB849CB3A6E5CB
:1052700040940C51924591B669499624962807327C
:10528000F308AF0715C5178300B00A44BD364A249A
:10529000250A00B10D778C7871360C599C63C310C8
:1052A000B20A65AB354BA449A641B30A65AB354B91
:1052B000649C9405B40834C5568A9201B515A96C4E
:1052C0001A4332699226699226498764C9111D9052
:1052D00001B61AB9843AC343A20C8A3228CAA0483C
:1052E00043222AA2222AA2A20D4300B70722A51513
:1052F0004300B807336D35D910B90964AC35CAE439
:105300003204BA0D75A4368B322443A2CC8300BB81
:105310000B578C188AA6688A4F00BC19BB843C6264
:10532000B6895A2AA9523A4C6A342A8998449A3240
:105330004CA902BD17BB843C62B6895A2AA9523ACD
:105340002C6B1269A2166AC66C10BE1BBC833C6330
:105350001659B51C50C4488917498E562551934893
:1053600054862D5500BF0FB66C57A21D0C35A334C3
:1053700044CA9000C01BFA845B3AA4633951477455
:10538000209113394A333113872D9552651B02C181
:105390001BFA84DB3AA00339554774209113394A2C
:1053A000333113872D9552651B02C21BFA84BB391A
:1053B000326739494774209113394A333113872DA5
:1053C0009552651B02C31AEA847B4B98EC341DD1BD
:1053D00081444EE428CDC44C1CB6544A956D08C493
:1053E0001AEA845B464927E9880E24722247692617
:1053F00066E2B0A552AA6C4300C51CFA849B3A1021
:10540000E5804ED4111D48E4448ED24CCCC4614B8F
:10541000A554D98600C61EBF839FC3414D44355154
:10542000C3482A46529C0DF230A5A1D4A826A9381B
:1054300068C301C71BEA6C7B83928C8ABC033BA2C6
:10544000233AA24372326A830EE4580E6C00C81BE2
:10545000F9847A3AA24339385C44454DA48A140E43
:10546000A2144A153511878300C918F984DAE61C9D
:105470001E2EA2A22652450A07510AA58A9A88C35F
:1054800041CA1BF984BA39B06639365C44454DA42B
:105490008A140EA2144A153511878300CB19E984AA
:1054A0005A3649C7868BA8A8895491C2419442A90B
:1054B000A226E27010CC0DF485179A180E89E45FCD
:1054C0008600CD0EF5857792942343A4F9A7210198
:1054D000CE0EF58557D992A543A4F9A72101CF0F88
:1054E000E68417D210E9C09089FE6D4800D018BB41
:1054F000841C07519C544956E4610815599115556F
:10550000129761D000D11EEB849C4B9AEC847559A4
:10551000A3218C922D8AB428936A4B140E513AC55C
:10552000CA9C00D21FFB847C3AA683397110B7490C
:10553000557460C8812107861C18724051A56D1CE6
:105540003400D31FFB84FC888EE8484E1CC46D5287
:10555000151D187260C8812107861C5054691B07ED
:105560000DD41FFB84BC39B403594E1BC46D5215B6
:105570001D187260C8812107861C5054691B070DD5
:10558000D51EEB849C4B9AECB441DC2655D181218D
:1055900007861C187260C8014595B671D000D61EEA
:1055A000EB847C922AE9A441DC2655D1812107862F
:1055B0001C187260C8014595B671D000D70F788C61
:1055C00018A2226943AA0E99A48802D81CBB847C25
:1055D00083946C93AAA8C9104643960D513824A908
:1055E000A24ADB120D1A00D91CFB849C3AA683390F
:1055F0006108173992233992233992233992333132
:105600001D3400DA1CFB84FC808EE8484E1AC2452B
:105610008EE4488EE4488EE4488EE44C4C070DDB63
:105620001CFB84BC39B403594E18C2458EE4488E25
:10563000E4488EE4488EE44C4C070DDC1BEB847C84
:10564000922AE9F0102E722447722447722447727E
:105650002467623A6800DD1DFA84FB800EE8404E44
:1056600018B245CDB4504B9558C9011DD1111DD16B
:10567000812103DE16B9841A43AC0387485B444595
:1056800054B465D874401E5200DF16B8847943962E
:10569000299AA2458AA6459AA2299AA20DCA02E091
:1056A00013B884593AA023393A6492AC0D8AA648BB
:1056B0009701E111B88499AA9A53864C92B541D1C9
:1056C00014E932E212B88479F1A8E8E89049B236D8
:1056D000289A225D06E312A884594A96E8F0904978
:1056E000B236289A225D06E411A8843936454787E8
:1056F0004C92B541D114E932E512B884796A94EA42
:10570000F09049B236289A225D06E6147D845E87C1
:105710004C9A64511A1E3259DB94211A1400E71373
:10572000A76C5843240DD9908A89240D610E8413E7
:1057300000E814B884593AA023393A6492220EEF53
:1057400080260D0A00E912B88499AA9A53864C5211
:10575000C4E11DD0A44101EA13B88479F1A8E8E8B6
:1057600090498A38BC039A342800EB12A884393651
:105770004547874C52C4E11DD0A44101EC0BB484D1
:10578000159A184EBE0C01ED0CB484558A92039301
:105790002F4300EE0CB58455D962DD7C1A1200EF60
:1057A0000CA58415CA90A89B4F4302F015B8841924
:1057B0009A360E59260E92451CC22154246D88003B
:1057C000F114A9847A4A98E8E8B24D3649933449ED
:1057D00053866408F215B884593AA023393A649282
:1057E000220EE1102A92364400F313B88499AA9A43
:1057F00053864C52C4211C4245D28608F414B88406
:1058000079F1A8E8E890498A388443A848DA100179
:10581000F514A884594A96E8F090498A388443A838
:1058200048DA1001F613A88439364547874C52C42C
:10583000211C4245D28608F70D788C78B20E0E8373
:105840000ECA1A00F814987CD9D990298B940C4967
:105850003424912269431603F916B9845A3AA243B3
:10586000393A2443A2499AA4499A246DCB00FA14E8
:10587000B9849AB29C53866448344993344993A4BA
:105880006D19FB16B9849A39B02A3A382443A249D3
:105890009AA4499A246DCB00FC15A9845A8AA8E8D9
:1058A000E0900C89266992266992B42D03FD15E8D3
:1058B0006BB7D61C1D92458BB44C09955496432565
:1058C0005C01FE19E96C1A3BA0033AA003CA361921
:1058D00015511195C9B2E9803CA400FF16D86B5749
:1058E0008AA6E8D0902C5AA4654AA8A4B21C2AE142
:1058F0000A00000004FFFF0000BF000303050504C9
:1059000005061213FEFD0CFD0CFE023805110F54A6
:10591000200600642401210D83252C13395442D123
:10592000882502220CA5E03521611945421100238A
:105930001A8A215427128A8422D1417210298A445A
:1059400007C941A428128A6400241DE9E15319877C
:10595000846B9250441429A5188F9650A812228562
:10596000249288AC1C0425258C2574350B4E88A206
:10597000485016098A22515124329A4426D1882847
:1059800018910523A26048148C8D00261D8C257467
:10599000490788C422B1280EA0034814C948329A86
:1059A0008464B4A592A534012708A2E42571890076
:1059B000280EC4A533170AA988F426920503290FD7
:1059C000C4A133118C896422BD884469002A11E77F
:1059D0006045178CA44822A2912422C918032B0DDC
:1059E00008255427563B1C646235002C0CC4602BE0
:1059F00023A18C429218002D0744E02C71082E0937
:105A000064202C23A148002F0F85212C99164C0BC4
:105A1000C68269C1200030148921543795C8946426
:105A20009299B7894C245391CE00310A8725542787
:105A30002AEE9F0E3213882554458B4946A6496CA1
:105A400038D516111E0E03331589215455132DC94F
:105A5000626269790E98C84E13D1AC04341589215D
:105A6000541D0788A7C4C830320B8D62A383703CD5
:105A70003C35148825547331C50171402D349EC4C2
:105A80004CA6D2A804361689215457134D441499B4
:105A9000643C1951D66C13D964910437128825548B
:105AA000F110094A82926058552C5D0E0238158813
:105AB000255445134946A68948461349464E139135
:105AC0008C043917892154459CAC4966B6C9843485
:105AD000194F6412926424AB013A0D04212C23A1C6
