:020000040800F2
:10000000900700209D0100087F1A0008E9190008E8
:100010007D1A00086D070008691E00080000000036
:10002000000000000000000000000000831A00082B
:10003000E308000800000000811A0008F91A00080F
:10004000B7010008B7010008B7010008B7010008B0
:10005000B7010008B7010008B7010008B7010008A0
:10006000B7010008B7010008B7010008B701000890
:10007000B7010008B701000871070008B7010008C0
:10008000B7010008B7010008B7010008B701000870
:10009000B7010008B7010008B7010008B701000860
:1000A000B7010008B7010008B7010008B701000850
:1000B000B7010008B7010008B7010008B701000840
:1000C000B7010008B7010008B7010008B701000830
:1000D000B70100085D1E0008B7010008B70100085D
:1000E000B7010008B7010008B701000800F002F8E6
:1000F00000F045F80AA090E8000C82448344AAF17D
:100100000107DA4501D100F03AF8AFF2090EBAE87A
:100110000F0013F0010F18BFFB1A43F0010318473B
:100120007820000098200000103A24BF78C878C1D9
:10013000FAD8520724BF30C830C144BF04680C60ED
:10014000704700000023002400250026103A28BF35
:1001500078C1FBD8520728BF30C148BF0B60704739
:10016000642900F09180752900F08E80782900F0D4
:10017000C780002070471FB51FBD10B510BD00F02F
:1001800098FA1146FFF7F7FF01F086FE00F0B6FA85
:1001900003B4FFF7F2FF03BC00F0BEFA0948804742
:1001A00009480047FEE7FEE7FEE7FEE7FEE7FEE759
:1001B000FEE7FEE7FEE7FEE704480549054A064B71
:1001C000704700005B1B0008ED0000089001002054
:1001D0009007002090030020900300200FB41CB56E
:1001E000074B06AA7B4469460090059800F041FA47
:1001F0000020694600F050FA1CBC5DF814FB0000BA
:10020000B10400000FB41CB50C0007AA009001D087
:100210002044401E074B7B4469460190069800F03D
:1002200028FA002C03D06946002000F035FA1CBCE7
:100230005DF814FB8904000070B504468569006808
:10024000C10601D5302600E02026C00707D070BDCA
:10025000D4E9012130469047206A401C20626D1E7F
:10026000F6D570BD70B5044685690078C00707D122
:1002700070BDD4E9012120209047206A401C2062F3
:100280006D1EF6D570BD00002DE9F0410646002434
:1002900010687529314616A510D0AFF300800028EC
:1002A00002DA404213A507E031688A0701D512A59A
:1002B00002E0490704D511A5012401E0AFF3008055
:1002C00000210A2206F1240709E0B0FBF2FCB0FB92
:1002D000F2F302FB1C00303078541846491C002809
:1002E000F3D123462A463046BDE8F04100F063B919
:1002F000000000002D0000002B0000002000000086
:1003000070B504460D4621461068AFF30080218881
:10031000090502D50F4A7A4402E00E4A7A440E32A9
:10032000002104F1240305E000F00F060009965DAA
:100330005E54491C0028F7D120780023000704D51B
:10034000702D02D009B1022311322046BDE8704061
:1003500000F031B99C1D00002DE9F05F894604468C
:100360004FF0000ADFF874B1FB44C0F820A020462B
:10037000E1688847002874D0252806D0D4E90121F7
:100380009047206A401C2062F1E700265F46204625
:10039000E16888472028054607DB312D05D278190A
:1003A00010F8200C08B10643F1E7B00701D526F09C
:1003B0000406C4F81CA00027C4F818A02A2D09D0F0
:1003C000284601F062FD38B304EB8708303DC8F8D9
:1003D000185019E059F8041B204604EB870291617C
:1003E000E1688847012F054618D1E069002820DA26
:1003F00026F020061DE0D8F8180000EB800005EB81
:1004000040003038C8F818002046E16888470546A3
:1004100001F03BFD0028EED1012F0AD02E2D08D18E
:100420002046E16888477F1C0546022F46F02006DB
:10043000C4DBA069002803DA404246F00106A0614F
:10044000F00701D026F010066C2D0BD0682D09D0D6
:100450004C2D39D06A2D35D0742D35D07A2D33D02E
:1004600016E038E0E1682F4620468847B842054646
:1004700009D16C2F26D04FF48060E16806432046F6
:100480008847054604E06C2F1AD04FF4807006436D
:100490000DB3A5F14100192802D8203546F40066B5
:1004A0004A462946204626604E46FFF759FE80B14F
:1004B00001280BD0F61D26F0070000F1080956E7C9
:1004C0004020E4E78020D8E70020D6E706F10409C1
:1004D0004DE7284652E7206ABDE8F09F721D0000F4
:1004E00010B5431C02E010F8011B71B18107FAD16D
:1004F0004FF0013202C88C1A8C4314EAC211F9D0B1
:10050000C01A0A0603D0C01E10BDC01A10BD0A04CE
:1005100001D0801E10BD0902FCD0401E10BD4FF05E
:1005200000020429C0F0128010F0030C00F01B80C0
:10053000CCF1040CBCF1020F18BF00F8012BA8BFCE
:1005400020F8022BA1EB0C0100F00DB85FEAC17C92
:1005500024BF00F8012B00F8012B48BF00F8012B45
:1005600070474FF0000200B5134694469646203976
:1005700022BFA0E80C50A0E80C50B1F12001BFF45C
:10058000F7AF090728BFA0E80C5048BF0CC05DF8C2
:1005900004EB890028BF40F8042B08BF704748BF10
:1005A00020F8022B11F0804F18BF00F8012B704784
:1005B0007047704770472DE9F0470D4699469246BF
:1005C000044600F124080168880604D5E06921F09A
:1005D0001001216000E00120A84201DD471B00E07E
:1005E0000027A1697A1902EB0900081AA061207896
:1005F000C00602D42046FFF71FFE002608E0D4E91B
:1006000001211AF806009047206A401C761C2062DF
:100610004E45F4DB2078C0060AD52046FFF70CFED5
:1006200006E0D4E9012130209047206A401C206276
:10063000381EA7F10107F4DC07E0D4E9012118F81E
:1006400005009047206A401C2062281EA5F1010584
:10065000F3DC2046FFF706FE2078000602D50220D4
:10066000BDE8F0870120FBE701694A1C02610878B8
:10067000704700B58FB0CDE90131002105910549E2
:100680007944CDE9031011466846FFF765FE0FB0C7
:1006900000BD0000E5FFFFFF0A6802F8010B0A60D9
:1006A0007047D1E900239A4202D2531C0B601070AC
:1006B0007047754600F02CF8AE4605006946534673
:1006C00020F00700854618B020B5FFF775FDBDE89E
:1006D00020404FF000064FF000074FF000084FF0A9
:1006E000000B21F00701AC46ACE8C009ACE8C0093A
:1006F000ACE8C009ACE8C0098D46704710B50446A7
:10070000AFF300802046BDE81040FFF741BD000078
:10071000004870472C01002001491820ABBEFEE7BD
:10072000260002007047000010B580210D48FFF739
:10073000F6FE00F05BFB03460B4A80210948FFF7F9
:1007400061FD0848FFF7CCFE06490D230A227E28EA
:1007500003DA0B540844427010BD01F87E3F4A7022
:1007600010BD000020000020F0200008FEE700007F
:10077000014800F029B90000E800002010B564230A
:100780001F2218A11F4801F086F81E4C4FF0640389
:10079000A06B8069202809D02A221BA1194801F0EA
:1007A0007AF8A06B4068102803D008E0172221A136
:1007B000F4E76423272225A1124801F06CF8A06B0E
:1007C000C068802805D1642326222AA10D4801F0A3
:1007D00062F86423BDE81040182230A1094801F0F6
:1007E0005AB80000436865636B696E6720444D41E9
:1007F00020636F6E66696775726174696F6E2E2E05
:100800002E0D0A00A00000203F20444D41204D6FD6
:1008100064653A204E6F726D616C202853686F7565
:100820006C642062652043697263756C6172212972
:100830000D0A00003F20444D41204D6F64653A2071
:1008400043697263756C61720D0A00003F20444D6C
:100850004120446972656374696F6E3A204D656D1D
:100860006F727920746F205065726970686572616B
:100870006C0D0A003F204D656D6F727920416464F4
:100880007265737320496E6372656D656E743A208C
:10089000456E61626C65640D0A000000444D4120A4
:1008A000636865636B20636F6D706C657465642E3F
:1008B0000D0A0D0A0000000030B590F840500124E8
:1008C000AC40C56B6C60046863604368102B0368C0
:1008D00003D099600068C26030BD9A600068C16052
:1008E00030BD704772B6FEE710B590F821100022B7
:1008F000022905D00421816380F82020012010BD49
:1009000001680B6823F00E030B6001680B6823F08D
:1009100001030B6090F84030C46B012101FA03F32E
:10092000636080F8211080F82020104610BD000080
:1009300010B590F821100024022903D0042181630E
:1009400001243DE001680A6822F00E020A60016895
:100950000A6822F001020A601A4A0168914201D134
:10096000012121E0174A1432914201D110211BE0EC
:10097000144A2832914201D1891515E0114A3C32BE
:10098000914201D189140FE00E4A5032914202D1B6
:100990004FF4803108E00B4A6432914202D14FF4A7
:1009A000801101E04FF08071064A083A5160012140
:1009B00080F82110002180F82010416B01B1884798
:1009C000204610BD080002402DE9F05FC16B0C68A5
:1009D00001680B68D0F840C0042202FA0CF2494DBD
:1009E000DFF824A1494E4A4FDFF828B1DFF828E1AB
:1009F00022422CD05A072AD50A68920603D40A68E4
:100A000022F004020A600168A94201D1042219E01F
:100A1000514501D1402215E0B14202D14FF480622C
:100A200010E0B94202D14FF480420BE0594502D1A7
:100A30004FF4802206E0714502D14FF4800201E0BC
:100A40004FF080622F4908394A60C16A3BE04FF09D
:100A5000020808FA0CF818EA040F4FF000094FF0EA
:100A6000010235D05FEA837832D50B689B0605D446
:100A70000B6823F00A030B6080F821200168A9426B
:100A800001D1022219E0514501D1202215E0B142E5
:100A900002D14FF4007210E0B94202D14FF400527B
:100AA0000BE0594502D14FF4003206E0714502D106
:100AB0004FF4001201E04FF00072124908394A6009
:100AC00080F82090816A00291AD0BDE8F05F0847BD
:100AD000082505FA0CF5254212D01B0710D50B6826
:100AE00023F00E030B6090F84010C36B02FA01F183
:100AF0005960826380F8212080F82090016BE2E742
:100B0000BDE8F09F080002401C0002403000024097
:100B100044000240580002406C00024030B528B347
:100B200008C8134914221944B1FBF2F18900C163CA
:100B300010498163022141771A6843F6F0718A43B4
:100B4000D0E900142143D0E902452C432143046934
:100B500021434469214384692143114319600021E1
:100B60004163012242770177084630BD012030BD44
:100B7000F8FFFDBF0000024070B5044690F8200069
:100B8000002501280CD0012084F8200094F8216071
:100B90000020012E06D084F820000225284670BDD2
:100BA000022070BD022684F82160A06320680668D8
:100BB00026F0010606602046FFF77EFEE06A002868
:100BC0002068016802D041F00E0106E021F0040126
:100BD00001602068016841F00A0101602068016835
:100BE00041F001010160D9E770B5044600F0FEF85C
:100BF0000546601C02D004480078044400F0F6F872
:100C0000401BA042FAD370BD100000202DE9F84F20
:100C1000DFF8B8910024A9F1040B23460F2709F14E
:100C2000040AABF1040EC9E00125A5402A40AA42FE
:100C30007DD1674ED1F804C0ACEB0608B44532D084
:100C400014DCBCF1030F3AD009DCBCF1000F2AD050
:100C5000BCF1010F1CD0BCF1020F31D11DE0BCF181
:100C6000110F17D0BCF1120F2AD119E0B8F5881F67
:100C700019D006DCB8F5803F15D0B8F5801F1FD11C
:100C800011E0B8F5001F0ED0B8F5041F18D10AE026
:100C9000CB6815E0CB681B1D12E0CB6808330FE072
:100CA000CB680C330CE08B682BB1012B4FF00803A1
:100CB00003D0456104E0042302E0056100E0002365
:100CC000FF2A01D8064601E000F104064FEA840538
:100CD00001D9A5F12005D6F8008007FA05FC28EA1D
:100CE0000C0803FA05F548EA0508C6F800804D68C7
:100CF000ED0062D5374DAE6946F00106AE61AD69D3
:100D000024F0030605F001050095334D06EB050CB4
:100D1000DCF80850A607360F07FA06F825EA08059A
:100D2000DFF8B880404503D14FF0000817E044E0F9
:100D3000DFF8AC80404502D14FF001080FE0DFF84A
:100D4000A480404502D14FF0020808E0DFF8988007
:100D5000404502D14FF0030801E04FF0040808FAC3
:100D600006F848EA0508CCF808804D68D9F8006014
:100D7000ED024D4601D5164300E096432E604D68C6
:100D8000DAF80060AD02554601D5164300E09643FF
:100D90002E604D68DBF80060AD035D4601D516435B
:100DA00000E096432E604D68DEF80060ED03754666
:100DB00001D5164300E096432E60641C0D682A4658
:100DC000E5407FF431AFBDE8F88F00000804014032
:100DD0000000111000100240000001400008014016
:100DE000000C0140001001400014014001488068DF
:100DF000704700001000002002488168027811440A
:100E00008160704710000020074810B5016841F06C
:100E100010010160032000F075F80F2000F006F8C3
:100E200000F024F8002010BD0020024070B50D4DE8
:100E300004464FF47A712878B1FBF0F00A4909684A
:100E4000B1FBF0F000F0DCFA48B9102C07D2002218
:100E50002146501E00F036F800206C6070BD012065
:100E600070BD0000100000201C0000200C4808B5D8
:100E7000816941F001018161816901F00101009105
:100E8000C16941F08051C161C06900F0805000909B
:100E90000448416821F0E06141F08061416008BD93
:100EA0000010024000000140002809DB00F01F0292
:100EB000012191404009800000F1E020C0F80011BC
:100EC00070470000F0B40E4B1B680C46C3F30223BE
:100ED000C3F10705042D00D90425191D072901D2E6
:100EE000002300E0DB1E012606FA05F1491E214021
:100EF00099409E40761E16403143F0BC00F0B5BFCD
:100F00000CED00E0064900F0070208684FF6FF0309
:100F1000184040EA0220034A10430860704700006E
:100F20000CED00E00000FA052DE9F0470F46050042
:100F300061D0434E306800F00700B84209D23068F3
:100F400020F0070038433060306800F00700B842F6
:100F500051D128683B4C810712D5400703D5606802
:100F600040F4E06060602878000703D5606840F4D2
:100F7000605060606068A96820F0F000084360601D
:100F80002878C00728D06868012810D02168022876
:100F900010D0890700292EDA616821F0030101438E
:100FA0006160FFF723FF804641F288390DE0216838
:100FB0008903EFE78901EDE7FFF718FFA0EB0801D0
:100FC000494502D90320BDE8F0876068696800F0F0
:100FD0000C00B0EB810FEFD1306800F00700B84291
:100FE0000BD9306820F0070038433060306800F0DB
:100FF0000700B84201D00120E5E72878400705D571
:101000006068E96820F4E0600843606028780007C1
:1010100006D56068296920F4605040EAC10060602C
:1010200000F038F86168084AC1F30311515CC84008
:101030000649086006480068FFF7F8FE0020C2E78E
:1010400000200240001002409E2000081C000020EA
:10105000140000200448054900684968044AC1F3A7
:101060000221515CC84070471C0000200010024063
:10107000AE2000080448054900684968044AC1F3E5
:10108000C221515CC84070471C0000200010024083
:10109000AE2000080E4A51680E4801F00C03042BE4
:1010A00011D0082B0FD10C48C1F38343C903C05C96
:1010B0000AD55168084AC1F34041921E515C054A65
:1010C0005043B0FBF1F070470449484370470000BB
:1010D0000010024000127A008E20000800093D0036
:1010E0002DE9F84F040070D02078C04DC00749D0DA
:1010F0006868C0F38100012807D06868C0F38100E8
:10110000022809D16868C00306D52868800339D54C
:1011100060680028E7D035E06068B0F5803F0BD00C
:1011200010B1B0F5A02F11D0286820F480302860CD
:10113000286820F4802002E0286840F4803028608D
:10114000606890B1FFF752FE06460AE0286840F456
:1011500080202860F0E700BFFFF748FE801B64286E
:1011600073D828688003F7D50CE0FFF73FFE0646EA
:1011700005E000BFFFF73AFE801B6428F0D828681E
:101180008003F7D420789A4E80074FF001094FF082
:10119000000839D5686810F00C0F07D06868C0F3F4
:1011A0008100022809D16868C00306D42868800736
:1011B00014D52069012808D110E02069B0B1C6F823
:1011C0000090FFF713FE074605E00AE1FFF70EFE69
:1011D000C01B0228C4D828688007F7D52868616931
:1011E00020F0F80040EAC10028600DE0C6F8008059
:1011F000FFF7FCFD074604E0FFF7F8FDC01B0228DF
:1012000023D828688007F7D4207800072CD57948A0
:10121000A169D9B1C0F80090FFF7E8FD074604E0E6
:10122000FFF7E4FDC01B02280FD8686A8007F7D5D6
:1012300071484FF4FA510068B0FBF1F0009000BF24
:101240000098411E0091FAD20EE080E0C0F80080C4
:10125000FFF7CCFD074604E0FFF7C8FDC01B0228DE
:1012600075D8686A8007F7D42078400760D5E869A8
:101270000027C00008D4E86940F08050E861E869C0
:10128000012700F0805000905C480168C90513D424
:101290000168834641F480710160FFF7A7FD824633
:1012A00006E000BFFFF7A2FDA0EB0A0064284ED8BD
:1012B000DBF80000C005F5D5E06801280AD008B1C8
:1012C000052813D0286A20F001002862286A20F03F
:1012D000040002E0286A40F001002862E06841F260
:1012E000883B98B1FFF782FD82460BE0286A40F008
:1012F00004002862EEE700BFFFF778FDA0EB0A01CB
:1013000059455AD8286A8007F6D50CE0FFF76EFDDC
:10131000824605E0FFF76AFDA0EB0A0159454CD86B
:10132000286A8007F6D41FB1E86920F08050E86190
:10133000E06988B36968C1F38101022944D00228B9
:10134000C6F8608004D0FFF751FD044638E034E071
:10135000FFF74CFD074604E0FFF748FDC01B0228DD
:101360002BD828688001F7D4206AB0F5803F05D1DA
:101370006868A16820F4003008436860D4E9080177
:101380000843696821F4741108436860C6F86090E6
:10139000FFF72CFD044606E025E000BFFFF726FD21
:1013A000001B022809D828688001F7D51BE000BF80
:1013B000FFF71CFD001B022802D90320BDE8F88FAF
:1013C00028688001F4D40EE00128F7D06868226A0A
:1013D00000F48031914204D1616A00F470108842B7
:1013E00001D00120EAE70020E8E7000000100240F9
:1013F00000004242800442421C0000200070004075
:1014000010B5401EB0F1807F01D3012010BD4FF018
:10141000E02460610F21601700F027FD0020A0612B
:1014200007202061002010BD704710B504460068F9
:10143000406994F84110C0F3C010212911D180B146
:101440002068143050E8001F21F0800140E80012AD
:10145000002AF5D1A06B08B1FFF746FA204600F04C
:10146000F7FB2068406994F84210C0F380102229ED
:1014700011D180B12068143050E8001F21F04001E4
:1014800040E80012002AF5D1E06B08B1FFF72CFA12
:10149000204600F0B6FB002010BD000000B50F4A4A
:1014A00001688FB0914217D100F030F802460CA1CC
:1014B0006846FEF793FE6846FFF712F882B264238F
:1014C0006946104800F0E7F90E48FFF7AEFF8022AA
:1014D0000D490C4800F030FA0FB000BD0038014053
:1014E000444D41204572726F723A20307825303871
:1014F0006C582E2052657374617274696E672E2E5B
:101500002E0D0A00A000002020000020406C704733
:10151000F8B5016804460868CA684B6910F00F0FF7
:101520004FF0000559D003F0010602F490773743DD
:1015300065D0C10705D0D10503D5616C41F001012B
:101540006164410705D5D90703D0616C41F0020100
:101550006164810705D5D90703D0616C41F00401AE
:101560006164010707D502F02001314303D0616CAB
:1015700041F008016164616C00293AD0800604D50D
:10158000900602D5204600F071FB20684069616C2E
:10159000C0F38010090700D460B3204600F031FB8F
:1015A00020684069400621D52068143050E8001FAB
:1015B00021F0400140E80012002AF5D1E06BA8B10B
:1015C0006D494163E06BFFF7B3F9002811D0E06B80
:1015D000416B01B0BDE8F040084783060FD5930684
:1015E0000DD52046BDE8F84000F040BB2046FFF78F
:1015F00055FFF8BD2046FFF751FF6564F8BD266B27
:101600002023012E7CD1C6067AD5D60678D5086867
:101610004868009048694FF00206400640D5E16BEB
:10162000086840680004000CE8D0A28D8242E5D929
:10163000E085886920282DD020680C3050E8001FF4
:1016400021F4807140E80012002AF5D1206814309E
:1016500050E8001F21F0010140E80012002AF5D1F6
:101660002068143050E8001F21F0400140E80012CB
:10167000002AF5D184F84230256320680C3050E808
:10168000001F21F0100140E80012002AF5D1E06BA4
:10169000FFF72AF96663A08DE18D401A81B22AE036
:1016A000A08DE18D401A81B2E08D0028A6D00029DE
:1016B000A4D022680C3252E8000F20F4907042E867
:1016C0000007002FF5D12068143050E8002F22F0D9
:1016D000010240E80027002FF5D184F8423025634D
:1016E00020680C3050E8002F22F0100240E8002360
:1016F000002BF5D166632046FFF796FEF8BDFFE7A5
:1017000005062BD5150629D594F841002128F5D1D9
:10171000A068B0F5805F01D12069B0B1206A411C9A
:101720002162216800784860E08C401E0004000CB3
:10173000E084E3D12068C16821F08001C1602068A5
:10174000C16841F04001C160D8E7206A0088C0F359
:1017500008004860206A801C2062E5E74006CDD57D
:101760005006CBD5CA68204622F04002CA6084F8F1
:10177000413000F01DF9C1E75D1B000870B50400A1
:1017800004D094F84100002510B106E0012070BD9E
:1017900084F84050204600F023F8242084F84100CB
:1017A0002068C16821F40051C160204600F0C0FAF1
:1017B0002068016921F4904101612068416921F0AC
:1017C0002A0141612068C16841F40051C16065642B
:1017D000202084F8410084F842006563002070BD39
:1017E00070B586B0002506460095019502950395D3
:1017F00000682349884241D12249886940F48040E9
:101800008861886900F480400490886940F0040091
:10181000886188691C4C00F0040004904815009011
:10182000022001900320039069462046FFF7EEF95D
:101830002015CDE90005694620460295FFF7E6F937
:10184000134C124820601020C4E901058020C4E92F
:1018500003052020C4E90550C001E0612046FFF7E0
:101860005DF908B1FFF73EF8B46300221146252068
:101870006662FFF727FB2520FFF716FB06B070BD59
:1018800000380140001002400008014044000240BE
:10189000E800002070472DE9F843044690F8410025
:1018A000984616460D46202802D00220BDE8F8834F
:1018B00085B17EB100206064212084F84100FFF7EB
:1018C00095FAA6848146E684A0682027B0F5805F5B
:1018D00002D003E00120E9E7206910B12E4600257F
:1018E0000EE000260CE08021204600F07DFAA8B929
:1018F000C6B116F8010B21684860E08C401EE084F8
:10190000E08C4B464FF00002CDF800800028EAD171
:101910004FF04001204600F067FA40B184F8417072
:101920000320C3E735F8020BC0F30800E3E784F8AF
:1019300041700020BAE7000070B5044690F84100FD
:10194000202801D0022070BD49B342B32162A28495
:10195000E28400206064212384F84130A56B114BA0
:10196000AB62A56B104BEB62A56B104B2B63A36BAB
:101970005863256813462A1DA06BFFF7FDF8216800
:101980006FF0400008602068143050E8001F41F0FC
:10199000800140E80012002AF5D1002070BD01202E
:1019A00070BD0000B71B0008F91B00086D1B000884
:1019B00000680449884203D103488168491C81605A
:1019C0007047000000380140000000200068044912
:1019D000884203D103484168491C416070470000B8
:1019E0000038014000000020FEE70000094808B56B
:1019F000416941F0010141614069002200F00100AC
:101A0000009011460E20FFF75DFABDE808400E2059
:101A1000FFF74ABA00100240094808B5816941F051
:101A200020018161816901F020010091816941F00B
:101A300004018161806900F00400009008BD00008D
:101A4000001002400C4810B50A4901604FF4E13122
:101A50004160002181600C22C160C0E904128161F3
:101A6000C161FFF78BFE002803D0BDE81040FEF7F0
:101A700039BF10BD00380140A0000020FEE7FEE79E
:101A80007047704700B50C48A1B0416882681144A6
:101A9000CA01CDE900128368426808A102A8FEF7D6
:101AA0009DFB02A8FEF71CFD82B20A2302A9114881
:101AB000FFF7F1FE21B000BD000000205B53544150
:101AC0005455535D2048616C663A256C75207C2026
:101AD00046756C6C3A256C75207C20546F74616C73
:101AE0003A256C75207C2042797465733A256C75B3
:101AF0000D0A0000A0000020FFF77EB930B58FB0BE
:101B000028216846FEF72DFD14210AA8FEF729FDBD
:101B100001210804CDE9001000240294022504915B
:101B2000CDE907504FF4E01009906846FFF7D8FA66
:101B300008B172B6FEE70F20CDE90A054FF48060C8
:101B4000CDE90C4002210AA80E94FFF7EDF9002818
:101B500001D072B6FEE70FB030BD704710B5406AD5
:101B60000021C185C184FFF799FC10BD70B5446A9E
:101B70002068406994F84110C0F3C0100025212965
:101B800004D118B1E584204600F062F8206840696D
:101B900094F84210C0F38010222904D118B1E585D1
:101BA000204600F02EF8606C40F010006064204683
:101BB000FFF774FC70BD10B50146406A09680968FA
:101BC000890616D40021C1840168143151E8002F20
:101BD00022F0800241E80023002BF5D101680C318E
:101BE00051E8002F42F0400241E80023002BF5D1DC
:101BF00010BDFFF7DDFE10BD10B5406AFFF7E6FE31
:101C000010BD01680C3151E8002F22F4907241E8B8
:101C10000023002BF5D10168143151E8002F22F088
:101C2000010241E80023002BF5D1016B012909D104
:101C300001680C3151E8002F22F0100241E8002326
:101C4000002BF5D1202180F842100021016370475C
:101C500001680C3151E8002F22F0C00241E8002356
:101C6000002BF5D1202180F84110704708B590F87D
:101C70004210222901D0022008BD82684FF480530F
:101C80009A4201D1016921B1816A9A421BD04AB1BD
:101C90000AE00268816A5268C2F308020A80816A17
:101CA000891C08E0026972B10268526802F07F0282
:101CB0000A70816A491C8162C18D491E0904090CA0
:101CC000C18503D01BE002685268F1E70168CA6869
:101CD00022F02002CA600168CA6822F48072CA60D9
:101CE00001684A6922F001024A61202180F842100D
:101CF00000214163026B012A03D0FFF7CBFD0020D6
:101D000008BD016301680C3151E8002F22F0100278
:101D100041E80023002BF5D101680A68D20602D5FC
:101D20000A6849680091818DFFF77EFBE7E70000B4
:101D300070B5044600680169E26821F4405111431E
:101D400001612169A0680843616908432168CA6884
:101D500041F20C639A430243CA6020684169A26958
:101D600021F44071114341611E492068884202D12B
:101D7000FFF780F901E0FFF76DF900EBC00101EB1F
:101D80000012606864218000B2FBF0F3B3FBF1F352
:101D90006FF018067343B2FBF0F5B2FBF0F605EBFB
:101DA0008305322303EB0515B5FBF1F5B6FBF1F620
:101DB00005F0F00505EB0615B2FBF0F6B2FBF0F00E
:101DC000B0FBF1F06FF01802504306EB800003EB1C
:101DD0000010B0FBF1F0216800F00F00284488608B
:101DE00070BD0000003801402DE9F84398461746C1
:101DF0000D460446089E24E0701C22D0FEF7F6FF34
:101E0000A0EB0800B0421AD8CEB12068C1684907DB
:101E100017D5802D15D0402D13D00168C94309076F
:101E20000FD401680025406800902046FFF7E9FEC6
:101E30000820606484F840500120BDE8F883032046
:101E4000FBE72068006835EA000004D00020B842B3
:101E5000D2D00020F1E70120F9E700000148FFF7A8
:101E600057BB0000A0000020FEE70907090E00286C
:101E700004DB00F1E02080F80014704700F00F0050
:101E800000F1E02080F8141D704730380A2801D294
:101E900001207047002070470EB5FEF7B5FFFFF731
:101EA0002DFEFFF7B9FDFFF7A1FDFFF7CBFD36488B
:101EB000416821F0E06141F000714160FEF734FCBF
:101EC0006423022231A13248FFF7E5FC64232A2271
:101ED00030A12F48FFF7DFFC6423282238A12C48CB
:101EE000FFF7D9FC6423282240A12948FFF7D3FC3F
:101EF00064232A2227A12648FFF7CDFC6420FEF7A1
:101F000073FEFEF73BFC802243492148FFF714FD96
:101F100004004FF0640314D0192240A11C48FFF7BD
:101F2000BAFC224644A16846FEF758F96846FEF717
:101F3000D7FA82B2642369461548FFF7ACFC72B643
:101F4000FEE723223EA11248FFF7A5FC64232122CD
:101F500044A10F48FFF79FFC4B4C01202070FEF777
:101F600045FF4FF4FA65E060FEF740FF0646E06883
:101F7000301AA84204D3207808B1FFF783FDE66049
:101F80006420FEF731FEEFE7000001400D0A00007B
:101F9000A00000203D3D3D3D3D3D3D3D3D3D3D3DA5
:101FA0003D3D3D3D3D3D3D3D3D3D3D3D3D3D3D3D61
:101FB0003D3D3D3D3D3D3D3D3D3D3D3D0D0A00002E
:101FC00053544D333220444D4120436F6E74696E3B
:101FD000756F7573205472616E736D697373696F79
:101FE0006E20546573740D0A000000004261756430
:101FF00020526174653A20313135323030206270C0
:1020000073207C204D6F64653A2043697263756C60
:1020100061720D0A0000000020000020444D4120A4
:102020007374617274204641494C454421204572C5
:10203000726F723A2000000025640D0A0000000053
:10204000444D412043697263756C61722074726102
:102050006E736D697373696F6E20535441525445AA
:10206000440D0A00446174612073747265616D6986
:102070006E6720636F6E74696E756F75736C792E01
:102080002E2E0D0A0D0A000000000020010202039E
:102090000405060708090A0B0C0D0E0F10100000AE
:1020A0000000000000000102030406070809000008
:1020B0000000010203043031323334353637383909
:1020C0004142434445464030580030313233343584
:1020D00036373839616263646566403078000400E1
:1020E00000080000000000000002000100001000D5
:1020F00053544D333220444D412054657374202D88
:102100002043697263756C6172204D6F64650D0ABE
:1021100044617461313A4142434420204461746116
:10212000323A45464748202044617461333A494A6F
:102130004B4C0D0A44617461343A4D4E4F5020208F
:10214000436F756E743A3030303030302020537425
:10215000617475733A4F4B0D0A426175643A3131BF
:1021600035323030202054696D653A2530386C7531
:102170000D0A2D2D2D2D2D2D2D2D2D2D2D2D2D2DD2
:102180002D2D2D2D2D2D2D2D2D2D2D2D2D2D2D2D7F
:102190002D2D0D0A00000000B821000800000020CD
:1021A0002000000028010008D8210008200000209D
:1021B000700700004401000800000000000000005B
:1021C00000000000000000000100000010000000FE
:0821D0000000000000127A007B
:04000005080000ED02
:00000001FF
